{
  "contractName": "Governance",
  "abi": [
    {
      "inputs": [],
      "stateMutability": "nonpayable",
      "type": "constructor"
    },
    {
      "inputs": [
        {
          "internalType": "uint256",
          "name": "",
          "type": "uint256"
        }
      ],
      "name": "activeLotteries",
      "outputs": [
        {
          "internalType": "address",
          "name": "",
          "type": "address"
        }
      ],
      "stateMutability": "view",
      "type": "function",
      "constant": true
    },
    {
      "inputs": [],
      "name": "admin",
      "outputs": [
        {
          "internalType": "address",
          "name": "",
          "type": "address"
        }
      ],
      "stateMutability": "view",
      "type": "function",
      "constant": true
    },
    {
      "inputs": [
        {
          "internalType": "address",
          "name": "",
          "type": "address"
        }
      ],
      "name": "lotteries",
      "outputs": [
        {
          "internalType": "bool",
          "name": "isActive",
          "type": "bool"
        },
        {
          "internalType": "uint256",
          "name": "minimumPrice",
          "type": "uint256"
        },
        {
          "internalType": "uint256",
          "name": "initialJackpot",
          "type": "uint256"
        },
        {
          "internalType": "uint256",
          "name": "firstDrawTime",
          "type": "uint256"
        },
        {
          "internalType": "uint256",
          "name": "duration",
          "type": "uint256"
        },
        {
          "internalType": "uint256",
          "name": "index",
          "type": "uint256"
        }
      ],
      "stateMutability": "view",
      "type": "function",
      "constant": true
    },
    {
      "inputs": [],
      "name": "lotteryFee",
      "outputs": [
        {
          "internalType": "uint256",
          "name": "",
          "type": "uint256"
        }
      ],
      "stateMutability": "view",
      "type": "function",
      "constant": true
    },
    {
      "inputs": [],
      "name": "randomness",
      "outputs": [
        {
          "internalType": "address",
          "name": "",
          "type": "address"
        }
      ],
      "stateMutability": "view",
      "type": "function",
      "constant": true
    },
    {
      "inputs": [],
      "name": "tickets",
      "outputs": [
        {
          "internalType": "address",
          "name": "",
          "type": "address"
        }
      ],
      "stateMutability": "view",
      "type": "function",
      "constant": true
    },
    {
      "inputs": [
        {
          "internalType": "address",
          "name": "_admin",
          "type": "address"
        }
      ],
      "name": "changeAdmin",
      "outputs": [],
      "stateMutability": "nonpayable",
      "type": "function"
    },
    {
      "inputs": [
        {
          "internalType": "address",
          "name": "_randomness",
          "type": "address"
        }
      ],
      "name": "changeRandom",
      "outputs": [],
      "stateMutability": "nonpayable",
      "type": "function"
    },
    {
      "inputs": [
        {
          "internalType": "uint256",
          "name": "_lotteryFee",
          "type": "uint256"
        }
      ],
      "name": "changeFee",
      "outputs": [],
      "stateMutability": "nonpayable",
      "type": "function"
    },
    {
      "inputs": [
        {
          "internalType": "address",
          "name": "_lotteryAddress",
          "type": "address"
        },
        {
          "internalType": "uint256",
          "name": "_price",
          "type": "uint256"
        }
      ],
      "name": "changeMinimumPrice",
      "outputs": [],
      "stateMutability": "nonpayable",
      "type": "function"
    },
    {
      "inputs": [
        {
          "internalType": "address",
          "name": "_lotteryAddress",
          "type": "address"
        },
        {
          "internalType": "uint256",
          "name": "_initialJackpot",
          "type": "uint256"
        }
      ],
      "name": "changeInitialJackpot",
      "outputs": [],
      "stateMutability": "nonpayable",
      "type": "function"
    },
    {
      "inputs": [
        {
          "internalType": "address",
          "name": "_lotteryAddress",
          "type": "address"
        },
        {
          "internalType": "uint256",
          "name": "_duration",
          "type": "uint256"
        }
      ],
      "name": "changeDuration",
      "outputs": [],
      "stateMutability": "nonpayable",
      "type": "function"
    },
    {
      "inputs": [
        {
          "internalType": "address",
          "name": "_randomness",
          "type": "address"
        },
        {
          "internalType": "address",
          "name": "_tickets",
          "type": "address"
        },
        {
          "internalType": "uint256",
          "name": "_lotteryFee",
          "type": "uint256"
        }
      ],
      "name": "init",
      "outputs": [],
      "stateMutability": "nonpayable",
      "type": "function"
    },
    {
      "inputs": [
        {
          "internalType": "address",
          "name": "_lottery",
          "type": "address"
        },
        {
          "internalType": "uint256",
          "name": "_minimumPrice",
          "type": "uint256"
        },
        {
          "internalType": "uint256",
          "name": "_duration",
          "type": "uint256"
        },
        {
          "internalType": "uint256",
          "name": "_initialJackpot",
          "type": "uint256"
        },
        {
          "internalType": "uint256",
          "name": "_firstDrawTime",
          "type": "uint256"
        }
      ],
      "name": "addLottery",
      "outputs": [],
      "stateMutability": "nonpayable",
      "type": "function"
    },
    {
      "inputs": [
        {
          "internalType": "address",
          "name": "_lottery",
          "type": "address"
        }
      ],
      "name": "cancelLottery",
      "outputs": [],
      "stateMutability": "nonpayable",
      "type": "function"
    },
    {
      "inputs": [
        {
          "internalType": "address",
          "name": "_lotteryAddress",
          "type": "address"
        }
      ],
      "name": "validateLottery",
      "outputs": [
        {
          "internalType": "bool",
          "name": "",
          "type": "bool"
        }
      ],
      "stateMutability": "view",
      "type": "function",
      "constant": true
    },
    {
      "inputs": [
        {
          "internalType": "address",
          "name": "_lotteryAddress",
          "type": "address"
        }
      ],
      "name": "getMinimumPrice",
      "outputs": [
        {
          "internalType": "uint256",
          "name": "",
          "type": "uint256"
        }
      ],
      "stateMutability": "view",
      "type": "function",
      "constant": true
    },
    {
      "inputs": [
        {
          "internalType": "address",
          "name": "_lotteryAddress",
          "type": "address"
        }
      ],
      "name": "getDuration",
      "outputs": [
        {
          "internalType": "uint256",
          "name": "",
          "type": "uint256"
        }
      ],
      "stateMutability": "view",
      "type": "function",
      "constant": true
    },
    {
      "inputs": [
        {
          "internalType": "address",
          "name": "_lotteryAddress",
          "type": "address"
        }
      ],
      "name": "getInitialJackpot",
      "outputs": [
        {
          "internalType": "uint256",
          "name": "",
          "type": "uint256"
        }
      ],
      "stateMutability": "view",
      "type": "function",
      "constant": true
    },
    {
      "inputs": [
        {
          "internalType": "address",
          "name": "_lotteryAddress",
          "type": "address"
        }
      ],
      "name": "getFirstDrawTime",
      "outputs": [
        {
          "internalType": "uint256",
          "name": "",
          "type": "uint256"
        }
      ],
      "stateMutability": "view",
      "type": "function",
      "constant": true
    },
    {
      "inputs": [],
      "name": "getActiveLotteries",
      "outputs": [
        {
          "internalType": "address[]",
          "name": "list",
          "type": "address[]"
        }
      ],
      "stateMutability": "view",
      "type": "function",
      "constant": true
    }
  ],
  "bytecode": "0x608060405234801561001057600080fd5b50336000806101000a81548173ffffffffffffffffffffffffffffffffffffffff021916908373ffffffffffffffffffffffffffffffffffffffff160217905550612453806100606000396000f3fe608060405234801561001057600080fd5b50600436106101375760003560e01c80636a1db1bf116100b85780638f2839701161007c5780638f283970146103385780639fc9956c14610354578063b2245a6914610384578063e44c5323146103a0578063f3caf1a7146103d0578063f851a4401461040557610137565b80636a1db1bf1461029657806378aa08ed146102b257806386863ec6146102d05780638856a9b1146102ec5780638ba721f01461030857610137565b806336013189116100ff57806336013189146101f45780633655a2c2146102125780634260c7ff1461022e5780634ad6fc491461025e578063663d42fc1461027a57610137565b8063055b66cd1461013c5780630b66ab831461015a5780630fdae43b1461017657806320ecd639146101a657806321858521146101d6575b600080fd5b610144610423565b60405161015191906119a3565b60405180910390f35b610174600480360381019061016f9190611a2c565b6104b1565b005b610190600480360381019061018b9190611aa7565b6108b6565b60405161019d9190611ae3565b60405180910390f35b6101c060048036038101906101bb9190611aa7565b610902565b6040516101cd9190611ae3565b60405180910390f35b6101de61094e565b6040516101eb9190611b0d565b60405180910390f35b6101fc610974565b6040516102099190611b0d565b60405180910390f35b61022c60048036038101906102279190611b28565b61099a565b005b61024860048036038101906102439190611aa7565b610ab8565b6040516102559190611ae3565b60405180910390f35b61027860048036038101906102739190611aa7565b610b04565b005b610294600480360381019061028f9190611b28565b610cd5565b005b6102b060048036038101906102ab9190611b68565b610df1565b005b6102ba610f12565b6040516102c79190611ae3565b60405180910390f35b6102ea60048036038101906102e59190611b95565b610f18565b005b61030660048036038101906103019190611b28565b6110a3565b005b610322600480360381019061031d9190611aa7565b6111bf565b60405161032f9190611ae3565b60405180910390f35b610352600480360381019061034d9190611aa7565b61120b565b005b61036e60048036038101906103699190611b68565b6113d9565b60405161037b9190611b0d565b60405180910390f35b61039e60048036038101906103999190611aa7565b611418565b005b6103ba60048036038101906103b59190611aa7565b6117ed565b6040516103c79190611c03565b60405180910390f35b6103ea60048036038101906103e59190611aa7565b611846565b6040516103fc96959493929190611c1e565b60405180910390f35b61040d61188f565b60405161041a9190611b0d565b60405180910390f35b606060058054806020026020016040519081016040528092919081815260200182805480156104a757602002820191906000526020600020905b8160009054906101000a900473ffffffffffffffffffffffffffffffffffffffff1673ffffffffffffffffffffffffffffffffffffffff168152602001906001019080831161045d575b5050505050905090565b3373ffffffffffffffffffffffffffffffffffffffff1660008054906101000a900473ffffffffffffffffffffffffffffffffffffffff1673ffffffffffffffffffffffffffffffffffffffff161461053f576040517f08c379a000000000000000000000000000000000000000000000000000000000815260040161053690611cdc565b60405180910390fd5b600073ffffffffffffffffffffffffffffffffffffffff168573ffffffffffffffffffffffffffffffffffffffff16036105ae576040517f08c379a00000000000000000000000000000000000000000000000000000000081526004016105a590611d48565b60405180910390fd5b610e108310156105f3576040517f08c379a00000000000000000000000000000000000000000000000000000000081526004016105ea90611db4565b60405180910390fd5b600460008673ffffffffffffffffffffffffffffffffffffffff1673ffffffffffffffffffffffffffffffffffffffff16815260200190815260200160002060000160009054906101000a900460ff1615610683576040517f08c379a000000000000000000000000000000000000000000000000000000000815260040161067a90611e20565b60405180910390fd5b600060058054905090506005869080600181540180825580915050600190039060005260206000200160009091909190916101000a81548173ffffffffffffffffffffffffffffffffffffffff021916908373ffffffffffffffffffffffffffffffffffffffff1602179055506001600460008873ffffffffffffffffffffffffffffffffffffffff1673ffffffffffffffffffffffffffffffffffffffff16815260200190815260200160002060000160006101000a81548160ff02191690831515021790555084600460008873ffffffffffffffffffffffffffffffffffffffff1673ffffffffffffffffffffffffffffffffffffffff1681526020019081526020016000206001018190555083600460008873ffffffffffffffffffffffffffffffffffffffff1673ffffffffffffffffffffffffffffffffffffffff1681526020019081526020016000206004018190555082600460008873ffffffffffffffffffffffffffffffffffffffff1673ffffffffffffffffffffffffffffffffffffffff1681526020019081526020016000206002018190555081600460008873ffffffffffffffffffffffffffffffffffffffff1673ffffffffffffffffffffffffffffffffffffffff1681526020019081526020016000206003018190555080600460008873ffffffffffffffffffffffffffffffffffffffff1673ffffffffffffffffffffffffffffffffffffffff16815260200190815260200160002060050181905550505050505050565b6000600460008373ffffffffffffffffffffffffffffffffffffffff1673ffffffffffffffffffffffffffffffffffffffff168152602001908152602001600020600401549050919050565b6000600460008373ffffffffffffffffffffffffffffffffffffffff1673ffffffffffffffffffffffffffffffffffffffff168152602001908152602001600020600101549050919050565b600260009054906101000a900473ffffffffffffffffffffffffffffffffffffffff1681565b600160009054906101000a900473ffffffffffffffffffffffffffffffffffffffff1681565b3373ffffffffffffffffffffffffffffffffffffffff1660008054906101000a900473ffffffffffffffffffffffffffffffffffffffff1673ffffffffffffffffffffffffffffffffffffffff1614610a28576040517f08c379a0000000000000000000000000000000000000000000000000000000008152600401610a1f90611cdc565b60405180910390fd5b610e10811015610a6d576040517f08c379a0000000000000000000000000000000000000000000000000000000008152600401610a6490611eb2565b60405180910390fd5b80600460008473ffffffffffffffffffffffffffffffffffffffff1673ffffffffffffffffffffffffffffffffffffffff168152602001908152602001600020600401819055505050565b6000600460008373ffffffffffffffffffffffffffffffffffffffff1673ffffffffffffffffffffffffffffffffffffffff168152602001908152602001600020600301549050919050565b3373ffffffffffffffffffffffffffffffffffffffff1660008054906101000a900473ffffffffffffffffffffffffffffffffffffffff1673ffffffffffffffffffffffffffffffffffffffff1614610b92576040517f08c379a0000000000000000000000000000000000000000000000000000000008152600401610b8990611cdc565b60405180910390fd5b600073ffffffffffffffffffffffffffffffffffffffff168173ffffffffffffffffffffffffffffffffffffffff1603610c01576040517f08c379a0000000000000000000000000000000000000000000000000000000008152600401610bf890611f44565b60405180910390fd5b600160009054906101000a900473ffffffffffffffffffffffffffffffffffffffff1673ffffffffffffffffffffffffffffffffffffffff168173ffffffffffffffffffffffffffffffffffffffff1603610c91576040517f08c379a0000000000000000000000000000000000000000000000000000000008152600401610c8890611fd6565b60405180910390fd5b80600160006101000a81548173ffffffffffffffffffffffffffffffffffffffff021916908373ffffffffffffffffffffffffffffffffffffffff16021790555050565b3373ffffffffffffffffffffffffffffffffffffffff1660008054906101000a900473ffffffffffffffffffffffffffffffffffffffff1673ffffffffffffffffffffffffffffffffffffffff1614610d63576040517f08c379a0000000000000000000000000000000000000000000000000000000008152600401610d5a90611cdc565b60405180910390fd5b60008111610da6576040517f08c379a0000000000000000000000000000000000000000000000000000000008152600401610d9d90612068565b60405180910390fd5b80600460008473ffffffffffffffffffffffffffffffffffffffff1673ffffffffffffffffffffffffffffffffffffffff168152602001908152602001600020600201819055505050565b3373ffffffffffffffffffffffffffffffffffffffff1660008054906101000a900473ffffffffffffffffffffffffffffffffffffffff1673ffffffffffffffffffffffffffffffffffffffff1614610e7f576040517f08c379a0000000000000000000000000000000000000000000000000000000008152600401610e7690611cdc565b60405180910390fd5b611388811115610ec4576040517f08c379a0000000000000000000000000000000000000000000000000000000008152600401610ebb906120d4565b60405180910390fd5b6003548103610f08576040517f08c379a0000000000000000000000000000000000000000000000000000000008152600401610eff90612166565b60405180910390fd5b8060038190555050565b60035481565b3373ffffffffffffffffffffffffffffffffffffffff1660008054906101000a900473ffffffffffffffffffffffffffffffffffffffff1673ffffffffffffffffffffffffffffffffffffffff1614610fa6576040517f08c379a0000000000000000000000000000000000000000000000000000000008152600401610f9d90611cdc565b60405180910390fd5b600073ffffffffffffffffffffffffffffffffffffffff168373ffffffffffffffffffffffffffffffffffffffff1603611015576040517f08c379a000000000000000000000000000000000000000000000000000000000815260040161100c90611f44565b60405180910390fd5b82600160006101000a81548173ffffffffffffffffffffffffffffffffffffffff021916908373ffffffffffffffffffffffffffffffffffffffff16021790555081600260006101000a81548173ffffffffffffffffffffffffffffffffffffffff021916908373ffffffffffffffffffffffffffffffffffffffff16021790555080600381905550505050565b3373ffffffffffffffffffffffffffffffffffffffff1660008054906101000a900473ffffffffffffffffffffffffffffffffffffffff1673ffffffffffffffffffffffffffffffffffffffff1614611131576040517f08c379a000000000000000000000000000000000000000000000000000000000815260040161112890611cdc565b60405180910390fd5b60008111611174576040517f08c379a000000000000000000000000000000000000000000000000000000000815260040161116b906121f8565b60405180910390fd5b80600460008473ffffffffffffffffffffffffffffffffffffffff1673ffffffffffffffffffffffffffffffffffffffff168152602001908152602001600020600101819055505050565b6000600460008373ffffffffffffffffffffffffffffffffffffffff1673ffffffffffffffffffffffffffffffffffffffff168152602001908152602001600020600201549050919050565b3373ffffffffffffffffffffffffffffffffffffffff1660008054906101000a900473ffffffffffffffffffffffffffffffffffffffff1673ffffffffffffffffffffffffffffffffffffffff1614611299576040517f08c379a000000000000000000000000000000000000000000000000000000000815260040161129090611cdc565b60405180910390fd5b600073ffffffffffffffffffffffffffffffffffffffff168173ffffffffffffffffffffffffffffffffffffffff1603611308576040517f08c379a00000000000000000000000000000000000000000000000000000000081526004016112ff90612264565b60405180910390fd5b8073ffffffffffffffffffffffffffffffffffffffff1660008054906101000a900473ffffffffffffffffffffffffffffffffffffffff1673ffffffffffffffffffffffffffffffffffffffff1603611396576040517f08c379a000000000000000000000000000000000000000000000000000000000815260040161138d906122d0565b60405180910390fd5b806000806101000a81548173ffffffffffffffffffffffffffffffffffffffff021916908373ffffffffffffffffffffffffffffffffffffffff16021790555050565b600581815481106113e957600080fd5b906000526020600020016000915054906101000a900473ffffffffffffffffffffffffffffffffffffffff1681565b3373ffffffffffffffffffffffffffffffffffffffff1660008054906101000a900473ffffffffffffffffffffffffffffffffffffffff1673ffffffffffffffffffffffffffffffffffffffff16146114a6576040517f08c379a000000000000000000000000000000000000000000000000000000000815260040161149d90611cdc565b60405180910390fd5b600073ffffffffffffffffffffffffffffffffffffffff168173ffffffffffffffffffffffffffffffffffffffff1603611515576040517f08c379a000000000000000000000000000000000000000000000000000000000815260040161150c90611d48565b60405180910390fd5b600460008273ffffffffffffffffffffffffffffffffffffffff1673ffffffffffffffffffffffffffffffffffffffff16815260200190815260200160002060000160009054906101000a900460ff166115a4576040517f08c379a000000000000000000000000000000000000000000000000000000000815260040161159b9061233c565b60405180910390fd5b6000600460008373ffffffffffffffffffffffffffffffffffffffff1673ffffffffffffffffffffffffffffffffffffffff168152602001908152602001600020600501549050600060016005805490506115ff919061238b565b9050600060058281548110611617576116166123bf565b5b9060005260206000200160009054906101000a900473ffffffffffffffffffffffffffffffffffffffff1690508360058381548110611659576116586123bf565b5b9060005260206000200160006101000a81548173ffffffffffffffffffffffffffffffffffffffff021916908373ffffffffffffffffffffffffffffffffffffffff16021790555080600584815481106116b6576116b56123bf565b5b9060005260206000200160006101000a81548173ffffffffffffffffffffffffffffffffffffffff021916908373ffffffffffffffffffffffffffffffffffffffff16021790555082600460008373ffffffffffffffffffffffffffffffffffffffff1673ffffffffffffffffffffffffffffffffffffffff168152602001908152602001600020600501819055506005805480611757576117566123ee565b5b6001900381819060005260206000200160006101000a81549073ffffffffffffffffffffffffffffffffffffffff021916905590556000600460008673ffffffffffffffffffffffffffffffffffffffff1673ffffffffffffffffffffffffffffffffffffffff16815260200190815260200160002060000160006101000a81548160ff02191690831515021790555050505050565b6000600460008373ffffffffffffffffffffffffffffffffffffffff1673ffffffffffffffffffffffffffffffffffffffff16815260200190815260200160002060000160009054906101000a900460ff169050919050565b60046020528060005260406000206000915090508060000160009054906101000a900460ff16908060010154908060020154908060030154908060040154908060050154905086565b60008054906101000a900473ffffffffffffffffffffffffffffffffffffffff1681565b600081519050919050565b600082825260208201905092915050565b6000819050602082019050919050565b600073ffffffffffffffffffffffffffffffffffffffff82169050919050565b600061190a826118df565b9050919050565b61191a816118ff565b82525050565b600061192c8383611911565b60208301905092915050565b6000602082019050919050565b6000611950826118b3565b61195a81856118be565b9350611965836118cf565b8060005b8381101561199657815161197d8882611920565b975061198883611938565b925050600181019050611969565b5085935050505092915050565b600060208201905081810360008301526119bd8184611945565b905092915050565b600080fd5b6119d3816118ff565b81146119de57600080fd5b50565b6000813590506119f0816119ca565b92915050565b6000819050919050565b611a09816119f6565b8114611a1457600080fd5b50565b600081359050611a2681611a00565b92915050565b600080600080600060a08688031215611a4857611a476119c5565b5b6000611a56888289016119e1565b9550506020611a6788828901611a17565b9450506040611a7888828901611a17565b9350506060611a8988828901611a17565b9250506080611a9a88828901611a17565b9150509295509295909350565b600060208284031215611abd57611abc6119c5565b5b6000611acb848285016119e1565b91505092915050565b611add816119f6565b82525050565b6000602082019050611af86000830184611ad4565b92915050565b611b07816118ff565b82525050565b6000602082019050611b226000830184611afe565b92915050565b60008060408385031215611b3f57611b3e6119c5565b5b6000611b4d858286016119e1565b9250506020611b5e85828601611a17565b9150509250929050565b600060208284031215611b7e57611b7d6119c5565b5b6000611b8c84828501611a17565b91505092915050565b600080600060608486031215611bae57611bad6119c5565b5b6000611bbc868287016119e1565b9350506020611bcd868287016119e1565b9250506040611bde86828701611a17565b9150509250925092565b60008115159050919050565b611bfd81611be8565b82525050565b6000602082019050611c186000830184611bf4565b92915050565b600060c082019050611c336000830189611bf4565b611c406020830188611ad4565b611c4d6040830187611ad4565b611c5a6060830186611ad4565b611c676080830185611ad4565b611c7460a0830184611ad4565b979650505050505050565b600082825260208201905092915050565b7f6e6f742d616e2d61646d696e0000000000000000000000000000000000000000600082015250565b6000611cc6600c83611c7f565b9150611cd182611c90565b602082019050919050565b60006020820190508181036000830152611cf581611cb9565b9050919050565b7f6e6f2d6c6f74746572792d616464726573732d676976656e0000000000000000600082015250565b6000611d32601883611c7f565b9150611d3d82611cfc565b602082019050919050565b60006020820190508181036000830152611d6181611d25565b9050919050565b7f6475726174696f6e206d757374206265206c6f6e676572000000000000000000600082015250565b6000611d9e601783611c7f565b9150611da982611d68565b602082019050919050565b60006020820190508181036000830152611dcd81611d91565b9050919050565b7f6c6f74746572792d69732d616c72656164792d61637469766500000000000000600082015250565b6000611e0a601983611c7f565b9150611e1582611dd4565b602082019050919050565b60006020820190508181036000830152611e3981611dfd565b9050919050565b7f4475726174696f6e206d757374206265206d6f7265207468616e203630206d6960008201527f6e75746573000000000000000000000000000000000000000000000000000000602082015250565b6000611e9c602583611c7f565b9150611ea782611e40565b604082019050919050565b60006020820190508181036000830152611ecb81611e8f565b9050919050565b7f676f7665726e616e63652f6e6f2d72616e646f6d6e657373732d61646472657360008201527f7300000000000000000000000000000000000000000000000000000000000000602082015250565b6000611f2e602183611c7f565b9150611f3982611ed2565b604082019050919050565b60006020820190508181036000830152611f5d81611f21565b9050919050565b7f676f7665726e616e63652f73616d652d72616e646f6d6e657373732d6164647260008201527f6573730000000000000000000000000000000000000000000000000000000000602082015250565b6000611fc0602383611c7f565b9150611fcb82611f64565b604082019050919050565b60006020820190508181036000830152611fef81611fb3565b9050919050565b7f4a61636b706f74206e6565647320746f206265206d6f7265207468616e207a6560008201527f726f000000000000000000000000000000000000000000000000000000000000602082015250565b6000612052602283611c7f565b915061205d82611ff6565b604082019050919050565b6000602082019050818103600083015261208181612045565b9050919050565b7f4c6f74746572792066656520697320746f6f2068696768000000000000000000600082015250565b60006120be601783611c7f565b91506120c982612088565b602082019050919050565b600060208201905081810360008301526120ed816120b1565b9050919050565b7f4c6f7474657279204665652063616e2774206265207468652073616d6520617360008201527f206e6f7700000000000000000000000000000000000000000000000000000000602082015250565b6000612150602483611c7f565b915061215b826120f4565b604082019050919050565b6000602082019050818103600083015261217f81612143565b9050919050565b7f546865207072696365206e6565647320746f206265206d6f7265207468616e2060008201527f7a65726f00000000000000000000000000000000000000000000000000000000602082015250565b60006121e2602483611c7f565b91506121ed82612186565b604082019050919050565b60006020820190508181036000830152612211816121d5565b9050919050565b7f676f7665726e616e63652f6e6f2d61646d696e2d616464726573730000000000600082015250565b600061224e601b83611c7f565b915061225982612218565b602082019050919050565b6000602082019050818103600083015261227d81612241565b9050919050565b7f676f7665726e616e63652f73616d652d61646d696e0000000000000000000000600082015250565b60006122ba601583611c7f565b91506122c582612284565b602082019050919050565b600060208201905081810360008301526122e9816122ad565b9050919050565b7f6e6f742d6163746976652d6c6f74746572790000000000000000000000000000600082015250565b6000612326601283611c7f565b9150612331826122f0565b602082019050919050565b6000602082019050818103600083015261235581612319565b9050919050565b7f4e487b7100000000000000000000000000000000000000000000000000000000600052601160045260246000fd5b6000612396826119f6565b91506123a1836119f6565b92508282039050818111156123b9576123b861235c565b5b92915050565b7f4e487b7100000000000000000000000000000000000000000000000000000000600052603260045260246000fd5b7f4e487b7100000000000000000000000000000000000000000000000000000000600052603160045260246000fdfea2646970667358221220ccdeb2f00dc2a95134ca8bd1b03529c5e83d587cc57933698e80a87dddcb116a64736f6c63430008110033",
  "immutableReferences": {},
  "source": "// SPDX-License-Identifier: MIT\r\npragma solidity ^0.8.9;\r\n\r\nimport {GovernanceInterface} from \"./interfaces/GovernanceInterface.sol\";\r\n\r\ncontract Governance is GovernanceInterface {\r\n    // Address of admin account\r\n    address public admin;\r\n\r\n    // Address of randomness contract\r\n    address public randomness;\r\n\r\n    // Address of tickets contract\r\n    address public tickets;\r\n\r\n    uint public lotteryFee; // Lottery fee (in basis points) 1% = 100 basis points\r\n\r\n    // Mapping lottery address => the lottery settings.\r\n    mapping(address => Lottery) public lotteries;\r\n\r\n    // Array of active lotteries\r\n    address[] public activeLotteries;\r\n\r\n    struct Lottery {\r\n        bool isActive; // True if the lottery if active\r\n        uint minimumPrice; // Minimum price of the lottery ticket with minimum selected numbers\r\n        uint initialJackpot; // Starting jackpot amount\r\n        uint firstDrawTime; // Time of the first lottery draw\r\n        uint duration; // Lottery duration\r\n        uint index;\r\n    }\r\n\r\n    modifier isAdmin {\r\n        require(admin == msg.sender, \"not-an-admin\");\r\n        _;\r\n    }\r\n\r\n    function changeAdmin(address _admin) external isAdmin {\r\n        require(_admin != address(0), \"governance/no-admin-address\");\r\n        require(admin != _admin, \"governance/same-admin\");\r\n        admin = _admin;\r\n    }\r\n\r\n    function changeRandom(address _randomness) external isAdmin {\r\n        require(_randomness != address(0), \"governance/no-randomnesss-address\");\r\n        require(_randomness != randomness, \"governance/same-randomnesss-address\");\r\n        randomness = _randomness;\r\n    }\r\n\r\n    function changeFee(uint _lotteryFee) external isAdmin {\r\n        require(_lotteryFee <= 5000, \"Lottery fee is too high\");\r\n        require(_lotteryFee != lotteryFee, \"Lottery Fee can't be the same as now\");\r\n        lotteryFee = _lotteryFee;\r\n    }\r\n\r\n    function changeMinimumPrice(address _lotteryAddress, uint _price) external isAdmin {\r\n        require(_price > 0, \"The price needs to be more than zero\");\r\n        lotteries[_lotteryAddress].minimumPrice = _price;\r\n    }\r\n\r\n    function changeInitialJackpot(address _lotteryAddress, uint _initialJackpot) external isAdmin {\r\n        require(_initialJackpot > 0, \"Jackpot needs to be more than zero\");\r\n        lotteries[_lotteryAddress].initialJackpot = _initialJackpot;\r\n    }\r\n\r\n    function changeDuration(address _lotteryAddress, uint _duration) external isAdmin {\r\n        require(_duration >= 3600, \"Duration must be more than 60 minutes\");\r\n        lotteries[_lotteryAddress].duration = _duration;\r\n    }\r\n\r\n    function init(address _randomness, address _tickets, uint _lotteryFee) external isAdmin {\r\n        require(_randomness != address(0), \"governance/no-randomnesss-address\");\r\n\r\n        randomness = _randomness;\r\n        tickets = _tickets;\r\n        lotteryFee = _lotteryFee;\r\n    }\r\n\r\n    function addLottery(\r\n        address _lottery,\r\n        uint _minimumPrice,\r\n        uint _duration,\r\n        uint _initialJackpot,\r\n        uint _firstDrawTime\r\n    ) external isAdmin {\r\n        require(_lottery != address(0), \"no-lottery-address-given\");\r\n        require(_duration >= 3600, \"duration must be longer\");\r\n        require(!lotteries[_lottery].isActive, \"lottery-is-already-active\");\r\n\r\n        uint nextIndex = activeLotteries.length;\r\n        activeLotteries.push(_lottery);\r\n\r\n        lotteries[_lottery].isActive = true;\r\n        lotteries[_lottery].minimumPrice = _minimumPrice;\r\n        lotteries[_lottery].duration = _duration;\r\n        lotteries[_lottery].initialJackpot = _initialJackpot;\r\n        lotteries[_lottery].firstDrawTime = _firstDrawTime;\r\n        lotteries[_lottery].index = nextIndex;\r\n    }\r\n\r\n    function cancelLottery(address _lottery) external isAdmin {\r\n        require(_lottery != address(0), \"no-lottery-address-given\");\r\n        require(lotteries[_lottery].isActive, \"not-active-lottery\");\r\n\r\n        uint index = lotteries[_lottery].index;\r\n        uint lastIndex = activeLotteries.length - 1;\r\n        address temp = activeLotteries[lastIndex];\r\n        activeLotteries[lastIndex] = _lottery;\r\n        activeLotteries[index] = temp;\r\n        lotteries[temp].index = index;\r\n\r\n        activeLotteries.pop();\r\n\r\n        lotteries[_lottery].isActive = false;\r\n    }\r\n\r\n    function validateLottery(address _lotteryAddress) external view returns (bool) {\r\n        return lotteries[_lotteryAddress].isActive;\r\n    }\r\n\r\n    function getMinimumPrice(address _lotteryAddress) external view returns (uint) {\r\n        return lotteries[_lotteryAddress].minimumPrice;\r\n    }\r\n\r\n    function getDuration(address _lotteryAddress) external view returns (uint) {\r\n        return lotteries[_lotteryAddress].duration;\r\n    }\r\n\r\n    function getInitialJackpot(address _lotteryAddress) external view returns (uint) {\r\n        return lotteries[_lotteryAddress].initialJackpot;\r\n    }\r\n\r\n    function getFirstDrawTime(address _lotteryAddress) external view returns (uint) {\r\n        return lotteries[_lotteryAddress].firstDrawTime;\r\n    }\r\n\r\n    function getActiveLotteries() external view returns (address[] memory list) {\r\n        return activeLotteries;\r\n    }\r\n\r\n    constructor() {\r\n        admin = msg.sender;\r\n    }\r\n\r\n}\r\n\r\n",
  "sourcePath": "C:\\Users\\a18al\\Desktop\\lottery-one\\src\\contracts\\Governance.sol",
  "compiler": {
    "name": "solc",
    "version": "0.8.17+commit.8df45f5f.Emscripten.clang"
  },
  "schemaVersion": "3.4.6",
  "updatedAt": "2022-11-18T13:33:14.290Z",
  "networkType": "ethereum",
  "devdoc": {
    "kind": "dev",
    "methods": {},
    "version": 1
  },
  "userdoc": {
    "kind": "user",
    "methods": {},
    "version": 1
  }
}