{
  "contractName": "Lottery420",
  "abi": [
    {
      "inputs": [
        {
          "internalType": "address",
          "name": "_governance",
          "type": "address"
        }
      ],
      "stateMutability": "payable",
      "type": "constructor"
    },
    {
      "anonymous": false,
      "inputs": [
        {
          "indexed": false,
          "internalType": "address",
          "name": "_user",
          "type": "address"
        },
        {
          "indexed": false,
          "internalType": "uint256",
          "name": "_value",
          "type": "uint256"
        }
      ],
      "name": "Deposit",
      "type": "event"
    },
    {
      "anonymous": false,
      "inputs": [
        {
          "indexed": false,
          "internalType": "string",
          "name": "_name",
          "type": "string"
        },
        {
          "indexed": false,
          "internalType": "uint256",
          "name": "_lotteryId",
          "type": "uint256"
        }
      ],
      "name": "NewLotteryStarted",
      "type": "event"
    },
    {
      "anonymous": false,
      "inputs": [
        {
          "indexed": false,
          "internalType": "uint256",
          "name": "_ticketId",
          "type": "uint256"
        },
        {
          "indexed": false,
          "internalType": "uint256",
          "name": "_ticketPrice",
          "type": "uint256"
        },
        {
          "indexed": false,
          "internalType": "address",
          "name": "_user",
          "type": "address"
        }
      ],
      "name": "TicketPurchased",
      "type": "event"
    },
    {
      "anonymous": false,
      "inputs": [
        {
          "indexed": false,
          "internalType": "address",
          "name": "_user",
          "type": "address"
        },
        {
          "indexed": false,
          "internalType": "uint256",
          "name": "_value",
          "type": "uint256"
        }
      ],
      "name": "WithdrawBalance",
      "type": "event"
    },
    {
      "anonymous": false,
      "inputs": [
        {
          "indexed": false,
          "internalType": "address",
          "name": "_user",
          "type": "address"
        },
        {
          "indexed": false,
          "internalType": "uint256",
          "name": "_value",
          "type": "uint256"
        }
      ],
      "name": "WithdrawWinnings",
      "type": "event"
    },
    {
      "inputs": [],
      "name": "governanceContract",
      "outputs": [
        {
          "internalType": "contract GovernanceInterface",
          "name": "",
          "type": "address"
        }
      ],
      "stateMutability": "view",
      "type": "function"
    },
    {
      "inputs": [],
      "name": "growingJackpot",
      "outputs": [
        {
          "internalType": "uint256",
          "name": "",
          "type": "uint256"
        }
      ],
      "stateMutability": "view",
      "type": "function"
    },
    {
      "inputs": [
        {
          "internalType": "uint256",
          "name": "",
          "type": "uint256"
        }
      ],
      "name": "lottery",
      "outputs": [
        {
          "internalType": "uint256",
          "name": "lotteryId",
          "type": "uint256"
        },
        {
          "internalType": "uint256",
          "name": "minimumPrice",
          "type": "uint256"
        },
        {
          "internalType": "enum Lottery420.LOTTERY_STATE",
          "name": "state",
          "type": "uint8"
        },
        {
          "internalType": "uint256",
          "name": "drawTime",
          "type": "uint256"
        },
        {
          "internalType": "uint256",
          "name": "totalValue",
          "type": "uint256"
        },
        {
          "internalType": "uint256",
          "name": "jackpot",
          "type": "uint256"
        }
      ],
      "stateMutability": "view",
      "type": "function"
    },
    {
      "inputs": [],
      "name": "lotteryId",
      "outputs": [
        {
          "internalType": "uint256",
          "name": "",
          "type": "uint256"
        }
      ],
      "stateMutability": "view",
      "type": "function"
    },
    {
      "inputs": [],
      "name": "name",
      "outputs": [
        {
          "internalType": "string",
          "name": "",
          "type": "string"
        }
      ],
      "stateMutability": "view",
      "type": "function"
    },
    {
      "inputs": [
        {
          "internalType": "address",
          "name": "",
          "type": "address"
        }
      ],
      "name": "users",
      "outputs": [
        {
          "internalType": "uint256",
          "name": "balance",
          "type": "uint256"
        }
      ],
      "stateMutability": "view",
      "type": "function"
    },
    {
      "stateMutability": "payable",
      "type": "receive"
    },
    {
      "inputs": [],
      "name": "manual_start_new_lottery",
      "outputs": [],
      "stateMutability": "nonpayable",
      "type": "function"
    },
    {
      "inputs": [
        {
          "internalType": "uint256[]",
          "name": "_pickedNumbers",
          "type": "uint256[]"
        }
      ],
      "name": "enter",
      "outputs": [],
      "stateMutability": "payable",
      "type": "function"
    },
    {
      "inputs": [],
      "name": "getUser",
      "outputs": [
        {
          "internalType": "uint256",
          "name": "balance",
          "type": "uint256"
        }
      ],
      "stateMutability": "view",
      "type": "function"
    },
    {
      "inputs": [
        {
          "internalType": "uint256",
          "name": "_lotteryId",
          "type": "uint256"
        }
      ],
      "name": "getLotteryById",
      "outputs": [
        {
          "internalType": "uint256",
          "name": "id",
          "type": "uint256"
        },
        {
          "internalType": "uint256",
          "name": "minimumPrice",
          "type": "uint256"
        },
        {
          "internalType": "enum Lottery420.LOTTERY_STATE",
          "name": "state",
          "type": "uint8"
        },
        {
          "internalType": "uint256",
          "name": "drawTime",
          "type": "uint256"
        },
        {
          "internalType": "uint256[]",
          "name": "drawnNumbers",
          "type": "uint256[]"
        },
        {
          "internalType": "uint256",
          "name": "amountOfTickets",
          "type": "uint256"
        },
        {
          "internalType": "uint256",
          "name": "totalValue",
          "type": "uint256"
        },
        {
          "internalType": "uint256",
          "name": "jackpot",
          "type": "uint256"
        },
        {
          "internalType": "uint256",
          "name": "jackpotWinners",
          "type": "uint256"
        }
      ],
      "stateMutability": "view",
      "type": "function"
    },
    {
      "inputs": [],
      "name": "getCurrentLotteryPlusOne",
      "outputs": [
        {
          "internalType": "uint256",
          "name": "currentId",
          "type": "uint256"
        },
        {
          "components": [
            {
              "internalType": "uint256",
              "name": "id",
              "type": "uint256"
            },
            {
              "internalType": "uint256",
              "name": "minimumPrice",
              "type": "uint256"
            },
            {
              "internalType": "enum Lottery420.LOTTERY_STATE",
              "name": "state",
              "type": "uint8"
            },
            {
              "internalType": "uint256",
              "name": "drawTime",
              "type": "uint256"
            },
            {
              "internalType": "uint256[]",
              "name": "drawnNumbers",
              "type": "uint256[]"
            },
            {
              "internalType": "uint256",
              "name": "amountOfTickets",
              "type": "uint256"
            },
            {
              "internalType": "uint256",
              "name": "totalValue",
              "type": "uint256"
            },
            {
              "internalType": "uint256",
              "name": "jackpot",
              "type": "uint256"
            },
            {
              "internalType": "uint256",
              "name": "jackpotWinners",
              "type": "uint256"
            }
          ],
          "internalType": "struct Lottery420.LotteryGetterStruct[]",
          "name": "lotteryDraws",
          "type": "tuple[]"
        }
      ],
      "stateMutability": "view",
      "type": "function"
    },
    {
      "inputs": [
        {
          "internalType": "uint256[]",
          "name": "_ids",
          "type": "uint256[]"
        }
      ],
      "name": "getLotteryByIds",
      "outputs": [
        {
          "components": [
            {
              "internalType": "uint256",
              "name": "id",
              "type": "uint256"
            },
            {
              "internalType": "uint256",
              "name": "minimumPrice",
              "type": "uint256"
            },
            {
              "internalType": "enum Lottery420.LOTTERY_STATE",
              "name": "state",
              "type": "uint8"
            },
            {
              "internalType": "uint256",
              "name": "drawTime",
              "type": "uint256"
            },
            {
              "internalType": "uint256[]",
              "name": "drawnNumbers",
              "type": "uint256[]"
            },
            {
              "internalType": "uint256",
              "name": "amountOfTickets",
              "type": "uint256"
            },
            {
              "internalType": "uint256",
              "name": "totalValue",
              "type": "uint256"
            },
            {
              "internalType": "uint256",
              "name": "jackpot",
              "type": "uint256"
            },
            {
              "internalType": "uint256",
              "name": "jackpotWinners",
              "type": "uint256"
            }
          ],
          "internalType": "struct Lottery420.LotteryGetterStruct[]",
          "name": "lotteryDraws",
          "type": "tuple[]"
        }
      ],
      "stateMutability": "view",
      "type": "function"
    },
    {
      "inputs": [],
      "name": "manual_start_drawing",
      "outputs": [],
      "stateMutability": "nonpayable",
      "type": "function"
    },
    {
      "inputs": [
        {
          "internalType": "uint256",
          "name": "randomness",
          "type": "uint256"
        }
      ],
      "name": "fulfill_drawing",
      "outputs": [],
      "stateMutability": "nonpayable",
      "type": "function"
    },
    {
      "inputs": [
        {
          "internalType": "uint256",
          "name": "_ticketId",
          "type": "uint256"
        }
      ],
      "name": "withdrawWinnings",
      "outputs": [],
      "stateMutability": "nonpayable",
      "type": "function"
    },
    {
      "inputs": [
        {
          "internalType": "uint256",
          "name": "value",
          "type": "uint256"
        }
      ],
      "name": "withdrawBalance",
      "outputs": [],
      "stateMutability": "nonpayable",
      "type": "function"
    },
    {
      "inputs": [],
      "name": "deposit",
      "outputs": [],
      "stateMutability": "payable",
      "type": "function"
    },
    {
      "inputs": [
        {
          "internalType": "bytes",
          "name": "performData",
          "type": "bytes"
        }
      ],
      "name": "performUpkeep",
      "outputs": [],
      "stateMutability": "nonpayable",
      "type": "function"
    },
    {
      "inputs": [
        {
          "internalType": "bytes",
          "name": "checkData",
          "type": "bytes"
        }
      ],
      "name": "checkUpkeep",
      "outputs": [
        {
          "internalType": "bool",
          "name": "upkeepNeeded",
          "type": "bool"
        },
        {
          "internalType": "bytes",
          "name": "performData",
          "type": "bytes"
        }
      ],
      "stateMutability": "view",
      "type": "function"
    }
  ],
  "bytecode": "0x60806040526040518060400160405280600a81526020017f6c6f747465727934323000000000000000000000000000000000000000000000815250600290816200004a919062000530565b50604051620058d3380380620058d3833981810160405281019062000070919062000681565b600160008190555080600160006101000a81548173ffffffffffffffffffffffffffffffffffffffff021916908373ffffffffffffffffffffffffffffffffffffffff16021790555060006003819055506000600581905550600d6006600060028152602001908152602001600020600080815260200190815260200160002081905550600a6006600060028152602001908152602001600020600060018152602001908152602001600020819055506020600660006002815260200190815260200160002060006002815260200190815260200160002081905550602e6006600060038152602001908152602001600020600080815260200190815260200160002081905550602a600660006003815260200190815260200160002060006001815260200190815260200160002081905550608e6006600060038152602001908152602001600020600060028152602001908152602001600020819055506101396006600060038152602001908152602001600020600060038152602001908152602001600020819055506102cd60066000600481526020019081526020016000206000808152602001908152602001600020819055506107f6600660006004815260200190815260200160002060006001815260200190815260200160002081905550610825600660006004815260200190815260200160002060006002815260200190815260200160002081905550613aeb60066000600481526020019081526020016000206000600381526020019081526020016000208190555050620006b3565b600081519050919050565b7f4e487b7100000000000000000000000000000000000000000000000000000000600052604160045260246000fd5b7f4e487b7100000000000000000000000000000000000000000000000000000000600052602260045260246000fd5b600060028204905060018216806200033857607f821691505b6020821081036200034e576200034d620002f0565b5b50919050565b60008190508160005260206000209050919050565b60006020601f8301049050919050565b600082821b905092915050565b600060088302620003b87fffffffffffffffffffffffffffffffffffffffffffffffffffffffffffffffff8262000379565b620003c4868362000379565b95508019841693508086168417925050509392505050565b6000819050919050565b6000819050919050565b6000620004116200040b6200040584620003dc565b620003e6565b620003dc565b9050919050565b6000819050919050565b6200042d83620003f0565b620004456200043c8262000418565b84845462000386565b825550505050565b600090565b6200045c6200044d565b6200046981848462000422565b505050565b5b8181101562000491576200048560008262000452565b6001810190506200046f565b5050565b601f821115620004e057620004aa8162000354565b620004b58462000369565b81016020851015620004c5578190505b620004dd620004d48562000369565b8301826200046e565b50505b505050565b600082821c905092915050565b60006200050560001984600802620004e5565b1980831691505092915050565b6000620005208383620004f2565b9150826002028217905092915050565b6200053b82620002b6565b67ffffffffffffffff811115620005575762000556620002c1565b5b6200056382546200031f565b6200057082828562000495565b600060209050601f831160018114620005a8576000841562000593578287015190505b6200059f858262000512565b8655506200060f565b601f198416620005b88662000354565b60005b82811015620005e257848901518255600182019150602085019450602081019050620005bb565b86831015620006025784890151620005fe601f891682620004f2565b8355505b6001600288020188555050505b505050505050565b600080fd5b600073ffffffffffffffffffffffffffffffffffffffff82169050919050565b600062000649826200061c565b9050919050565b6200065b816200063c565b81146200066757600080fd5b50565b6000815190506200067b8162000650565b92915050565b6000602082840312156200069a576200069962000617565b5b6000620006aa848285016200066a565b91505092915050565b61521080620006c36000396000f3fe6080604052600436106101185760003560e01c8063a87430ba116100a0578063da76d5cd11610064578063da76d5cd146103b3578063e580f47b146103dc578063eaac28ce14610407578063f782f68314610430578063fde38380146104475761011f565b8063a87430ba146102d0578063a99f89711461030d578063b172b22214610352578063d0e30db01461037d578063d163b718146103875761011f565b80634585e33b116100e75780634585e33b146101e05780636e04ff0d146102095780637944135d14610247578063832880e714610263578063a57d15601461028e5761011f565b806306fdde0314610124578063147947021461014f57806323a1413514610178578063394d9cf9146101a35761011f565b3661011f57005b600080fd5b34801561013057600080fd5b5061013961045e565b60405161014691906137e5565b60405180910390f35b34801561015b57600080fd5b5061017660048036038101906101719190613851565b6104ec565b005b34801561018457600080fd5b5061018d610baa565b60405161019a919061388d565b60405180910390f35b3480156101af57600080fd5b506101ca60048036038101906101c591906139f0565b610bb0565b6040516101d79190613cf5565b60405180910390f35b3480156101ec57600080fd5b5061020760048036038101906102029190613d72565b6110bd565b005b34801561021557600080fd5b50610230600480360381019061022b9190613d72565b6111ad565b60405161023e929190613e2f565b60405180910390f35b610261600480360381019061025c91906139f0565b611255565b005b34801561026f57600080fd5b506102786119b0565b604051610285919061388d565b60405180910390f35b34801561029a57600080fd5b506102b560048036038101906102b09190613851565b6119fa565b6040516102c796959493929190613e6e565b60405180910390f35b3480156102dc57600080fd5b506102f760048036038101906102f29190613f2d565b611a43565b604051610304919061388d565b60405180910390f35b34801561031957600080fd5b50610334600480360381019061032f9190613851565b611a61565b60405161034999989796959493929190613fc9565b60405180910390f35b34801561035e57600080fd5b50610367611eac565b60405161037491906140bc565b60405180910390f35b610385611ed2565b005b34801561039357600080fd5b5061039c611fa9565b6040516103aa9291906140d7565b60405180910390f35b3480156103bf57600080fd5b506103da60048036038101906103d59190613851565b612523565b005b3480156103e857600080fd5b506103f16126d7565b6040516103fe919061388d565b60405180910390f35b34801561041357600080fd5b5061042e60048036038101906104299190613851565b6126dd565b005b34801561043c57600080fd5b50610445612abb565b005b34801561045357600080fd5b5061045c612bc3565b005b6002805461046b90614136565b80601f016020809104026020016040519081016040528092919081815260200182805461049790614136565b80156104e45780601f106104b9576101008083540402835291602001916104e4565b820191906000526020600020905b8154815290600101906020018083116104c757829003601f168201915b505050505081565b6104f4612ccb565b60008060606000806000600160009054906101000a900473ffffffffffffffffffffffffffffffffffffffff1673ffffffffffffffffffffffffffffffffffffffff1663218585216040518163ffffffff1660e01b8152600401602060405180830381865afa15801561056b573d6000803e3d6000fd5b505050506040513d601f19601f8201168201806040525081019061058f919061417c565b73ffffffffffffffffffffffffffffffffffffffff166327b7aabc886040518263ffffffff1660e01b81526004016105c7919061388d565b600060405180830381865afa1580156105e4573d6000803e3d6000fd5b505050506040513d6000823e3d601f19601f8201168201806040525081019061060d9190614255565b809650819750829850839950849a50859b505050505050508173ffffffffffffffffffffffffffffffffffffffff163373ffffffffffffffffffffffffffffffffffffffff1614610693576040517f08c379a000000000000000000000000000000000000000000000000000000000815260040161068a9061434a565b60405180910390fd5b3073ffffffffffffffffffffffffffffffffffffffff168673ffffffffffffffffffffffffffffffffffffffff1614610701576040517f08c379a00000000000000000000000000000000000000000000000000000000081526004016106f8906143b6565b60405180910390fd5b60008314610744576040517f08c379a000000000000000000000000000000000000000000000000000000000815260040161073b90614422565b60405180910390fd5b6000805b60048110156107d75760086000888152602001908152602001600020600060018152602001908152602001600020600087838151811061078b5761078a614442565b5b6020026020010151815260200190815260200160002060009054906101000a900460ff16156107c4576001826107c191906144a0565b91505b80806107cf906144d4565b915050610748565b50600080600490505b600881101561086f5760086000898152602001908152602001600020600060028152602001908152602001600020600088838151811061082357610822614442565b5b6020026020010151815260200190815260200160002060009054906101000a900460ff161561085c5760018261085991906144a0565b91505b8080610867906144d4565b9150506107e0565b50600282101580610881575060028110155b6108c0576040517f08c379a00000000000000000000000000000000000000000000000000000000081526004016108b790614568565b60405180910390fd5b6004821480156108d05750600481145b1561090d576108fe83600460008a815260200190815260200160002060050154612d1a90919063ffffffff16565b945060006005819055506109d7565b8082106109775760046000888152602001908152602001600020600101546006600084815260200190815260200160002060008381526020019081526020016000205461095a9190614588565b9450610970600a86612d1a90919063ffffffff16565b94506109d6565b6004600088815260200190815260200160002060010154600660008381526020019081526020016000206000848152602001908152602001600020546109bd9190614588565b94506109d3600a86612d1a90919063ffffffff16565b94505b5b84471015610a1a576040517f08c379a0000000000000000000000000000000000000000000000000000000008152600401610a119061463c565b60405180910390fd5b8373ffffffffffffffffffffffffffffffffffffffff166108fc869081150290604051600060405180830381858888f19350505050158015610a60573d6000803e3d6000fd5b50600160009054906101000a900473ffffffffffffffffffffffffffffffffffffffff1673ffffffffffffffffffffffffffffffffffffffff1663218585216040518163ffffffff1660e01b8152600401602060405180830381865afa158015610ace573d6000803e3d6000fd5b505050506040513d601f19601f82011682018060405250810190610af2919061417c565b73ffffffffffffffffffffffffffffffffffffffff16637aa4c7668a876040518363ffffffff1660e01b8152600401610b2c92919061465c565b600060405180830381600087803b158015610b4657600080fd5b505af1158015610b5a573d6000803e3d6000fd5b505050507f50dfdb607f756467f59c211a5be9aee38d72c796f21eb5df18bdd0fc3cc7de238486604051610b8f929190614694565b60405180910390a15050505050505050610ba7612d30565b50565b60055481565b6060815167ffffffffffffffff811115610bcd57610bcc6138ad565b5b604051908082528060200260200182016040528015610c0657816020015b610bf36136d4565b815260200190600190039081610beb5790505b50905060005b82518110156110b75760008067ffffffffffffffff811115610c3157610c306138ad565b5b604051908082528060200260200182016040528015610c5f5781602001602082028036833780820191505090505b509050600080858481518110610c7857610c77614442565b5b6020026020010151905060006002811115610c9657610c95613a74565b5b6004600083815260200190815260200160002060020160009054906101000a900460ff166002811115610ccc57610ccb613a74565b5b14610f7857600867ffffffffffffffff811115610cec57610ceb6138ad565b5b604051908082528060200260200182016040528015610d1a5781602001602082028036833780820191505090505b509250600080600190505b60148111610dc25760086000848152602001908152602001600020600060018152602001908152602001600020600082815260200190815260200160002060009054906101000a900460ff1615610daf5780858381518110610d8a57610d89614442565b5b602002602001018181525050600182610da391906144a0565b91506004820315610dc2575b8080610dba906144d4565b915050610d25565b506000600190505b60148111610e675760086000848152602001908152602001600020600060028152602001908152602001600020600082815260200190815260200160002060009054906101000a900460ff1615610e545780858381518110610e2f57610e2e614442565b5b602002602001018181525050600182610e4891906144a0565b91506008820315610e67575b8080610e5f906144d4565b915050610dca565b50600160009054906101000a900473ffffffffffffffffffffffffffffffffffffffff1673ffffffffffffffffffffffffffffffffffffffff1663218585216040518163ffffffff1660e01b8152600401602060405180830381865afa158015610ed5573d6000803e3d6000fd5b505050506040513d601f19601f82011682018060405250810190610ef9919061417c565b73ffffffffffffffffffffffffffffffffffffffff1663c8011a8983866040518363ffffffff1660e01b8152600401610f339291906146bd565b602060405180830381865afa158015610f50573d6000803e3d6000fd5b505050506040513d601f19601f82011682018060405250810190610f7491906146ed565b9250505b604051806101200160405280828152602001600460008481526020019081526020016000206001015481526020016004600084815260200190815260200160002060020160009054906101000a900460ff166002811115610fdc57610fdb613a74565b5b81526020016004600084815260200190815260200160002060030154815260200184815260200161104260046000858152602001908152602001600020600101546004600086815260200190815260200160002060040154612d1a90919063ffffffff16565b815260200160046000848152602001908152602001600020600401548152602001600460008481526020019081526020016000206005015481526020018381525085858151811061109657611095614442565b5b602002602001018190525050505080806110af906144d4565b915050610c0c565b50919050565b600060028111156110d1576110d0613a74565b5b60046000600354815260200190815260200160002060020160009054906101000a900460ff16600281111561110957611108613a74565b5b14611149576040517f08c379a000000000000000000000000000000000000000000000000000000000815260040161114090614766565b60405180910390fd5b6000828281019061115a9190613851565b905060035481146111a0576040517f08c379a0000000000000000000000000000000000000000000000000000000008152600401611197906147d2565b60405180910390fd5b6111a8612d3a565b505050565b60006060600060028111156111c5576111c4613a74565b5b60046000600354815260200190815260200160002060020160009054906101000a900460ff1660028111156111fd576111fc613a74565b5b036112255760046000600354815260200190815260200160002060030154421015915061122a565b600091505b60035460405160200161123d919061388d565b60405160208183030381529060405290509250929050565b61012c6004600060035481526020019081526020016000206003015461127b91906147f2565b42106112bc576040517f08c379a00000000000000000000000000000000000000000000000000000000081526004016112b390614898565b60405180910390fd5b600060028111156112d0576112cf613a74565b5b60046000600354815260200190815260200160002060020160009054906101000a900460ff16600281111561130857611307613a74565b5b14611348576040517f08c379a000000000000000000000000000000000000000000000000000000000815260040161133f90614904565b60405180910390fd5b600881511461138c576040517f08c379a000000000000000000000000000000000000000000000000000000000815260040161138390614996565b60405180910390fd5b60006004600060035481526020019081526020016000206001015490508034146113eb576040517f08c379a00000000000000000000000000000000000000000000000000000000081526004016113e290614a28565b60405180910390fd5b60005b600481101561160857600183828151811061140c5761140b614442565b5b60200260200101511015611455576040517f08c379a000000000000000000000000000000000000000000000000000000000815260040161144c90614aba565b60405180910390fd5b601483828151811061146a57611469614442565b5b602002602001015111156114b3576040517f08c379a00000000000000000000000000000000000000000000000000000000081526004016114aa90614aba565b60405180910390fd5b600081111561153f57826001826114ca91906147f2565b815181106114db576114da614442565b5b60200260200101518382815181106114f6576114f5614442565b5b60200260200101511161153e576040517f08c379a000000000000000000000000000000000000000000000000000000000815260040161153590614b26565b60405180910390fd5b5b600060019050600060018361155491906144a0565b90505b60048110156115b35784818151811061157357611572614442565b5b602002602001015185848151811061158e5761158d614442565b5b6020026020010151036115a057600091505b80806115ab906144d4565b915050611557565b50806115f4576040517f08c379a00000000000000000000000000000000000000000000000000000000081526004016115eb90614bb8565b60405180910390fd5b508080611600906144d4565b9150506113ee565b506000600490505b600881101561182a57600183828151811061162e5761162d614442565b5b60200260200101511015611677576040517f08c379a000000000000000000000000000000000000000000000000000000000815260040161166e90614aba565b60405180910390fd5b601483828151811061168c5761168b614442565b5b602002602001015111156116d5576040517f08c379a00000000000000000000000000000000000000000000000000000000081526004016116cc90614aba565b60405180910390fd5b600481111561176157826001826116ec91906147f2565b815181106116fd576116fc614442565b5b602002602001015183828151811061171857611717614442565b5b602002602001015111611760576040517f08c379a000000000000000000000000000000000000000000000000000000000815260040161175790614b26565b60405180910390fd5b5b600060019050600060018361177691906144a0565b90505b60088110156117d55784818151811061179557611794614442565b5b60200260200101518584815181106117b0576117af614442565b5b6020026020010151036117c257600091505b80806117cd906144d4565b915050611779565b5080611816576040517f08c379a000000000000000000000000000000000000000000000000000000000815260040161180d90614c4a565b60405180910390fd5b508080611822906144d4565b915050611610565b506000600160009054906101000a900473ffffffffffffffffffffffffffffffffffffffff1673ffffffffffffffffffffffffffffffffffffffff1663218585216040518163ffffffff1660e01b8152600401602060405180830381865afa15801561189a573d6000803e3d6000fd5b505050506040513d601f19601f820116820180604052508101906118be919061417c565b73ffffffffffffffffffffffffffffffffffffffff16636c5e811e84600354336040518463ffffffff1660e01b81526004016118fc93929190614c6a565b6020604051808303816000875af115801561191b573d6000803e3d6000fd5b505050506040513d601f19601f8201168201806040525081019061193f91906146ed565b905081600460006003548152602001908152602001600020600401600082825461196991906144a0565b925050819055507f94c5953e15f54d38b82a662bdd5739fc91af3a23d3ef7e67269dfaeee71a813c8183336040516119a393929190614ca8565b60405180910390a1505050565b6000600760003373ffffffffffffffffffffffffffffffffffffffff1673ffffffffffffffffffffffffffffffffffffffff16815260200190815260200160002060000154905090565b60046020528060005260406000206000915090508060000154908060010154908060020160009054906101000a900460ff16908060030154908060040154908060050154905086565b60076020528060005260406000206000915090508060000154905081565b6000806000806060600080600080600460008b8152602001908152602001600020600001549850600460008b8152602001908152602001600020600101549750600460008b815260200190815260200160002060020160009054906101000a900460ff169650600460008b8152602001908152602001600020600301549550611b1f600460008c815260200190815260200160002060010154600460008d815260200190815260200160002060040154612d1a90919063ffffffff16565b9350600460008b8152602001908152602001600020600401549250600460008b815260200190815260200160002060050154915060009050600067ffffffffffffffff811115611b7257611b716138ad565b5b604051908082528060200260200182016040528015611ba05781602001602082028036833780820191505090505b50945060006002811115611bb757611bb6613a74565b5b600460008c815260200190815260200160002060020160009054906101000a900460ff166002811115611bed57611bec613a74565b5b14611e9f576000600867ffffffffffffffff811115611c0f57611c0e6138ad565b5b604051908082528060200260200182016040528015611c3d5781602001602082028036833780820191505090505b509050600080600190505b60148111611ce557600860008e8152602001908152602001600020600060018152602001908152602001600020600082815260200190815260200160002060009054906101000a900460ff1615611cd25780838381518110611cad57611cac614442565b5b602002602001018181525050600182611cc691906144a0565b91506004820315611ce5575b8080611cdd906144d4565b915050611c48565b506000600190505b60148111611d8a57600860008e8152602001908152602001600020600060028152602001908152602001600020600082815260200190815260200160002060009054906101000a900460ff1615611d775780838381518110611d5257611d51614442565b5b602002602001018181525050600182611d6b91906144a0565b91506008820315611d8a575b8080611d82906144d4565b915050611ced565b50819650600160009054906101000a900473ffffffffffffffffffffffffffffffffffffffff1673ffffffffffffffffffffffffffffffffffffffff1663218585216040518163ffffffff1660e01b8152600401602060405180830381865afa158015611dfb573d6000803e3d6000fd5b505050506040513d601f19601f82011682018060405250810190611e1f919061417c565b73ffffffffffffffffffffffffffffffffffffffff1663c8011a898c846040518363ffffffff1660e01b8152600401611e599291906146bd565b602060405180830381865afa158015611e76573d6000803e3d6000fd5b505050506040513d601f19601f82011682018060405250810190611e9a91906146ed565b925050505b9193959799909294969850565b600160009054906101000a900473ffffffffffffffffffffffffffffffffffffffff1681565b60003411611f15576040517f08c379a0000000000000000000000000000000000000000000000000000000008152600401611f0c90614d2b565b60405180910390fd5b34600760003373ffffffffffffffffffffffffffffffffffffffff1673ffffffffffffffffffffffffffffffffffffffff1681526020019081526020016000206000016000828254611f6791906144a0565b925050819055507fe1fffcc4923d04b559f4d29a8bfc6cda04eb5b0d3c460751c2402c5c5cc9109c3334604051611f9f929190614694565b60405180910390a1565b600060606003549150600082036120195781600067ffffffffffffffff811115611fd657611fd56138ad565b5b60405190808252806020026020018201604052801561200f57816020015b611ffc6136d4565b815260200190600190039081611ff45790505b509150915061251f565b600267ffffffffffffffff811115612034576120336138ad565b5b60405190808252806020026020018201604052801561206d57816020015b61205a6136d4565b8152602001906001900390816120525790505b50905060005b600281101561251d576000818461208a91906147f2565b90506000810361209a575061251d565b60008067ffffffffffffffff8111156120b6576120b56138ad565b5b6040519080825280602002602001820160405280156120e45781602001602082028036833780820191505090505b50905060008060028111156120fc576120fb613a74565b5b6004600085815260200190815260200160002060020160009054906101000a900460ff16600281111561213257612131613a74565b5b146123de57600867ffffffffffffffff811115612152576121516138ad565b5b6040519080825280602002602001820160405280156121805781602001602082028036833780820191505090505b509150600080600190505b601481116122285760086000868152602001908152602001600020600060018152602001908152602001600020600082815260200190815260200160002060009054906101000a900460ff161561221557808483815181106121f0576121ef614442565b5b60200260200101818152505060018261220991906144a0565b91506004820315612228575b8080612220906144d4565b91505061218b565b506000600190505b601481116122cd5760086000868152602001908152602001600020600060028152602001908152602001600020600082815260200190815260200160002060009054906101000a900460ff16156122ba578084838151811061229557612294614442565b5b6020026020010181815250506001826122ae91906144a0565b915060088203156122cd575b80806122c5906144d4565b915050612230565b50600160009054906101000a900473ffffffffffffffffffffffffffffffffffffffff1673ffffffffffffffffffffffffffffffffffffffff1663218585216040518163ffffffff1660e01b8152600401602060405180830381865afa15801561233b573d6000803e3d6000fd5b505050506040513d601f19601f8201168201806040525081019061235f919061417c565b73ffffffffffffffffffffffffffffffffffffffff1663c8011a8985856040518363ffffffff1660e01b81526004016123999291906146bd565b602060405180830381865afa1580156123b6573d6000803e3d6000fd5b505050506040513d601f19601f820116820180604052508101906123da91906146ed565b9150505b604051806101200160405280848152602001600460008681526020019081526020016000206001015481526020016004600086815260200190815260200160002060020160009054906101000a900460ff16600281111561244257612441613a74565b5b8152602001600460008681526020019081526020016000206003015481526020018381526020016124a860046000878152602001908152602001600020600101546004600088815260200190815260200160002060040154612d1a90919063ffffffff16565b81526020016004600086815260200190815260200160002060040154815260200160046000868152602001908152602001600020600501548152602001828152508585815181106124fc576124fb614442565b5b60200260200101819052505050508080612515906144d4565b915050612073565b505b9091565b61252b612ccb565b80600760003373ffffffffffffffffffffffffffffffffffffffff1673ffffffffffffffffffffffffffffffffffffffff1681526020019081526020016000206000015410156125b0576040517f08c379a00000000000000000000000000000000000000000000000000000000081526004016125a790614d97565b60405180910390fd5b804710156125f3576040517f08c379a00000000000000000000000000000000000000000000000000000000081526004016125ea90614e03565b60405180910390fd5b3373ffffffffffffffffffffffffffffffffffffffff166108fc829081150290604051600060405180830381858888f19350505050158015612639573d6000803e3d6000fd5b5080600760003373ffffffffffffffffffffffffffffffffffffffff1673ffffffffffffffffffffffffffffffffffffffff168152602001908152602001600020600001600082825461268c91906147f2565b925050819055507f0875ab8e60d8ffe0781ba5e1d1adadeb6250bc1bee87d3094cc6ac4eb9f8851233826040516126c4929190614694565b60405180910390a16126d4612d30565b50565b60035481565b3373ffffffffffffffffffffffffffffffffffffffff16600160009054906101000a900473ffffffffffffffffffffffffffffffffffffffff1673ffffffffffffffffffffffffffffffffffffffff1663360131896040518163ffffffff1660e01b8152600401602060405180830381865afa158015612761573d6000803e3d6000fd5b505050506040513d601f19601f82011682018060405250810190612785919061417c565b73ffffffffffffffffffffffffffffffffffffffff16146127db576040517f08c379a00000000000000000000000000000000000000000000000000000000081526004016127d290614e6f565b60405180910390fd5b6127e3613732565b6000805b600482101561292757600060019050600060016014878560405160200161280f92919061465c565b6040516020818303038152906040528051906020012060001c6128329190614ebe565b61283c91906144a0565b9050600084111561288e5760005b8481101561288c5785816008811061286557612864614442565b5b60200201518203612879576000925061288c565b8080612884906144d4565b91505061284a565b505b811561291257808585600881106128a8576128a7614442565b5b6020020181815250506001600860006003548152602001908152602001600020600060018152602001908152602001600020600083815260200190815260200160002060006101000a81548160ff02191690831515021790555060018461290f91906144a0565b93505b828061291d906144d4565b93505050506127e7565b5b6008821015612a6c57600060019050600060016014878560405160200161295092919061465c565b6040516020818303038152906040528051906020012060001c6129739190614ebe565b61297d91906144a0565b905060048411156129d3576000600490505b848110156129d1578581600881106129aa576129a9614442565b5b602002015182036129be57600092506129d1565b80806129c9906144d4565b91505061298f565b505b8115612a5757808585600881106129ed576129ec614442565b5b6020020181815250506001600860006003548152602001908152602001600020600060028152602001908152602001600020600083815260200190815260200160002060006101000a81548160ff021916908315150217905550600184612a5491906144a0565b93505b8280612a62906144d4565b9350505050612928565b600260046000600354815260200190815260200160002060020160006101000a81548160ff02191690836002811115612aa857612aa7613a74565b5b0217905550612ab5613033565b50505050565b600160009054906101000a900473ffffffffffffffffffffffffffffffffffffffff1673ffffffffffffffffffffffffffffffffffffffff1663f851a4406040518163ffffffff1660e01b8152600401602060405180830381865afa158015612b28573d6000803e3d6000fd5b505050506040513d601f19601f82011682018060405250810190612b4c919061417c565b73ffffffffffffffffffffffffffffffffffffffff163373ffffffffffffffffffffffffffffffffffffffff1614612bb9576040517f08c379a0000000000000000000000000000000000000000000000000000000008152600401612bb090614f3b565b60405180910390fd5b612bc1613033565b565b600160009054906101000a900473ffffffffffffffffffffffffffffffffffffffff1673ffffffffffffffffffffffffffffffffffffffff1663f851a4406040518163ffffffff1660e01b8152600401602060405180830381865afa158015612c30573d6000803e3d6000fd5b505050506040513d601f19601f82011682018060405250810190612c54919061417c565b73ffffffffffffffffffffffffffffffffffffffff163373ffffffffffffffffffffffffffffffffffffffff1614612cc1576040517f08c379a0000000000000000000000000000000000000000000000000000000008152600401612cb890614f3b565b60405180910390fd5b612cc9612d3a565b565b600260005403612d10576040517f08c379a0000000000000000000000000000000000000000000000000000000008152600401612d0790614fa7565b60405180910390fd5b6002600081905550565b60008183612d289190614fc7565b905092915050565b6001600081905550565b60046000600354815260200190815260200160002060030154421015612d95576040517f08c379a0000000000000000000000000000000000000000000000000000000008152600401612d8c90615044565b60405180910390fd5b600080600460006003548152602001908152602001600020600401541190508015612ef057600160046000600354815260200190815260200160002060020160006101000a81548160ff02191690836002811115612df657612df5613a74565b5b0217905550600160009054906101000a900473ffffffffffffffffffffffffffffffffffffffff1673ffffffffffffffffffffffffffffffffffffffff1663360131896040518163ffffffff1660e01b8152600401602060405180830381865afa158015612e68573d6000803e3d6000fd5b505050506040513d601f19601f82011682018060405250810190612e8c919061417c565b73ffffffffffffffffffffffffffffffffffffffff1663aacc5a176040518163ffffffff1660e01b8152600401600060405180830381600087803b158015612ed357600080fd5b505af1158015612ee7573d6000803e3d6000fd5b50505050613030565b6000600160009054906101000a900473ffffffffffffffffffffffffffffffffffffffff1673ffffffffffffffffffffffffffffffffffffffff16630fdae43b306040518263ffffffff1660e01b8152600401612f4d9190615064565b602060405180830381865afa158015612f6a573d6000803e3d6000fd5b505050506040513d601f19601f82011682018060405250810190612f8e91906146ed565b905060008160046000600354815260200190815260200160002060030154612fb691906144a0565b90505b80421115612fd4578181612fcd91906144a0565b9050612fb9565b80600460006003548152602001908152602001600020600301819055507f86918226d3f7c984d82e553b1c6d6d08c96ba68da685aec1aaf6005c364d77a36002600354604051613025929190615118565b60405180910390a150505b50565b60006003549050600080600160009054906101000a900473ffffffffffffffffffffffffffffffffffffffff1673ffffffffffffffffffffffffffffffffffffffff16630fdae43b306040518263ffffffff1660e01b81526004016130989190615064565b602060405180830381865afa1580156130b5573d6000803e3d6000fd5b505050506040513d601f19601f820116820180604052508101906130d991906146ed565b9050600083146133ad576002808111156130f6576130f5613a74565b5b6004600085815260200190815260200160002060020160009054906101000a900460ff16600281111561312c5761312b613a74565b5b1461316c576040517f08c379a0000000000000000000000000000000000000000000000000000000008152600401613163906151ba565b60405180910390fd5b80600460008581526020019081526020016000206003015461318e91906144a0565b91505b814211156131ac5780826131a591906144a0565b9150613191565b6000600460008581526020019081526020016000206004015490506131f06127106131e26105dc846136be90919063ffffffff16565b612d1a90919063ffffffff16565b6005600082825461320191906144a0565b925050819055506132bf6127106132b1600160009054906101000a900473ffffffffffffffffffffffffffffffffffffffff1673ffffffffffffffffffffffffffffffffffffffff166378aa08ed6040518163ffffffff1660e01b8152600401602060405180830381865afa15801561327e573d6000803e3d6000fd5b505050506040513d601f19601f820116820180604052508101906132a291906146ed565b846136be90919063ffffffff16565b612d1a90919063ffffffff16565b60076000600160009054906101000a900473ffffffffffffffffffffffffffffffffffffffff1673ffffffffffffffffffffffffffffffffffffffff1663f851a4406040518163ffffffff1660e01b8152600401602060405180830381865afa158015613330573d6000803e3d6000fd5b505050506040513d601f19601f82011682018060405250810190613354919061417c565b73ffffffffffffffffffffffffffffffffffffffff1673ffffffffffffffffffffffffffffffffffffffff16815260200190815260200160002060000160008282546133a091906144a0565b925050819055505061344c565b600160009054906101000a900473ffffffffffffffffffffffffffffffffffffffff1673ffffffffffffffffffffffffffffffffffffffff16634260c7ff306040518263ffffffff1660e01b81526004016134089190615064565b602060405180830381865afa158015613425573d6000803e3d6000fd5b505050506040513d601f19601f8201168201806040525081019061344991906146ed565b91505b6000600160009054906101000a900473ffffffffffffffffffffffffffffffffffffffff1673ffffffffffffffffffffffffffffffffffffffff16638ba721f0306040518263ffffffff1660e01b81526004016134a99190615064565b602060405180830381865afa1580156134c6573d6000803e3d6000fd5b505050506040513d601f19601f820116820180604052508101906134ea91906146ed565b90508060055411156134fc5760055490505b6000600160035461350d91906144a0565b90506040518060c00160405280828152602001600160009054906101000a900473ffffffffffffffffffffffffffffffffffffffff1673ffffffffffffffffffffffffffffffffffffffff166320ecd639306040518263ffffffff1660e01b815260040161357b9190615064565b602060405180830381865afa158015613598573d6000803e3d6000fd5b505050506040513d601f19601f820116820180604052508101906135bc91906146ed565b8152602001600060028111156135d5576135d4613a74565b5b8152602001858152602001600081526020018381525060046000838152602001908152602001600020600082015181600001556020820151816001015560408201518160020160006101000a81548160ff0219169083600281111561363d5761363c613a74565b5b0217905550606082015181600301556080820151816004015560a0820151816005015590505060036000815480929190613676906144d4565b91905055507f86918226d3f7c984d82e553b1c6d6d08c96ba68da685aec1aaf6005c364d77a360026003546040516136af929190615118565b60405180910390a15050505050565b600081836136cc9190614588565b905092915050565b60405180610120016040528060008152602001600081526020016000600281111561370257613701613a74565b5b81526020016000815260200160608152602001600081526020016000815260200160008152602001600081525090565b604051806101000160405280600890602082028036833780820191505090505090565b600081519050919050565b600082825260208201905092915050565b60005b8381101561378f578082015181840152602081019050613774565b60008484015250505050565b6000601f19601f8301169050919050565b60006137b782613755565b6137c18185613760565b93506137d1818560208601613771565b6137da8161379b565b840191505092915050565b600060208201905081810360008301526137ff81846137ac565b905092915050565b6000604051905090565b600080fd5b600080fd5b6000819050919050565b61382e8161381b565b811461383957600080fd5b50565b60008135905061384b81613825565b92915050565b60006020828403121561386757613866613811565b5b60006138758482850161383c565b91505092915050565b6138878161381b565b82525050565b60006020820190506138a2600083018461387e565b92915050565b600080fd5b7f4e487b7100000000000000000000000000000000000000000000000000000000600052604160045260246000fd5b6138e58261379b565b810181811067ffffffffffffffff82111715613904576139036138ad565b5b80604052505050565b6000613917613807565b905061392382826138dc565b919050565b600067ffffffffffffffff821115613943576139426138ad565b5b602082029050602081019050919050565b600080fd5b600061396c61396784613928565b61390d565b9050808382526020820190506020840283018581111561398f5761398e613954565b5b835b818110156139b857806139a4888261383c565b845260208401935050602081019050613991565b5050509392505050565b600082601f8301126139d7576139d66138a8565b5b81356139e7848260208601613959565b91505092915050565b600060208284031215613a0657613a05613811565b5b600082013567ffffffffffffffff811115613a2457613a23613816565b5b613a30848285016139c2565b91505092915050565b600081519050919050565b600082825260208201905092915050565b6000819050602082019050919050565b613a6e8161381b565b82525050565b7f4e487b7100000000000000000000000000000000000000000000000000000000600052602160045260246000fd5b60038110613ab457613ab3613a74565b5b50565b6000819050613ac582613aa3565b919050565b6000613ad582613ab7565b9050919050565b613ae581613aca565b82525050565b600081519050919050565b600082825260208201905092915050565b6000819050602082019050919050565b6000613b238383613a65565b60208301905092915050565b6000602082019050919050565b6000613b4782613aeb565b613b518185613af6565b9350613b5c83613b07565b8060005b83811015613b8d578151613b748882613b17565b9750613b7f83613b2f565b925050600181019050613b60565b5085935050505092915050565b600061012083016000830151613bb36000860182613a65565b506020830151613bc66020860182613a65565b506040830151613bd96040860182613adc565b506060830151613bec6060860182613a65565b5060808301518482036080860152613c048282613b3c565b91505060a0830151613c1960a0860182613a65565b5060c0830151613c2c60c0860182613a65565b5060e0830151613c3f60e0860182613a65565b50610100830151613c54610100860182613a65565b508091505092915050565b6000613c6b8383613b9a565b905092915050565b6000602082019050919050565b6000613c8b82613a39565b613c958185613a44565b935083602082028501613ca785613a55565b8060005b85811015613ce35784840389528151613cc48582613c5f565b9450613ccf83613c73565b925060208a01995050600181019050613cab565b50829750879550505050505092915050565b60006020820190508181036000830152613d0f8184613c80565b905092915050565b600080fd5b60008083601f840112613d3257613d316138a8565b5b8235905067ffffffffffffffff811115613d4f57613d4e613d17565b5b602083019150836001820283011115613d6b57613d6a613954565b5b9250929050565b60008060208385031215613d8957613d88613811565b5b600083013567ffffffffffffffff811115613da757613da6613816565b5b613db385828601613d1c565b92509250509250929050565b60008115159050919050565b613dd481613dbf565b82525050565b600081519050919050565b600082825260208201905092915050565b6000613e0182613dda565b613e0b8185613de5565b9350613e1b818560208601613771565b613e248161379b565b840191505092915050565b6000604082019050613e446000830185613dcb565b8181036020830152613e568184613df6565b90509392505050565b613e6881613aca565b82525050565b600060c082019050613e83600083018961387e565b613e90602083018861387e565b613e9d6040830187613e5f565b613eaa606083018661387e565b613eb7608083018561387e565b613ec460a083018461387e565b979650505050505050565b600073ffffffffffffffffffffffffffffffffffffffff82169050919050565b6000613efa82613ecf565b9050919050565b613f0a81613eef565b8114613f1557600080fd5b50565b600081359050613f2781613f01565b92915050565b600060208284031215613f4357613f42613811565b5b6000613f5184828501613f18565b91505092915050565b600082825260208201905092915050565b6000613f7682613aeb565b613f808185613f5a565b9350613f8b83613b07565b8060005b83811015613fbc578151613fa38882613b17565b9750613fae83613b2f565b925050600181019050613f8f565b5085935050505092915050565b600061012082019050613fdf600083018c61387e565b613fec602083018b61387e565b613ff9604083018a613e5f565b614006606083018961387e565b81810360808301526140188188613f6b565b905061402760a083018761387e565b61403460c083018661387e565b61404160e083018561387e565b61404f61010083018461387e565b9a9950505050505050505050565b6000819050919050565b600061408261407d61407884613ecf565b61405d565b613ecf565b9050919050565b600061409482614067565b9050919050565b60006140a682614089565b9050919050565b6140b68161409b565b82525050565b60006020820190506140d160008301846140ad565b92915050565b60006040820190506140ec600083018561387e565b81810360208301526140fe8184613c80565b90509392505050565b7f4e487b7100000000000000000000000000000000000000000000000000000000600052602260045260246000fd5b6000600282049050600182168061414e57607f821691505b60208210810361416157614160614107565b5b50919050565b60008151905061417681613f01565b92915050565b60006020828403121561419257614191613811565b5b60006141a084828501614167565b91505092915050565b6000815190506141b881613825565b92915050565b60006141d16141cc84613928565b61390d565b905080838252602082019050602084028301858111156141f4576141f3613954565b5b835b8181101561421d578061420988826141a9565b8452602084019350506020810190506141f6565b5050509392505050565b600082601f83011261423c5761423b6138a8565b5b815161424c8482602086016141be565b91505092915050565b60008060008060008060c0878903121561427257614271613811565b5b600061428089828a01614167565b965050602061429189828a016141a9565b955050604087015167ffffffffffffffff8111156142b2576142b1613816565b5b6142be89828a01614227565b94505060606142cf89828a016141a9565b93505060806142e089828a01614167565b92505060a06142f189828a016141a9565b9150509295509295509295565b7f4e6f7420636f7272656374207573657200000000000000000000000000000000600082015250565b6000614334601083613760565b915061433f826142fe565b602082019050919050565b6000602082019050818103600083015261436381614327565b9050919050565b7f4e6f7420636f7272656374206c6f747465727920616464726573730000000000600082015250565b60006143a0601b83613760565b91506143ab8261436a565b602082019050919050565b600060208201905081810360008301526143cf81614393565b9050919050565b7f5469636b657420686173206265656e20726577617264656420616c7265616479600082015250565b600061440c602083613760565b9150614417826143d6565b602082019050919050565b6000602082019050818103600083015261443b816143ff565b9050919050565b7f4e487b7100000000000000000000000000000000000000000000000000000000600052603260045260246000fd5b7f4e487b7100000000000000000000000000000000000000000000000000000000600052601160045260246000fd5b60006144ab8261381b565b91506144b68361381b565b92508282019050808211156144ce576144cd614471565b5b92915050565b60006144df8261381b565b91507fffffffffffffffffffffffffffffffffffffffffffffffffffffffffffffffff820361451157614510614471565b5b600182019050919050565b7f596f7572207469636b6574206c6f737400000000000000000000000000000000600082015250565b6000614552601083613760565b915061455d8261451c565b602082019050919050565b6000602082019050818103600083015261458181614545565b9050919050565b60006145938261381b565b915061459e8361381b565b92508282026145ac8161381b565b915082820484148315176145c3576145c2614471565b5b5092915050565b7f4e6f7420656e6f7567682066756e647320746f2077697468647261772e20547260008201527f7920616761696e206c6174657200000000000000000000000000000000000000602082015250565b6000614626602d83613760565b9150614631826145ca565b604082019050919050565b6000602082019050818103600083015261465581614619565b9050919050565b6000604082019050614671600083018561387e565b61467e602083018461387e565b9392505050565b61468e81613eef565b82525050565b60006040820190506146a96000830185614685565b6146b6602083018461387e565b9392505050565b60006040820190506146d2600083018561387e565b81810360208301526146e48184613f6b565b90509392505050565b60006020828403121561470357614702613811565b5b6000614711848285016141a9565b91505092915050565b7f57726f6e67206c6f747465727920737461746500000000000000000000000000600082015250565b6000614750601383613760565b915061475b8261471a565b602082019050919050565b6000602082019050818103600083015261477f81614743565b9050919050565b7f57726f6e67206c6f747465727920696400000000000000000000000000000000600082015250565b60006147bc601083613760565b91506147c782614786565b602082019050919050565b600060208201905081810360008301526147eb816147af565b9050919050565b60006147fd8261381b565b91506148088361381b565b92508282039050818111156148205761481f614471565b5b92915050565b7f5469636b65742073616c6520697320636c6f7365642035206d696e757465732060008201527f6265666f726520647261772074696d6500000000000000000000000000000000602082015250565b6000614882603083613760565b915061488d82614826565b604082019050919050565b600060208201905081810360008301526148b181614875565b9050919050565b7f5469636b65742073616c65206973206e6f74206f70656e207965740000000000600082015250565b60006148ee601b83613760565b91506148f9826148b8565b602082019050919050565b6000602082019050818103600083015261491d816148e1565b9050919050565b7f4e6f7420636f7272656374206e756d626572206f66207069636b6564206e756d60008201527f6265727300000000000000000000000000000000000000000000000000000000602082015250565b6000614980602483613760565b915061498b82614924565b604082019050919050565b600060208201905081810360008301526149af81614973565b9050919050565b7f546865207061796d656e74206973206e6f7420656e6f75676820746f2062757960008201527f2074686973207469636b65740000000000000000000000000000000000000000602082015250565b6000614a12602c83613760565b9150614a1d826149b6565b604082019050919050565b60006020820190508181036000830152614a4181614a05565b9050919050565b7f5069636b6564206e756d62657273206d7573742062652066726f6d203120746f60008201527f2032300000000000000000000000000000000000000000000000000000000000602082015250565b6000614aa4602383613760565b9150614aaf82614a48565b604082019050919050565b60006020820190508181036000830152614ad381614a97565b9050919050565b7f4e756d62657273206d75737420626520736f7274656400000000000000000000600082015250565b6000614b10601683613760565b9150614b1b82614ada565b602082019050919050565b60006020820190508181036000830152614b3f81614b03565b9050919050565b7f4576657279207069636b6564206e756d626572206d75737420626520756e697160008201527f756520696e20746865206669656c642031000000000000000000000000000000602082015250565b6000614ba2603183613760565b9150614bad82614b46565b604082019050919050565b60006020820190508181036000830152614bd181614b95565b9050919050565b7f4576657279207069636b6564206e756d626572206d75737420626520756e697160008201527f756520696e20746865206669656c642032000000000000000000000000000000602082015250565b6000614c34603183613760565b9150614c3f82614bd8565b604082019050919050565b60006020820190508181036000830152614c6381614c27565b9050919050565b60006060820190508181036000830152614c848186613f6b565b9050614c93602083018561387e565b614ca06040830184614685565b949350505050565b6000606082019050614cbd600083018661387e565b614cca602083018561387e565b614cd76040830184614685565b949350505050565b7f56616c7565206d757374206265206d6f7265207468616e203000000000000000600082015250565b6000614d15601983613760565b9150614d2082614cdf565b602082019050919050565b60006020820190508181036000830152614d4481614d08565b9050919050565b7f4e6f7420656e6f7567682066756e647300000000000000000000000000000000600082015250565b6000614d81601083613760565b9150614d8c82614d4b565b602082019050919050565b60006020820190508181036000830152614db081614d74565b9050919050565b7f4e6f7420656e6f7567682066756e647320746f20776974686472617700000000600082015250565b6000614ded601c83613760565b9150614df882614db7565b602082019050919050565b60006020820190508181036000830152614e1c81614de0565b9050919050565b7f4e6f742072616e646f6d6e657373206164647265737300000000000000000000600082015250565b6000614e59601683613760565b9150614e6482614e23565b602082019050919050565b60006020820190508181036000830152614e8881614e4c565b9050919050565b7f4e487b7100000000000000000000000000000000000000000000000000000000600052601260045260246000fd5b6000614ec98261381b565b9150614ed48361381b565b925082614ee457614ee3614e8f565b5b828206905092915050565b7f4e6f742061757468000000000000000000000000000000000000000000000000600082015250565b6000614f25600883613760565b9150614f3082614eef565b602082019050919050565b60006020820190508181036000830152614f5481614f18565b9050919050565b7f5265656e7472616e637947756172643a207265656e7472616e742063616c6c00600082015250565b6000614f91601f83613760565b9150614f9c82614f5b565b602082019050919050565b60006020820190508181036000830152614fc081614f84565b9050919050565b6000614fd28261381b565b9150614fdd8361381b565b925082614fed57614fec614e8f565b5b828204905092915050565b7f546f6f206561726c7920666f72206c6f74746572792064726177000000000000600082015250565b600061502e601a83613760565b915061503982614ff8565b602082019050919050565b6000602082019050818103600083015261505d81615021565b9050919050565b60006020820190506150796000830184614685565b92915050565b60008190508160005260206000209050919050565b600081546150a181614136565b6150ab8186613760565b945060018216600081146150c657600181146150dc5761510f565b60ff19831686528115156020028601935061510f565b6150e58561507f565b60005b83811015615107578154818901526001820191506020810190506150e8565b808801955050505b50505092915050565b600060408201905081810360008301526151328185615094565b9050615141602083018461387e565b9392505050565b7f43757272656e74206c6f74746572792064726177206d75737420626520636c6f60008201527f7365640000000000000000000000000000000000000000000000000000000000602082015250565b60006151a4602383613760565b91506151af82615148565b604082019050919050565b600060208201905081810360008301526151d381615197565b905091905056fea26469706673582212207748ec6f4a34d42f86f5c00c1762da2aa0f9ce1923577cebd174db517b092ed764736f6c63430008110033",
  "immutableReferences": {},
  "source": "// SPDX-License-Identifier: MIT\r\npragma solidity ^0.8.9;\r\n\r\nimport {LotteryOneInterface} from './interfaces/LotteryOneInterface.sol';\r\nimport {RandomnessInterface} from './interfaces/RandomnessInterface.sol';\r\nimport {GovernanceInterface} from \"./interfaces/GovernanceInterface.sol\";\r\nimport {TicketsInterface} from \"./interfaces/TicketsInterface.sol\";\r\nimport '@chainlink/contracts/src/v0.8/interfaces/AutomationCompatibleInterface.sol';\r\nimport '@openzeppelin/contracts/security/ReentrancyGuard.sol';\r\nimport \"./libraries/SafeMath.sol\";\r\n\r\ncontract Lottery420 is LotteryOneInterface, AutomationCompatibleInterface, ReentrancyGuard {\r\n\r\n    using SafeMath for uint;\r\n    // Governance contract\r\n    GovernanceInterface public governanceContract;\r\n\r\n    // Lottery name\r\n    string public  name = 'lottery420';\r\n    // Minimum number of numbers users must pick to buy a ticket\r\n    uint constant MUSTPICKEDNUMBERS = 8;\r\n    // Jackpot increases each time the game is played but the jackpot is not won by this percentage (of total of value of sold tickets)\r\n    // 1500 in basis points = 15%\r\n    uint constant JACKPOTPERCENTAGE = 1500;\r\n    // Maximum number\r\n    uint constant MAXNUMBER = 20;\r\n    // State of the lottery\r\n    // OPEN - tickets on sale\r\n    // DRAWING - ticket sale is closed, waiting for draw results\r\n    // CLOSED - the lottery is closed, random numbers are drawn, rewards are paid\r\n    enum LOTTERY_STATE {OPEN, DRAWING, CLOSED}\r\n\r\n    // Current Lottery Id\r\n    uint public lotteryId;\r\n    // Mapping lottery id => details of the lottery.\r\n    mapping(uint => Lottery) public lottery;\r\n\r\n    struct Lottery {\r\n        uint lotteryId; // Lottery Id\r\n        uint minimumPrice; // Minimum ticket price for minimum picked numbers\r\n        LOTTERY_STATE state; // State of the lottery\r\n        uint drawTime; // The lottery draw time\r\n        uint totalValue; // Total amount of tickets playing this lottery draw\r\n        uint jackpot; // Jackpot amount for this lottery draw\r\n    }\r\n\r\n    struct LotteryGetterStruct {\r\n        uint id;\r\n        uint minimumPrice;\r\n        LOTTERY_STATE state;\r\n        uint drawTime;\r\n        uint[] drawnNumbers;\r\n        uint amountOfTickets;\r\n        uint totalValue;\r\n        uint jackpot;\r\n        uint jackpotWinners;\r\n    }\r\n\r\n    // Growing jackpot amount\r\n    uint public growingJackpot;\r\n\r\n    // Precalculated win prize multipliers depending on how many numbers user picked and how many numbers matches the lottery drawn drawnNumbers\r\n    // Mapping \"Number of user picked numbers\" => \"Number of matched numbers\" => prize multiplier\r\n    // Exclusion: 6 matched numbers get JACKPOT (if many users won jackpot then jackpot splits equally)\r\n    // Exclusion: 0 or 1 matched numbers means the ticket lost\r\n    mapping(uint => mapping(uint => uint)) internal prizeMultipliers;\r\n\r\n    struct User {\r\n        uint balance;\r\n    }\r\n    // Mapping user address => user info\r\n    mapping(address => User) public users;\r\n\r\n    // Mapping lotteryId => => Field number => drawn number => true if it was drawn\r\n    mapping(uint => mapping(uint => mapping(uint => bool))) internal isDrawnNumber;\r\n\r\n    // New Lottery Started event\r\n    event NewLotteryStarted(string _name, uint _lotteryId);\r\n    // Ticket Purchased event\r\n    event TicketPurchased(uint _ticketId, uint _ticketPrice, address _user);\r\n    // User withdraw winnings events\r\n    event WithdrawWinnings(address _user, uint _value);\r\n    // User withdraw balance event\r\n    event WithdrawBalance(address _user, uint _value);\r\n    // User made a deposit event\r\n    event Deposit(address _user, uint _value);\r\n\r\n    //    // Use an interval in seconds and a timestamp to slow execution of Upkeep\r\n    //    uint public immutable interval;\r\n    //    uint public lastTimeStamp;\r\n    //\r\n    //    event RandomNumberReceived(uint randomNumber);\r\n\r\n    modifier isAdmin {\r\n        require(msg.sender == governanceContract.admin(), \"Not auth\");\r\n        _;\r\n    }\r\n\r\n    // Function to create new lottery draw manually if Chainlink keeper fails\r\n    function manual_start_new_lottery() external isAdmin {\r\n        start_new_lottery();\r\n    }\r\n\r\n    // Function to create new lottery draw\r\n    function start_new_lottery() internal {\r\n        uint currentDraw = lotteryId;\r\n\r\n        uint timeOfNextDraw;\r\n        // If this is not first ever draw\r\n        uint presetDuration = governanceContract.getDuration(address(this));\r\n        if (currentDraw != 0) {\r\n            // Previous lottery draw must be closed\r\n            require(lottery[currentDraw].state == LOTTERY_STATE.CLOSED, 'Current lottery draw must be closed');\r\n            // Protection: timeOfNextDraw needs to be in the future\r\n            timeOfNextDraw = lottery[currentDraw].drawTime + presetDuration;\r\n            while (block.timestamp > timeOfNextDraw) {\r\n                timeOfNextDraw += presetDuration;\r\n            }\r\n            uint prevTotalValue = lottery[currentDraw].totalValue;\r\n            // Growing jackpot calculation\r\n            growingJackpot += prevTotalValue.mul(JACKPOTPERCENTAGE).div(10000);\r\n            // Lottery fee calculation\r\n            users[governanceContract.admin()].balance += prevTotalValue.mul(governanceContract.lotteryFee()).div(10000);\r\n        } else {\r\n            timeOfNextDraw = governanceContract.getFirstDrawTime(address(this));\r\n        }\r\n\r\n        uint currentJackpot = governanceContract.getInitialJackpot(address(this));\r\n        if (growingJackpot > currentJackpot) {\r\n            currentJackpot = growingJackpot;\r\n        }\r\n\r\n        uint nextDraw = lotteryId + 1;\r\n\r\n        lottery[nextDraw] = Lottery({\r\n        lotteryId : nextDraw,\r\n        minimumPrice : governanceContract.getMinimumPrice(address(this)),\r\n        state : LOTTERY_STATE.OPEN,\r\n        drawTime : timeOfNextDraw,\r\n        totalValue : 0,\r\n        jackpot : currentJackpot\r\n        });\r\n\r\n        lotteryId++;\r\n\r\n        emit NewLotteryStarted(name, lotteryId);\r\n    }\r\n\r\n    // Buy new ticket for current lottery draw\r\n    function enter(uint[] memory _pickedNumbers) external payable {\r\n        require(block.timestamp < lottery[lotteryId].drawTime - 5 minutes, 'Ticket sale is closed 5 minutes before draw time');\r\n        require(lottery[lotteryId].state == LOTTERY_STATE.OPEN, 'Ticket sale is not open yet');\r\n        require(_pickedNumbers.length == MUSTPICKEDNUMBERS, 'Not correct number of picked numbers');\r\n        uint ticketPrice = lottery[lotteryId].minimumPrice;\r\n        require(msg.value == ticketPrice, 'The payment is not enough to buy this ticket');\r\n\r\n        // Checking uniqueness and that numbers in range 1-MAXNUMBER (Field 1)\r\n        for (uint i = 0; i < 4; i++) {\r\n            require(_pickedNumbers[i] >= 1, 'Picked numbers must be from 1 to 20');\r\n            require(_pickedNumbers[i] <= MAXNUMBER, 'Picked numbers must be from 1 to 20');\r\n            if (i > 0) require(_pickedNumbers[i] > _pickedNumbers[i - 1], 'Numbers must be sorted');\r\n            bool isUnique = true;\r\n\r\n            for (uint n = i + 1; n < 4; n++) {\r\n                if (_pickedNumbers[i] == _pickedNumbers[n]) {\r\n                    isUnique = false;\r\n                }\r\n            }\r\n            require(isUnique, 'Every picked number must be unique in the field 1');\r\n        }\r\n\r\n        // Checking uniqueness and that numbers in range 1-MAXNUMBER (Field 2)\r\n        for (uint i = 4; i < 8; i++) {\r\n            require(_pickedNumbers[i] >= 1, 'Picked numbers must be from 1 to 20');\r\n            require(_pickedNumbers[i] <= MAXNUMBER, 'Picked numbers must be from 1 to 20');\r\n            if (i > 4) require(_pickedNumbers[i] > _pickedNumbers[i - 1], 'Numbers must be sorted');\r\n            bool isUnique = true;\r\n\r\n            for (uint n = i + 1; n < 8; n++) {\r\n                if (_pickedNumbers[i] == _pickedNumbers[n]) {\r\n                    isUnique = false;\r\n                }\r\n            }\r\n            require(isUnique, 'Every picked number must be unique in the field 2');\r\n        }\r\n\r\n        // Creating a new ticket and getting a new ticket number\r\n        uint newTicket = TicketsInterface(governanceContract.tickets()).createTicket(_pickedNumbers, lotteryId, msg.sender);\r\n\r\n        // Saving ticketId in current lottery draw\r\n        lottery[lotteryId].totalValue += ticketPrice;\r\n\r\n        emit TicketPurchased(newTicket, ticketPrice, msg.sender);\r\n    }\r\n\r\n    // Returns user balance\r\n    function getUser() external view returns (uint balance){\r\n        return users[msg.sender].balance;\r\n    }\r\n\r\n    // Lottery getter by lotteryId\r\n    function getLotteryById(uint _lotteryId) external view returns (\r\n        uint id,\r\n        uint minimumPrice,\r\n        LOTTERY_STATE state,\r\n        uint drawTime,\r\n        uint[] memory drawnNumbers,\r\n        uint amountOfTickets,\r\n        uint totalValue,\r\n        uint jackpot,\r\n        uint jackpotWinners){\r\n\r\n        id = lottery[_lotteryId].lotteryId;\r\n        minimumPrice = lottery[_lotteryId].minimumPrice;\r\n        state = lottery[_lotteryId].state;\r\n        drawTime = lottery[_lotteryId].drawTime;\r\n        amountOfTickets = lottery[_lotteryId].totalValue.div(lottery[_lotteryId].minimumPrice);\r\n        totalValue = lottery[_lotteryId].totalValue;\r\n        jackpot = lottery[_lotteryId].jackpot;\r\n        jackpotWinners = 0;\r\n        drawnNumbers = new uint[](0);\r\n\r\n        if (lottery[_lotteryId].state != LOTTERY_STATE.OPEN) {\r\n            uint[] memory tempArr = new uint[](8);\r\n            uint numbersCount = 0;\r\n\r\n            for (uint i = 1; i <= MAXNUMBER; i++) {\r\n                if (isDrawnNumber[_lotteryId][1][i]) {\r\n                    tempArr[numbersCount] = i;\r\n                    numbersCount += 1;\r\n                    if (numbersCount == 4) break;\r\n                }\r\n            }\r\n\r\n            for (uint i = 1; i <= MAXNUMBER; i++) {\r\n                if (isDrawnNumber[_lotteryId][2][i]) {\r\n                    tempArr[numbersCount] = i;\r\n                    numbersCount += 1;\r\n                    if (numbersCount == 8) break;\r\n                }\r\n            }\r\n\r\n            drawnNumbers = tempArr;\r\n            jackpotWinners = TicketsInterface(governanceContract.tickets()).getCombinationNumber(id, tempArr);\r\n        }\r\n    }\r\n\r\n    // return current lotteryId and last two draws\r\n    function getCurrentLotteryPlusOne() external view returns (\r\n        uint currentId,\r\n        LotteryGetterStruct [] memory lotteryDraws\r\n    ) {\r\n        currentId = lotteryId;\r\n\r\n        if (currentId == 0) return (currentId, new LotteryGetterStruct[](0));\r\n\r\n        lotteryDraws = new LotteryGetterStruct[](2);\r\n\r\n        for (uint index = 0; index < 2; index++) {\r\n            uint _lotteryId = currentId - index;\r\n            if (_lotteryId == 0) break;\r\n            uint[] memory tempArr = new uint[](0);\r\n            uint jackpotWinners = 0;\r\n\r\n            if (lottery[_lotteryId].state != LOTTERY_STATE.OPEN) {\r\n                tempArr = new uint[](8);\r\n                uint numbersCount = 0;\r\n                for (uint i = 1; i <= MAXNUMBER; i++) {\r\n                    if (isDrawnNumber[_lotteryId][1][i]) {\r\n                        tempArr[numbersCount] = i;\r\n                        numbersCount += 1;\r\n                        if (numbersCount == 4) break;\r\n                    }\r\n                }\r\n                for (uint i = 1; i <= MAXNUMBER; i++) {\r\n                    if (isDrawnNumber[_lotteryId][2][i]) {\r\n                        tempArr[numbersCount] = i;\r\n                        numbersCount += 1;\r\n                        if (numbersCount == 8) break;\r\n                    }\r\n                }\r\n                jackpotWinners = TicketsInterface(governanceContract.tickets()).getCombinationNumber(_lotteryId, tempArr);\r\n            }\r\n\r\n            lotteryDraws[index] = LotteryGetterStruct({\r\n            id : _lotteryId,\r\n            minimumPrice : lottery[_lotteryId].minimumPrice,\r\n            state : lottery[_lotteryId].state,\r\n            drawTime : lottery[_lotteryId].drawTime,\r\n            drawnNumbers : tempArr,\r\n            amountOfTickets : lottery[_lotteryId].totalValue.div(lottery[_lotteryId].minimumPrice),\r\n            totalValue : lottery[_lotteryId].totalValue,\r\n            jackpot : lottery[_lotteryId].jackpot,\r\n            jackpotWinners : jackpotWinners\r\n            });\r\n        }\r\n\r\n        return (currentId, lotteryDraws);\r\n    }\r\n\r\n    // Lottery getter by array of lotteryIds\r\n    function getLotteryByIds(uint[] memory _ids) external view returns (LotteryGetterStruct [] memory lotteryDraws){\r\n        lotteryDraws = new LotteryGetterStruct[](_ids.length);\r\n\r\n        for (uint index = 0; index < _ids.length; index++) {\r\n            uint[] memory tempArr = new uint[](0);\r\n            uint jackpotWinners = 0;\r\n            uint _lotteryId = _ids[index];\r\n\r\n            if (lottery[_lotteryId].state != LOTTERY_STATE.OPEN) {\r\n                tempArr = new uint[](8);\r\n                uint numbersCount = 0;\r\n                for (uint i = 1; i <= MAXNUMBER; i++) {\r\n                    if (isDrawnNumber[_lotteryId][1][i]) {\r\n                        tempArr[numbersCount] = i;\r\n                        numbersCount += 1;\r\n                        if (numbersCount == 4) break;\r\n                    }\r\n                }\r\n                for (uint i = 1; i <= MAXNUMBER; i++) {\r\n                    if (isDrawnNumber[_lotteryId][2][i]) {\r\n                        tempArr[numbersCount] = i;\r\n                        numbersCount += 1;\r\n                        if (numbersCount == 8) break;\r\n                    }\r\n                }\r\n                jackpotWinners = TicketsInterface(governanceContract.tickets()).getCombinationNumber(_lotteryId, tempArr);\r\n            }\r\n\r\n            lotteryDraws[index] = LotteryGetterStruct({\r\n            id : _lotteryId,\r\n            minimumPrice : lottery[_lotteryId].minimumPrice,\r\n            state : lottery[_lotteryId].state,\r\n            drawTime : lottery[_lotteryId].drawTime,\r\n            drawnNumbers : tempArr,\r\n            amountOfTickets : lottery[_lotteryId].totalValue.div(lottery[_lotteryId].minimumPrice),\r\n            totalValue : lottery[_lotteryId].totalValue,\r\n            jackpot : lottery[_lotteryId].jackpot,\r\n            jackpotWinners : jackpotWinners\r\n            });\r\n        }\r\n    }\r\n\r\n    // Function to start lottery drawing if Chainlink Keeper fails\r\n    function manual_start_drawing() external isAdmin {\r\n        start_drawing();\r\n    }\r\n\r\n    // Get a random number inside a smart contract using Chainlink VRF when drawTime is up\r\n    function start_drawing() internal {\r\n        require(block.timestamp >= lottery[lotteryId].drawTime, 'Too early for lottery draw');\r\n        bool isSoldTicket = lottery[lotteryId].totalValue > 0;\r\n\r\n        if (isSoldTicket) {\r\n            lottery[lotteryId].state = LOTTERY_STATE.DRAWING;\r\n            RandomnessInterface(governanceContract.randomness()).getRandom();\r\n        } else {\r\n            uint presetDuration = governanceContract.getDuration(address(this));\r\n            uint timeOfNextDraw = lottery[lotteryId].drawTime + presetDuration;\r\n            while (block.timestamp > timeOfNextDraw) {\r\n                timeOfNextDraw += presetDuration;\r\n            }\r\n            lottery[lotteryId].drawTime = timeOfNextDraw;\r\n            emit NewLotteryStarted(name, lotteryId);\r\n        }\r\n    }\r\n\r\n    // Fulfill lottery drawing once random number is received\r\n    function fulfill_drawing(uint randomness) external {\r\n        require(governanceContract.randomness() == msg.sender, \"Not randomness address\");\r\n\r\n        // getting multiple random numbers\r\n        uint[8] memory drawnNumbers;\r\n\r\n        uint drawCount = 0;\r\n        uint secondArg = 0;\r\n\r\n        while (drawCount < 4) {\r\n            bool isUnique = true;\r\n            uint number = (uint(keccak256(abi.encode(randomness, secondArg))) % MAXNUMBER) + 1;\r\n\r\n            if (drawCount > 0) {\r\n                for (uint i = 0; i < drawCount; i++) {\r\n                    if (number == drawnNumbers[i]) {\r\n                        isUnique = false;\r\n                        break;\r\n                    }\r\n                }\r\n            }\r\n\r\n            if (isUnique) {\r\n                drawnNumbers[drawCount] = number;\r\n                isDrawnNumber[lotteryId][1][number] = true;\r\n                drawCount += 1;\r\n            }\r\n            secondArg++;\r\n        }\r\n\r\n        while (drawCount < 8) {\r\n            bool isUnique = true;\r\n            uint number = (uint(keccak256(abi.encode(randomness, secondArg))) % MAXNUMBER) + 1;\r\n\r\n            if (drawCount > 4) {\r\n                for (uint i = 4; i < drawCount; i++) {\r\n                    if (number == drawnNumbers[i]) {\r\n                        isUnique = false;\r\n                        break;\r\n                    }\r\n                }\r\n            }\r\n\r\n            if (isUnique) {\r\n                drawnNumbers[drawCount] = number;\r\n                isDrawnNumber[lotteryId][2][number] = true;\r\n                drawCount += 1;\r\n            }\r\n            secondArg++;\r\n        }\r\n\r\n        // Closing currect lottery draw\r\n        lottery[lotteryId].state = LOTTERY_STATE.CLOSED;\r\n\r\n        start_new_lottery();\r\n    }\r\n\r\n    // Function to withdraw ticket prize.\r\n    function withdrawWinnings(uint _ticketId) external nonReentrant {\r\n\r\n        address lotteryAddress;\r\n        uint ticketLotteryId;\r\n        uint[] memory pickedNumbers;\r\n        uint paidOut;\r\n        address user;\r\n        uint sameCombinationCounter;\r\n\r\n        (lotteryAddress, ticketLotteryId, pickedNumbers, paidOut, user, sameCombinationCounter) = TicketsInterface(governanceContract.tickets()).getTicketById(_ticketId);\r\n\r\n        require(msg.sender == user, 'Not correct user');\r\n        require(lotteryAddress == address(this), 'Not correct lottery address');\r\n        require(paidOut == 0, 'Ticket has been rewarded already');\r\n\r\n        uint matchedCountF1 = 0;\r\n        for (uint n = 0; n < 4; n++) {\r\n            if (isDrawnNumber[ticketLotteryId][1][pickedNumbers[n]]) matchedCountF1 += 1;\r\n        }\r\n\r\n        uint matchedCountF2 = 0;\r\n        for (uint n = 4; n < 8; n++) {\r\n            if (isDrawnNumber[ticketLotteryId][2][pickedNumbers[n]]) matchedCountF2 += 1;\r\n        }\r\n\r\n        require(((matchedCountF1 >= 2) || (matchedCountF2 >= 2)), 'Your ticket lost');\r\n\r\n        // Depending on how many numbers matched we will determine what tickets won/lost and how much they won\r\n        if ((matchedCountF1 == 4) && (matchedCountF2 == 4)) {\r\n            paidOut = lottery[ticketLotteryId].jackpot.div(sameCombinationCounter);\r\n            growingJackpot = 0;\r\n        } else {\r\n            if (matchedCountF1 >= matchedCountF2) {\r\n                paidOut = prizeMultipliers[matchedCountF1][matchedCountF2] * lottery[ticketLotteryId].minimumPrice;\r\n                paidOut = paidOut.div(10);\r\n            } else {\r\n                paidOut = prizeMultipliers[matchedCountF2][matchedCountF1] * lottery[ticketLotteryId].minimumPrice;\r\n                paidOut = paidOut.div(10);\r\n            }\r\n        }\r\n\r\n        require(address(this).balance >= paidOut, 'Not enough funds to withdraw. Try again later');\r\n        payable(user).transfer(paidOut);\r\n\r\n        TicketsInterface(governanceContract.tickets()).setPaidOut(_ticketId, paidOut);\r\n\r\n        emit WithdrawWinnings(user, paidOut);\r\n    }\r\n\r\n    // Function to withdraw balance\r\n    function withdrawBalance(uint value) external nonReentrant {\r\n        require(users[msg.sender].balance >= value, 'Not enough funds');\r\n        require(address(this).balance >= value, 'Not enough funds to withdraw');\r\n\r\n        payable(msg.sender).transfer(value);\r\n        users[msg.sender].balance -= value;\r\n\r\n        emit WithdrawBalance(msg.sender, value);\r\n    }\r\n\r\n    // Function to make a deposit to user balance\r\n    function deposit() external payable {\r\n        require(msg.value > 0, 'Value must be more than 0');\r\n        users[msg.sender].balance += msg.value;\r\n\r\n        emit Deposit(msg.sender, msg.value);\r\n    }\r\n\r\n    // Executes automatically by Chainlink Keeper if it's a draw time.\r\n    function performUpkeep(bytes calldata performData) external override {\r\n        require(lottery[lotteryId].state == LOTTERY_STATE.OPEN, 'Wrong lottery state');\r\n        uint lotId = abi.decode(performData, (uint));\r\n        require(lotId == lotteryId, 'Wrong lottery id');\r\n        start_drawing();\r\n    }\r\n\r\n    // Chainlink Keeper function to check if it's time to start lottery drawing\r\n    function checkUpkeep(bytes calldata checkData) external view override returns (bool upkeepNeeded, bytes memory performData) {\r\n        if (lottery[lotteryId].state == LOTTERY_STATE.OPEN) {\r\n            upkeepNeeded = block.timestamp >= lottery[lotteryId].drawTime;\r\n        } else {\r\n            upkeepNeeded = false;\r\n        }\r\n\r\n        checkData;\r\n        performData = abi.encode(lotteryId);\r\n\r\n        return (upkeepNeeded, performData);\r\n    }\r\n\r\n    constructor(address _governance) payable {\r\n        governanceContract = GovernanceInterface(_governance);\r\n        lotteryId = 0;\r\n        growingJackpot = 0;\r\n\r\n        //Precalculated win prize multipliers\r\n        // prize = prizeMultipliers * minimumPrice\r\n        // Exclusion: 4 4 matched numbers get JACKPOT (if many users won jackpot then jackpot splits equally)\r\n        // Exclusion: 0 or 1 matched numbers means the ticket lost\r\n        // 13 means 1.3. All number should be divided by 10\r\n        prizeMultipliers[2][0] = 13;\r\n        prizeMultipliers[2][1] = 10;\r\n        prizeMultipliers[2][2] = 32;\r\n        prizeMultipliers[3][0] = 46;\r\n        prizeMultipliers[3][1] = 42;\r\n        prizeMultipliers[3][2] = 142;\r\n        prizeMultipliers[3][3] = 313;\r\n        prizeMultipliers[4][0] = 717;\r\n        prizeMultipliers[4][1] = 2038;\r\n        prizeMultipliers[4][2] = 2085;\r\n        prizeMultipliers[4][3] = 15083;\r\n        // 4 4 = Jackpot only\r\n    }\r\n\r\n    receive() external payable {\r\n    }\r\n\r\n    //// For test only *******************************************************************************\r\n    //    function fulfill_drawing_tests() external {\r\n    //        // getting multiple random numbers\r\n    //        isDrawnNumber[lotteryId][1][1] = true;\r\n    //        isDrawnNumber[lotteryId][1][2] = true;\r\n    //        isDrawnNumber[lotteryId][1][3] = true;\r\n    //        isDrawnNumber[lotteryId][1][4] = true;\r\n    //        isDrawnNumber[lotteryId][2][1] = true;\r\n    //        isDrawnNumber[lotteryId][2][2] = true;\r\n    //        isDrawnNumber[lotteryId][2][3] = true;\r\n    //        isDrawnNumber[lotteryId][2][4] = true;\r\n    //\r\n    //        // Closing currect lottery draw\r\n    //        lottery[lotteryId].state = LOTTERY_STATE.CLOSED;\r\n    //\r\n    //        start_new_lottery();\r\n    //    }\r\n    // ***********************************************************************************************\r\n}",
  "sourcePath": "C:\\Users\\a18al\\Desktop\\lottery-one\\src\\contracts\\Lottery420.sol",
  "compiler": {
    "name": "solc",
    "version": "0.8.17+commit.8df45f5f.Emscripten.clang"
  },
  "schemaVersion": "3.4.6",
  "updatedAt": "2022-11-18T13:32:23.127Z",
  "devdoc": {
    "kind": "dev",
    "methods": {
      "checkUpkeep(bytes)": {
        "details": "To ensure that it is never called, you may want to add the cannotExecute modifier from KeeperBase to your implementation of this method.",
        "params": {
          "checkData": "specified in the upkeep registration so it is always the same for a registered upkeep. This can easily be broken down into specific arguments using `abi.decode`, so multiple upkeeps can be registered on the same contract and easily differentiated by the contract."
        },
        "returns": {
          "performData": "bytes that the keeper should call performUpkeep with, if upkeep is needed. If you would like to encode data to decode later, try `abi.encode`.",
          "upkeepNeeded": "boolean to indicate whether the keeper should call performUpkeep or not."
        }
      },
      "performUpkeep(bytes)": {
        "details": "The input to this method should not be trusted, and the caller of the method should not even be restricted to any single registry. Anyone should be able call it, and the input should be validated, there is no guarantee that the data passed in is the performData returned from checkUpkeep. This could happen due to malicious keepers, racing keepers, or simply a state change while the performUpkeep transaction is waiting for confirmation. Always validate the data passed in.",
        "params": {
          "performData": "is the data which was passed back from the checkData simulation. If it is encoded, it can easily be decoded into other types by calling `abi.decode`. This data should not be trusted, and should be validated against the contract's current state."
        }
      }
    },
    "version": 1
  },
  "userdoc": {
    "kind": "user",
    "methods": {
      "checkUpkeep(bytes)": {
        "notice": "method that is simulated by the keepers to see if any work actually needs to be performed. This method does does not actually need to be executable, and since it is only ever simulated it can consume lots of gas."
      },
      "performUpkeep(bytes)": {
        "notice": "method that is actually executed by the keepers, via the registry. The data returned by the checkUpkeep simulation will be passed into this method to actually be executed."
      }
    },
    "version": 1
  }
}