{
  "contractName": "Lottery749",
  "abi": [
    {
      "inputs": [
        {
          "internalType": "address",
          "name": "_governance",
          "type": "address"
        }
      ],
      "stateMutability": "payable",
      "type": "constructor"
    },
    {
      "anonymous": false,
      "inputs": [
        {
          "indexed": false,
          "internalType": "address",
          "name": "_user",
          "type": "address"
        },
        {
          "indexed": false,
          "internalType": "uint256",
          "name": "_value",
          "type": "uint256"
        }
      ],
      "name": "Deposit",
      "type": "event"
    },
    {
      "anonymous": false,
      "inputs": [
        {
          "indexed": false,
          "internalType": "string",
          "name": "_name",
          "type": "string"
        },
        {
          "indexed": false,
          "internalType": "uint256",
          "name": "_lotteryId",
          "type": "uint256"
        }
      ],
      "name": "NewLotteryStarted",
      "type": "event"
    },
    {
      "anonymous": false,
      "inputs": [
        {
          "indexed": false,
          "internalType": "uint256",
          "name": "_ticketId",
          "type": "uint256"
        },
        {
          "indexed": false,
          "internalType": "uint256",
          "name": "_ticketPrice",
          "type": "uint256"
        },
        {
          "indexed": false,
          "internalType": "address",
          "name": "_user",
          "type": "address"
        }
      ],
      "name": "TicketPurchased",
      "type": "event"
    },
    {
      "anonymous": false,
      "inputs": [
        {
          "indexed": false,
          "internalType": "address",
          "name": "_user",
          "type": "address"
        },
        {
          "indexed": false,
          "internalType": "uint256",
          "name": "_value",
          "type": "uint256"
        }
      ],
      "name": "WithdrawBalance",
      "type": "event"
    },
    {
      "anonymous": false,
      "inputs": [
        {
          "indexed": false,
          "internalType": "address",
          "name": "_user",
          "type": "address"
        },
        {
          "indexed": false,
          "internalType": "uint256",
          "name": "_value",
          "type": "uint256"
        }
      ],
      "name": "WithdrawWinnings",
      "type": "event"
    },
    {
      "inputs": [],
      "name": "governanceContract",
      "outputs": [
        {
          "internalType": "contract GovernanceInterface",
          "name": "",
          "type": "address"
        }
      ],
      "stateMutability": "view",
      "type": "function"
    },
    {
      "inputs": [],
      "name": "growingJackpot",
      "outputs": [
        {
          "internalType": "uint256",
          "name": "",
          "type": "uint256"
        }
      ],
      "stateMutability": "view",
      "type": "function"
    },
    {
      "inputs": [
        {
          "internalType": "uint256",
          "name": "",
          "type": "uint256"
        }
      ],
      "name": "lottery",
      "outputs": [
        {
          "internalType": "uint256",
          "name": "lotteryId",
          "type": "uint256"
        },
        {
          "internalType": "uint256",
          "name": "minimumPrice",
          "type": "uint256"
        },
        {
          "internalType": "enum Lottery749.LOTTERY_STATE",
          "name": "state",
          "type": "uint8"
        },
        {
          "internalType": "uint256",
          "name": "drawTime",
          "type": "uint256"
        },
        {
          "internalType": "uint256",
          "name": "totalValue",
          "type": "uint256"
        },
        {
          "internalType": "uint256",
          "name": "jackpot",
          "type": "uint256"
        }
      ],
      "stateMutability": "view",
      "type": "function"
    },
    {
      "inputs": [],
      "name": "lotteryId",
      "outputs": [
        {
          "internalType": "uint256",
          "name": "",
          "type": "uint256"
        }
      ],
      "stateMutability": "view",
      "type": "function"
    },
    {
      "inputs": [],
      "name": "name",
      "outputs": [
        {
          "internalType": "string",
          "name": "",
          "type": "string"
        }
      ],
      "stateMutability": "view",
      "type": "function"
    },
    {
      "inputs": [
        {
          "internalType": "address",
          "name": "",
          "type": "address"
        }
      ],
      "name": "users",
      "outputs": [
        {
          "internalType": "uint256",
          "name": "balance",
          "type": "uint256"
        }
      ],
      "stateMutability": "view",
      "type": "function"
    },
    {
      "stateMutability": "payable",
      "type": "receive"
    },
    {
      "inputs": [],
      "name": "manual_start_new_lottery",
      "outputs": [],
      "stateMutability": "nonpayable",
      "type": "function"
    },
    {
      "inputs": [
        {
          "internalType": "uint256[]",
          "name": "_pickedNumbers",
          "type": "uint256[]"
        }
      ],
      "name": "enter",
      "outputs": [],
      "stateMutability": "payable",
      "type": "function"
    },
    {
      "inputs": [],
      "name": "getUser",
      "outputs": [
        {
          "internalType": "uint256",
          "name": "balance",
          "type": "uint256"
        }
      ],
      "stateMutability": "view",
      "type": "function"
    },
    {
      "inputs": [
        {
          "internalType": "uint256",
          "name": "_lotteryId",
          "type": "uint256"
        }
      ],
      "name": "getLotteryById",
      "outputs": [
        {
          "internalType": "uint256",
          "name": "id",
          "type": "uint256"
        },
        {
          "internalType": "uint256",
          "name": "minimumPrice",
          "type": "uint256"
        },
        {
          "internalType": "enum Lottery749.LOTTERY_STATE",
          "name": "state",
          "type": "uint8"
        },
        {
          "internalType": "uint256",
          "name": "drawTime",
          "type": "uint256"
        },
        {
          "internalType": "uint256[]",
          "name": "drawnNumbers",
          "type": "uint256[]"
        },
        {
          "internalType": "uint256",
          "name": "amountOfTickets",
          "type": "uint256"
        },
        {
          "internalType": "uint256",
          "name": "totalValue",
          "type": "uint256"
        },
        {
          "internalType": "uint256",
          "name": "jackpot",
          "type": "uint256"
        },
        {
          "internalType": "uint256",
          "name": "jackpotWinners",
          "type": "uint256"
        }
      ],
      "stateMutability": "view",
      "type": "function"
    },
    {
      "inputs": [],
      "name": "getCurrentLotteryPlusOne",
      "outputs": [
        {
          "internalType": "uint256",
          "name": "currentId",
          "type": "uint256"
        },
        {
          "components": [
            {
              "internalType": "uint256",
              "name": "id",
              "type": "uint256"
            },
            {
              "internalType": "uint256",
              "name": "minimumPrice",
              "type": "uint256"
            },
            {
              "internalType": "enum Lottery749.LOTTERY_STATE",
              "name": "state",
              "type": "uint8"
            },
            {
              "internalType": "uint256",
              "name": "drawTime",
              "type": "uint256"
            },
            {
              "internalType": "uint256[]",
              "name": "drawnNumbers",
              "type": "uint256[]"
            },
            {
              "internalType": "uint256",
              "name": "amountOfTickets",
              "type": "uint256"
            },
            {
              "internalType": "uint256",
              "name": "totalValue",
              "type": "uint256"
            },
            {
              "internalType": "uint256",
              "name": "jackpot",
              "type": "uint256"
            },
            {
              "internalType": "uint256",
              "name": "jackpotWinners",
              "type": "uint256"
            }
          ],
          "internalType": "struct Lottery749.LotteryGetterStruct[]",
          "name": "lotteryDraws",
          "type": "tuple[]"
        }
      ],
      "stateMutability": "view",
      "type": "function"
    },
    {
      "inputs": [
        {
          "internalType": "uint256[]",
          "name": "_ids",
          "type": "uint256[]"
        }
      ],
      "name": "getLotteryByIds",
      "outputs": [
        {
          "components": [
            {
              "internalType": "uint256",
              "name": "id",
              "type": "uint256"
            },
            {
              "internalType": "uint256",
              "name": "minimumPrice",
              "type": "uint256"
            },
            {
              "internalType": "enum Lottery749.LOTTERY_STATE",
              "name": "state",
              "type": "uint8"
            },
            {
              "internalType": "uint256",
              "name": "drawTime",
              "type": "uint256"
            },
            {
              "internalType": "uint256[]",
              "name": "drawnNumbers",
              "type": "uint256[]"
            },
            {
              "internalType": "uint256",
              "name": "amountOfTickets",
              "type": "uint256"
            },
            {
              "internalType": "uint256",
              "name": "totalValue",
              "type": "uint256"
            },
            {
              "internalType": "uint256",
              "name": "jackpot",
              "type": "uint256"
            },
            {
              "internalType": "uint256",
              "name": "jackpotWinners",
              "type": "uint256"
            }
          ],
          "internalType": "struct Lottery749.LotteryGetterStruct[]",
          "name": "lotteryDraws",
          "type": "tuple[]"
        }
      ],
      "stateMutability": "view",
      "type": "function"
    },
    {
      "inputs": [],
      "name": "manual_start_drawing",
      "outputs": [],
      "stateMutability": "nonpayable",
      "type": "function"
    },
    {
      "inputs": [
        {
          "internalType": "uint256",
          "name": "randomness",
          "type": "uint256"
        }
      ],
      "name": "fulfill_drawing",
      "outputs": [],
      "stateMutability": "nonpayable",
      "type": "function"
    },
    {
      "inputs": [
        {
          "internalType": "uint256",
          "name": "_ticketId",
          "type": "uint256"
        }
      ],
      "name": "withdrawWinnings",
      "outputs": [],
      "stateMutability": "nonpayable",
      "type": "function"
    },
    {
      "inputs": [
        {
          "internalType": "uint256",
          "name": "value",
          "type": "uint256"
        }
      ],
      "name": "withdrawBalance",
      "outputs": [],
      "stateMutability": "nonpayable",
      "type": "function"
    },
    {
      "inputs": [],
      "name": "deposit",
      "outputs": [],
      "stateMutability": "payable",
      "type": "function"
    },
    {
      "inputs": [
        {
          "internalType": "bytes",
          "name": "performData",
          "type": "bytes"
        }
      ],
      "name": "performUpkeep",
      "outputs": [],
      "stateMutability": "nonpayable",
      "type": "function"
    },
    {
      "inputs": [
        {
          "internalType": "bytes",
          "name": "checkData",
          "type": "bytes"
        }
      ],
      "name": "checkUpkeep",
      "outputs": [
        {
          "internalType": "bool",
          "name": "upkeepNeeded",
          "type": "bool"
        },
        {
          "internalType": "bytes",
          "name": "performData",
          "type": "bytes"
        }
      ],
      "stateMutability": "view",
      "type": "function"
    }
  ],
  "bytecode": "0x60806040526040518060400160405280600a81526020017f6c6f747465727937343900000000000000000000000000000000000000000000815250600290816200004a9190620003cd565b50604051620050003803806200500083398181016040528101906200007091906200051e565b600160008190555080600160006101000a81548173ffffffffffffffffffffffffffffffffffffffff021916908373ffffffffffffffffffffffffffffffffffffffff16021790555060006003819055506000600581905550600160066000600281526020019081526020016000208190555060026006600060038152602001908152602001600020819055506007600660006004815260200190815260200160002081905550603c600660006005815260200190815260200160002081905550610bb86006600060068152602001908152602001600020819055505062000550565b600081519050919050565b7f4e487b7100000000000000000000000000000000000000000000000000000000600052604160045260246000fd5b7f4e487b7100000000000000000000000000000000000000000000000000000000600052602260045260246000fd5b60006002820490506001821680620001d557607f821691505b602082108103620001eb57620001ea6200018d565b5b50919050565b60008190508160005260206000209050919050565b60006020601f8301049050919050565b600082821b905092915050565b600060088302620002557fffffffffffffffffffffffffffffffffffffffffffffffffffffffffffffffff8262000216565b62000261868362000216565b95508019841693508086168417925050509392505050565b6000819050919050565b6000819050919050565b6000620002ae620002a8620002a28462000279565b62000283565b62000279565b9050919050565b6000819050919050565b620002ca836200028d565b620002e2620002d982620002b5565b84845462000223565b825550505050565b600090565b620002f9620002ea565b62000306818484620002bf565b505050565b5b818110156200032e5762000322600082620002ef565b6001810190506200030c565b5050565b601f8211156200037d576200034781620001f1565b620003528462000206565b8101602085101562000362578190505b6200037a620003718562000206565b8301826200030b565b50505b505050565b600082821c905092915050565b6000620003a26000198460080262000382565b1980831691505092915050565b6000620003bd83836200038f565b9150826002028217905092915050565b620003d88262000153565b67ffffffffffffffff811115620003f457620003f36200015e565b5b620004008254620001bc565b6200040d82828562000332565b600060209050601f83116001811462000445576000841562000430578287015190505b6200043c8582620003af565b865550620004ac565b601f1984166200045586620001f1565b60005b828110156200047f5784890151825560018201915060208501945060208101905062000458565b868310156200049f57848901516200049b601f8916826200038f565b8355505b6001600288020188555050505b505050505050565b600080fd5b600073ffffffffffffffffffffffffffffffffffffffff82169050919050565b6000620004e682620004b9565b9050919050565b620004f881620004d9565b81146200050457600080fd5b50565b6000815190506200051881620004ed565b92915050565b600060208284031215620005375762000536620004b4565b5b6000620005478482850162000507565b91505092915050565b614aa080620005606000396000f3fe6080604052600436106101185760003560e01c8063a87430ba116100a0578063da76d5cd11610064578063da76d5cd146103b3578063e580f47b146103dc578063eaac28ce14610407578063f782f68314610430578063fde38380146104475761011f565b8063a87430ba146102d0578063a99f89711461030d578063b172b22214610352578063d0e30db01461037d578063d163b718146103875761011f565b80634585e33b116100e75780634585e33b146101e05780636e04ff0d146102095780637944135d14610247578063832880e714610263578063a57d15601461028e5761011f565b806306fdde0314610124578063147947021461014f57806323a1413514610178578063394d9cf9146101a35761011f565b3661011f57005b600080fd5b34801561013057600080fd5b5061013961045e565b6040516101469190613107565b60405180910390f35b34801561015b57600080fd5b5061017660048036038101906101719190613173565b6104ec565b005b34801561018457600080fd5b5061018d610a6b565b60405161019a91906131af565b60405180910390f35b3480156101af57600080fd5b506101ca60048036038101906101c59190613312565b610a71565b6040516101d79190613617565b60405180910390f35b3480156101ec57600080fd5b5061020760048036038101906102029190613694565b610ec7565b005b34801561021557600080fd5b50610230600480360381019061022b9190613694565b610fb7565b60405161023e929190613751565b60405180910390f35b610261600480360381019061025c9190613312565b61105f565b005b34801561026f57600080fd5b50610278611598565b60405161028591906131af565b60405180910390f35b34801561029a57600080fd5b506102b560048036038101906102b09190613173565b6115e2565b6040516102c796959493929190613790565b60405180910390f35b3480156102dc57600080fd5b506102f760048036038101906102f2919061384f565b61162b565b60405161030491906131af565b60405180910390f35b34801561031957600080fd5b50610334600480360381019061032f9190613173565b611649565b604051610349999897969594939291906138eb565b60405180910390f35b34801561035e57600080fd5b506103676119dd565b60405161037491906139de565b60405180910390f35b610385611a03565b005b34801561039357600080fd5b5061039c611ada565b6040516103aa9291906139f9565b60405180910390f35b3480156103bf57600080fd5b506103da60048036038101906103d59190613173565b611f9d565b005b3480156103e857600080fd5b506103f1612151565b6040516103fe91906131af565b60405180910390f35b34801561041357600080fd5b5061042e60048036038101906104299190613173565b612157565b005b34801561043c57600080fd5b506104456123de565b005b34801561045357600080fd5b5061045c6124e6565b005b6002805461046b90613a58565b80601f016020809104026020016040519081016040528092919081815260200182805461049790613a58565b80156104e45780601f106104b9576101008083540402835291602001916104e4565b820191906000526020600020905b8154815290600101906020018083116104c757829003601f168201915b505050505081565b6104f46125ee565b60008060606000806000600160009054906101000a900473ffffffffffffffffffffffffffffffffffffffff1673ffffffffffffffffffffffffffffffffffffffff1663218585216040518163ffffffff1660e01b8152600401602060405180830381865afa15801561056b573d6000803e3d6000fd5b505050506040513d601f19601f8201168201806040525081019061058f9190613a9e565b73ffffffffffffffffffffffffffffffffffffffff166327b7aabc886040518263ffffffff1660e01b81526004016105c791906131af565b600060405180830381865afa1580156105e4573d6000803e3d6000fd5b505050506040513d6000823e3d601f19601f8201168201806040525081019061060d9190613b77565b809650819750829850839950849a50859b505050505050508173ffffffffffffffffffffffffffffffffffffffff163373ffffffffffffffffffffffffffffffffffffffff1614610693576040517f08c379a000000000000000000000000000000000000000000000000000000000815260040161068a90613c6c565b60405180910390fd5b3073ffffffffffffffffffffffffffffffffffffffff168673ffffffffffffffffffffffffffffffffffffffff1614610701576040517f08c379a00000000000000000000000000000000000000000000000000000000081526004016106f890613cd8565b60405180910390fd5b60008314610744576040517f08c379a000000000000000000000000000000000000000000000000000000000815260040161073b90613d44565b60405180910390fd5b6000805b85518110156107c55760086000888152602001908152602001600020600087838151811061077957610778613d64565b5b6020026020010151815260200190815260200160002060009054906101000a900460ff16156107b2576001826107af9190613dc2565b91505b80806107bd90613df6565b915050610748565b50600281101561080a576040517f08c379a000000000000000000000000000000000000000000000000000000000815260040161080190613e8a565b60405180910390fd5b6002811015801561081b5750600781105b1561085c57600460008781526020019081526020016000206001015460066000838152602001908152602001600020546108559190613eaa565b9350610899565b600781036108985761088d82600460008981526020019081526020016000206005015461263d90919063ffffffff16565b935060006005819055505b5b834710156108dc576040517f08c379a00000000000000000000000000000000000000000000000000000000081526004016108d390613f5e565b60405180910390fd5b8273ffffffffffffffffffffffffffffffffffffffff166108fc859081150290604051600060405180830381858888f19350505050158015610922573d6000803e3d6000fd5b50600160009054906101000a900473ffffffffffffffffffffffffffffffffffffffff1673ffffffffffffffffffffffffffffffffffffffff1663218585216040518163ffffffff1660e01b8152600401602060405180830381865afa158015610990573d6000803e3d6000fd5b505050506040513d601f19601f820116820180604052508101906109b49190613a9e565b73ffffffffffffffffffffffffffffffffffffffff16637aa4c76689866040518363ffffffff1660e01b81526004016109ee929190613f7e565b600060405180830381600087803b158015610a0857600080fd5b505af1158015610a1c573d6000803e3d6000fd5b505050507f50dfdb607f756467f59c211a5be9aee38d72c796f21eb5df18bdd0fc3cc7de238385604051610a51929190613fb6565b60405180910390a150505050505050610a68612653565b50565b60055481565b6060815167ffffffffffffffff811115610a8e57610a8d6131cf565b5b604051908082528060200260200182016040528015610ac757816020015b610ab4612ff7565b815260200190600190039081610aac5790505b50905060005b8251811015610ec15760008067ffffffffffffffff811115610af257610af16131cf565b5b604051908082528060200260200182016040528015610b205781602001602082028036833780820191505090505b509050600080858481518110610b3957610b38613d64565b5b6020026020010151905060006002811115610b5757610b56613396565b5b6004600083815260200190815260200160002060020160009054906101000a900460ff166002811115610b8d57610b8c613396565b5b14610d8257600767ffffffffffffffff811115610bad57610bac6131cf565b5b604051908082528060200260200182016040528015610bdb5781602001602082028036833780820191505090505b509250600080600190505b60318111610c715760086000848152602001908152602001600020600082815260200190815260200160002060009054906101000a900460ff1615610c5e5780858381518110610c3957610c38613d64565b5b602002602001018181525050600182610c529190613dc2565b91506007820315610c71575b8080610c6990613df6565b915050610be6565b50600160009054906101000a900473ffffffffffffffffffffffffffffffffffffffff1673ffffffffffffffffffffffffffffffffffffffff1663218585216040518163ffffffff1660e01b8152600401602060405180830381865afa158015610cdf573d6000803e3d6000fd5b505050506040513d601f19601f82011682018060405250810190610d039190613a9e565b73ffffffffffffffffffffffffffffffffffffffff1663c8011a8983866040518363ffffffff1660e01b8152600401610d3d929190613fdf565b602060405180830381865afa158015610d5a573d6000803e3d6000fd5b505050506040513d601f19601f82011682018060405250810190610d7e919061400f565b9250505b604051806101200160405280828152602001600460008481526020019081526020016000206001015481526020016004600084815260200190815260200160002060020160009054906101000a900460ff166002811115610de657610de5613396565b5b815260200160046000848152602001908152602001600020600301548152602001848152602001610e4c6004600085815260200190815260200160002060010154600460008681526020019081526020016000206004015461263d90919063ffffffff16565b8152602001600460008481526020019081526020016000206004015481526020016004600084815260200190815260200160002060050154815260200183815250858581518110610ea057610e9f613d64565b5b60200260200101819052505050508080610eb990613df6565b915050610acd565b50919050565b60006002811115610edb57610eda613396565b5b60046000600354815260200190815260200160002060020160009054906101000a900460ff166002811115610f1357610f12613396565b5b14610f53576040517f08c379a0000000000000000000000000000000000000000000000000000000008152600401610f4a90614088565b60405180910390fd5b60008282810190610f649190613173565b90506003548114610faa576040517f08c379a0000000000000000000000000000000000000000000000000000000008152600401610fa1906140f4565b60405180910390fd5b610fb261265d565b505050565b6000606060006002811115610fcf57610fce613396565b5b60046000600354815260200190815260200160002060020160009054906101000a900460ff16600281111561100757611006613396565b5b0361102f57600460006003548152602001908152602001600020600301544210159150611034565b600091505b60035460405160200161104791906131af565b60405160208183030381529060405290509250929050565b61012c600460006003548152602001908152602001600020600301546110859190614114565b42106110c6576040517f08c379a00000000000000000000000000000000000000000000000000000000081526004016110bd906141ba565b60405180910390fd5b600060028111156110da576110d9613396565b5b60046000600354815260200190815260200160002060020160009054906101000a900460ff16600281111561111257611111613396565b5b14611152576040517f08c379a000000000000000000000000000000000000000000000000000000000815260040161114990614226565b60405180910390fd5b6007815114611196576040517f08c379a000000000000000000000000000000000000000000000000000000000815260040161118d906142b8565b60405180910390fd5b60006004600060035481526020019081526020016000206001015490508034146111f5576040517f08c379a00000000000000000000000000000000000000000000000000000000081526004016111ec9061434a565b60405180910390fd5b60005b600781101561141257600183828151811061121657611215613d64565b5b6020026020010151101561125f576040517f08c379a0000000000000000000000000000000000000000000000000000000008152600401611256906143dc565b60405180910390fd5b603183828151811061127457611273613d64565b5b602002602001015111156112bd576040517f08c379a00000000000000000000000000000000000000000000000000000000081526004016112b4906143dc565b60405180910390fd5b600081111561134957826001826112d49190614114565b815181106112e5576112e4613d64565b5b6020026020010151838281518110611300576112ff613d64565b5b602002602001015111611348576040517f08c379a000000000000000000000000000000000000000000000000000000000815260040161133f90614448565b60405180910390fd5b5b600060019050600060018361135e9190613dc2565b90505b60078110156113bd5784818151811061137d5761137c613d64565b5b602002602001015185848151811061139857611397613d64565b5b6020026020010151036113aa57600091505b80806113b590613df6565b915050611361565b50806113fe576040517f08c379a00000000000000000000000000000000000000000000000000000000081526004016113f5906144da565b60405180910390fd5b50808061140a90613df6565b9150506111f8565b506000600160009054906101000a900473ffffffffffffffffffffffffffffffffffffffff1673ffffffffffffffffffffffffffffffffffffffff1663218585216040518163ffffffff1660e01b8152600401602060405180830381865afa158015611482573d6000803e3d6000fd5b505050506040513d601f19601f820116820180604052508101906114a69190613a9e565b73ffffffffffffffffffffffffffffffffffffffff16636c5e811e84600354336040518463ffffffff1660e01b81526004016114e4939291906144fa565b6020604051808303816000875af1158015611503573d6000803e3d6000fd5b505050506040513d601f19601f82011682018060405250810190611527919061400f565b90508160046000600354815260200190815260200160002060040160008282546115519190613dc2565b925050819055507f94c5953e15f54d38b82a662bdd5739fc91af3a23d3ef7e67269dfaeee71a813c81833360405161158b93929190614538565b60405180910390a1505050565b6000600760003373ffffffffffffffffffffffffffffffffffffffff1673ffffffffffffffffffffffffffffffffffffffff16815260200190815260200160002060000154905090565b60046020528060005260406000206000915090508060000154908060010154908060020160009054906101000a900460ff16908060030154908060040154908060050154905086565b60076020528060005260406000206000915090508060000154905081565b6000806000806060600080600080600460008b8152602001908152602001600020600001549850600460008b8152602001908152602001600020600101549750600460008b815260200190815260200160002060020160009054906101000a900460ff169650600460008b8152602001908152602001600020600301549550611707600460008c815260200190815260200160002060010154600460008d81526020019081526020016000206004015461263d90919063ffffffff16565b9350600460008b8152602001908152602001600020600401549250600460008b815260200190815260200160002060050154915060009050600067ffffffffffffffff81111561175a576117596131cf565b5b6040519080825280602002602001820160405280156117885781602001602082028036833780820191505090505b5094506000600281111561179f5761179e613396565b5b600460008c815260200190815260200160002060020160009054906101000a900460ff1660028111156117d5576117d4613396565b5b146119d0576000600767ffffffffffffffff8111156117f7576117f66131cf565b5b6040519080825280602002602001820160405280156118255781602001602082028036833780820191505090505b509050600080600190505b603181116118bb57600860008e8152602001908152602001600020600082815260200190815260200160002060009054906101000a900460ff16156118a8578083838151811061188357611882613d64565b5b60200260200101818152505060018261189c9190613dc2565b915060078203156118bb575b80806118b390613df6565b915050611830565b50819650600160009054906101000a900473ffffffffffffffffffffffffffffffffffffffff1673ffffffffffffffffffffffffffffffffffffffff1663218585216040518163ffffffff1660e01b8152600401602060405180830381865afa15801561192c573d6000803e3d6000fd5b505050506040513d601f19601f820116820180604052508101906119509190613a9e565b73ffffffffffffffffffffffffffffffffffffffff1663c8011a898c846040518363ffffffff1660e01b815260040161198a929190613fdf565b602060405180830381865afa1580156119a7573d6000803e3d6000fd5b505050506040513d601f19601f820116820180604052508101906119cb919061400f565b925050505b9193959799909294969850565b600160009054906101000a900473ffffffffffffffffffffffffffffffffffffffff1681565b60003411611a46576040517f08c379a0000000000000000000000000000000000000000000000000000000008152600401611a3d906145bb565b60405180910390fd5b34600760003373ffffffffffffffffffffffffffffffffffffffff1673ffffffffffffffffffffffffffffffffffffffff1681526020019081526020016000206000016000828254611a989190613dc2565b925050819055507fe1fffcc4923d04b559f4d29a8bfc6cda04eb5b0d3c460751c2402c5c5cc9109c3334604051611ad0929190613fb6565b60405180910390a1565b60006060600354915060008203611b4a5781600067ffffffffffffffff811115611b0757611b066131cf565b5b604051908082528060200260200182016040528015611b4057816020015b611b2d612ff7565b815260200190600190039081611b255790505b5091509150611f99565b600267ffffffffffffffff811115611b6557611b646131cf565b5b604051908082528060200260200182016040528015611b9e57816020015b611b8b612ff7565b815260200190600190039081611b835790505b50905060005b6002811015611f975760008184611bbb9190614114565b905060008103611bcb5750611f97565b60008067ffffffffffffffff811115611be757611be66131cf565b5b604051908082528060200260200182016040528015611c155781602001602082028036833780820191505090505b5090506000806002811115611c2d57611c2c613396565b5b6004600085815260200190815260200160002060020160009054906101000a900460ff166002811115611c6357611c62613396565b5b14611e5857600767ffffffffffffffff811115611c8357611c826131cf565b5b604051908082528060200260200182016040528015611cb15781602001602082028036833780820191505090505b509150600080600190505b60318111611d475760086000868152602001908152602001600020600082815260200190815260200160002060009054906101000a900460ff1615611d345780848381518110611d0f57611d0e613d64565b5b602002602001018181525050600182611d289190613dc2565b91506007820315611d47575b8080611d3f90613df6565b915050611cbc565b50600160009054906101000a900473ffffffffffffffffffffffffffffffffffffffff1673ffffffffffffffffffffffffffffffffffffffff1663218585216040518163ffffffff1660e01b8152600401602060405180830381865afa158015611db5573d6000803e3d6000fd5b505050506040513d601f19601f82011682018060405250810190611dd99190613a9e565b73ffffffffffffffffffffffffffffffffffffffff1663c8011a8985856040518363ffffffff1660e01b8152600401611e13929190613fdf565b602060405180830381865afa158015611e30573d6000803e3d6000fd5b505050506040513d601f19601f82011682018060405250810190611e54919061400f565b9150505b604051806101200160405280848152602001600460008681526020019081526020016000206001015481526020016004600086815260200190815260200160002060020160009054906101000a900460ff166002811115611ebc57611ebb613396565b5b815260200160046000868152602001908152602001600020600301548152602001838152602001611f226004600087815260200190815260200160002060010154600460008881526020019081526020016000206004015461263d90919063ffffffff16565b8152602001600460008681526020019081526020016000206004015481526020016004600086815260200190815260200160002060050154815260200182815250858581518110611f7657611f75613d64565b5b60200260200101819052505050508080611f8f90613df6565b915050611ba4565b505b9091565b611fa56125ee565b80600760003373ffffffffffffffffffffffffffffffffffffffff1673ffffffffffffffffffffffffffffffffffffffff16815260200190815260200160002060000154101561202a576040517f08c379a000000000000000000000000000000000000000000000000000000000815260040161202190614627565b60405180910390fd5b8047101561206d576040517f08c379a000000000000000000000000000000000000000000000000000000000815260040161206490614693565b60405180910390fd5b3373ffffffffffffffffffffffffffffffffffffffff166108fc829081150290604051600060405180830381858888f193505050501580156120b3573d6000803e3d6000fd5b5080600760003373ffffffffffffffffffffffffffffffffffffffff1673ffffffffffffffffffffffffffffffffffffffff16815260200190815260200160002060000160008282546121069190614114565b925050819055507f0875ab8e60d8ffe0781ba5e1d1adadeb6250bc1bee87d3094cc6ac4eb9f88512338260405161213e929190613fb6565b60405180910390a161214e612653565b50565b60035481565b3373ffffffffffffffffffffffffffffffffffffffff16600160009054906101000a900473ffffffffffffffffffffffffffffffffffffffff1673ffffffffffffffffffffffffffffffffffffffff1663360131896040518163ffffffff1660e01b8152600401602060405180830381865afa1580156121db573d6000803e3d6000fd5b505050506040513d601f19601f820116820180604052508101906121ff9190613a9e565b73ffffffffffffffffffffffffffffffffffffffff1614612255576040517f08c379a000000000000000000000000000000000000000000000000000000000815260040161224c906146ff565b60405180910390fd5b61225d613055565b6000805b600782101561238f576000600190506000600160318785604051602001612289929190613f7e565b6040516020818303038152906040528051906020012060001c6122ac919061474e565b6122b69190613dc2565b905060008411156123085760005b84811015612306578581600781106122df576122de613d64565b5b602002015182036122f35760009250612306565b80806122fe90613df6565b9150506122c4565b505b811561237a578085856007811061232257612321613d64565b5b6020020181815250506001600860006003548152602001908152602001600020600083815260200190815260200160002060006101000a81548160ff0219169083151502179055506001846123779190613dc2565b93505b828061238590613df6565b9350505050612261565b600260046000600354815260200190815260200160002060020160006101000a81548160ff021916908360028111156123cb576123ca613396565b5b02179055506123d8612956565b50505050565b600160009054906101000a900473ffffffffffffffffffffffffffffffffffffffff1673ffffffffffffffffffffffffffffffffffffffff1663f851a4406040518163ffffffff1660e01b8152600401602060405180830381865afa15801561244b573d6000803e3d6000fd5b505050506040513d601f19601f8201168201806040525081019061246f9190613a9e565b73ffffffffffffffffffffffffffffffffffffffff163373ffffffffffffffffffffffffffffffffffffffff16146124dc576040517f08c379a00000000000000000000000000000000000000000000000000000000081526004016124d3906147cb565b60405180910390fd5b6124e4612956565b565b600160009054906101000a900473ffffffffffffffffffffffffffffffffffffffff1673ffffffffffffffffffffffffffffffffffffffff1663f851a4406040518163ffffffff1660e01b8152600401602060405180830381865afa158015612553573d6000803e3d6000fd5b505050506040513d601f19601f820116820180604052508101906125779190613a9e565b73ffffffffffffffffffffffffffffffffffffffff163373ffffffffffffffffffffffffffffffffffffffff16146125e4576040517f08c379a00000000000000000000000000000000000000000000000000000000081526004016125db906147cb565b60405180910390fd5b6125ec61265d565b565b600260005403612633576040517f08c379a000000000000000000000000000000000000000000000000000000000815260040161262a90614837565b60405180910390fd5b6002600081905550565b6000818361264b9190614857565b905092915050565b6001600081905550565b600460006003548152602001908152602001600020600301544210156126b8576040517f08c379a00000000000000000000000000000000000000000000000000000000081526004016126af906148d4565b60405180910390fd5b60008060046000600354815260200190815260200160002060040154119050801561281357600160046000600354815260200190815260200160002060020160006101000a81548160ff0219169083600281111561271957612718613396565b5b0217905550600160009054906101000a900473ffffffffffffffffffffffffffffffffffffffff1673ffffffffffffffffffffffffffffffffffffffff1663360131896040518163ffffffff1660e01b8152600401602060405180830381865afa15801561278b573d6000803e3d6000fd5b505050506040513d601f19601f820116820180604052508101906127af9190613a9e565b73ffffffffffffffffffffffffffffffffffffffff1663aacc5a176040518163ffffffff1660e01b8152600401600060405180830381600087803b1580156127f657600080fd5b505af115801561280a573d6000803e3d6000fd5b50505050612953565b6000600160009054906101000a900473ffffffffffffffffffffffffffffffffffffffff1673ffffffffffffffffffffffffffffffffffffffff16630fdae43b306040518263ffffffff1660e01b815260040161287091906148f4565b602060405180830381865afa15801561288d573d6000803e3d6000fd5b505050506040513d601f19601f820116820180604052508101906128b1919061400f565b9050600081600460006003548152602001908152602001600020600301546128d99190613dc2565b90505b804211156128f75781816128f09190613dc2565b90506128dc565b80600460006003548152602001908152602001600020600301819055507f86918226d3f7c984d82e553b1c6d6d08c96ba68da685aec1aaf6005c364d77a360026003546040516129489291906149a8565b60405180910390a150505b50565b60006003549050600080600160009054906101000a900473ffffffffffffffffffffffffffffffffffffffff1673ffffffffffffffffffffffffffffffffffffffff16630fdae43b306040518263ffffffff1660e01b81526004016129bb91906148f4565b602060405180830381865afa1580156129d8573d6000803e3d6000fd5b505050506040513d601f19601f820116820180604052508101906129fc919061400f565b905060008314612cd057600280811115612a1957612a18613396565b5b6004600085815260200190815260200160002060020160009054906101000a900460ff166002811115612a4f57612a4e613396565b5b14612a8f576040517f08c379a0000000000000000000000000000000000000000000000000000000008152600401612a8690614a4a565b60405180910390fd5b806004600085815260200190815260200160002060030154612ab19190613dc2565b91505b81421115612acf578082612ac89190613dc2565b9150612ab4565b600060046000858152602001908152602001600020600401549050612b13612710612b056105dc84612fe190919063ffffffff16565b61263d90919063ffffffff16565b60056000828254612b249190613dc2565b92505081905550612be2612710612bd4600160009054906101000a900473ffffffffffffffffffffffffffffffffffffffff1673ffffffffffffffffffffffffffffffffffffffff166378aa08ed6040518163ffffffff1660e01b8152600401602060405180830381865afa158015612ba1573d6000803e3d6000fd5b505050506040513d601f19601f82011682018060405250810190612bc5919061400f565b84612fe190919063ffffffff16565b61263d90919063ffffffff16565b60076000600160009054906101000a900473ffffffffffffffffffffffffffffffffffffffff1673ffffffffffffffffffffffffffffffffffffffff1663f851a4406040518163ffffffff1660e01b8152600401602060405180830381865afa158015612c53573d6000803e3d6000fd5b505050506040513d601f19601f82011682018060405250810190612c779190613a9e565b73ffffffffffffffffffffffffffffffffffffffff1673ffffffffffffffffffffffffffffffffffffffff1681526020019081526020016000206000016000828254612cc39190613dc2565b9250508190555050612d6f565b600160009054906101000a900473ffffffffffffffffffffffffffffffffffffffff1673ffffffffffffffffffffffffffffffffffffffff16634260c7ff306040518263ffffffff1660e01b8152600401612d2b91906148f4565b602060405180830381865afa158015612d48573d6000803e3d6000fd5b505050506040513d601f19601f82011682018060405250810190612d6c919061400f565b91505b6000600160009054906101000a900473ffffffffffffffffffffffffffffffffffffffff1673ffffffffffffffffffffffffffffffffffffffff16638ba721f0306040518263ffffffff1660e01b8152600401612dcc91906148f4565b602060405180830381865afa158015612de9573d6000803e3d6000fd5b505050506040513d601f19601f82011682018060405250810190612e0d919061400f565b9050806005541115612e1f5760055490505b60006001600354612e309190613dc2565b90506040518060c00160405280828152602001600160009054906101000a900473ffffffffffffffffffffffffffffffffffffffff1673ffffffffffffffffffffffffffffffffffffffff166320ecd639306040518263ffffffff1660e01b8152600401612e9e91906148f4565b602060405180830381865afa158015612ebb573d6000803e3d6000fd5b505050506040513d601f19601f82011682018060405250810190612edf919061400f565b815260200160006002811115612ef857612ef7613396565b5b8152602001858152602001600081526020018381525060046000838152602001908152602001600020600082015181600001556020820151816001015560408201518160020160006101000a81548160ff02191690836002811115612f6057612f5f613396565b5b0217905550606082015181600301556080820151816004015560a0820151816005015590505060036000815480929190612f9990613df6565b91905055507f86918226d3f7c984d82e553b1c6d6d08c96ba68da685aec1aaf6005c364d77a36002600354604051612fd29291906149a8565b60405180910390a15050505050565b60008183612fef9190613eaa565b905092915050565b60405180610120016040528060008152602001600081526020016000600281111561302557613024613396565b5b81526020016000815260200160608152602001600081526020016000815260200160008152602001600081525090565b6040518060e00160405280600790602082028036833780820191505090505090565b600081519050919050565b600082825260208201905092915050565b60005b838110156130b1578082015181840152602081019050613096565b60008484015250505050565b6000601f19601f8301169050919050565b60006130d982613077565b6130e38185613082565b93506130f3818560208601613093565b6130fc816130bd565b840191505092915050565b6000602082019050818103600083015261312181846130ce565b905092915050565b6000604051905090565b600080fd5b600080fd5b6000819050919050565b6131508161313d565b811461315b57600080fd5b50565b60008135905061316d81613147565b92915050565b60006020828403121561318957613188613133565b5b60006131978482850161315e565b91505092915050565b6131a98161313d565b82525050565b60006020820190506131c460008301846131a0565b92915050565b600080fd5b7f4e487b7100000000000000000000000000000000000000000000000000000000600052604160045260246000fd5b613207826130bd565b810181811067ffffffffffffffff82111715613226576132256131cf565b5b80604052505050565b6000613239613129565b905061324582826131fe565b919050565b600067ffffffffffffffff821115613265576132646131cf565b5b602082029050602081019050919050565b600080fd5b600061328e6132898461324a565b61322f565b905080838252602082019050602084028301858111156132b1576132b0613276565b5b835b818110156132da57806132c6888261315e565b8452602084019350506020810190506132b3565b5050509392505050565b600082601f8301126132f9576132f86131ca565b5b813561330984826020860161327b565b91505092915050565b60006020828403121561332857613327613133565b5b600082013567ffffffffffffffff81111561334657613345613138565b5b613352848285016132e4565b91505092915050565b600081519050919050565b600082825260208201905092915050565b6000819050602082019050919050565b6133908161313d565b82525050565b7f4e487b7100000000000000000000000000000000000000000000000000000000600052602160045260246000fd5b600381106133d6576133d5613396565b5b50565b60008190506133e7826133c5565b919050565b60006133f7826133d9565b9050919050565b613407816133ec565b82525050565b600081519050919050565b600082825260208201905092915050565b6000819050602082019050919050565b60006134458383613387565b60208301905092915050565b6000602082019050919050565b60006134698261340d565b6134738185613418565b935061347e83613429565b8060005b838110156134af5781516134968882613439565b97506134a183613451565b925050600181019050613482565b5085935050505092915050565b6000610120830160008301516134d56000860182613387565b5060208301516134e86020860182613387565b5060408301516134fb60408601826133fe565b50606083015161350e6060860182613387565b5060808301518482036080860152613526828261345e565b91505060a083015161353b60a0860182613387565b5060c083015161354e60c0860182613387565b5060e083015161356160e0860182613387565b50610100830151613576610100860182613387565b508091505092915050565b600061358d83836134bc565b905092915050565b6000602082019050919050565b60006135ad8261335b565b6135b78185613366565b9350836020820285016135c985613377565b8060005b8581101561360557848403895281516135e68582613581565b94506135f183613595565b925060208a019950506001810190506135cd565b50829750879550505050505092915050565b6000602082019050818103600083015261363181846135a2565b905092915050565b600080fd5b60008083601f840112613654576136536131ca565b5b8235905067ffffffffffffffff81111561367157613670613639565b5b60208301915083600182028301111561368d5761368c613276565b5b9250929050565b600080602083850312156136ab576136aa613133565b5b600083013567ffffffffffffffff8111156136c9576136c8613138565b5b6136d58582860161363e565b92509250509250929050565b60008115159050919050565b6136f6816136e1565b82525050565b600081519050919050565b600082825260208201905092915050565b6000613723826136fc565b61372d8185613707565b935061373d818560208601613093565b613746816130bd565b840191505092915050565b600060408201905061376660008301856136ed565b81810360208301526137788184613718565b90509392505050565b61378a816133ec565b82525050565b600060c0820190506137a560008301896131a0565b6137b260208301886131a0565b6137bf6040830187613781565b6137cc60608301866131a0565b6137d960808301856131a0565b6137e660a08301846131a0565b979650505050505050565b600073ffffffffffffffffffffffffffffffffffffffff82169050919050565b600061381c826137f1565b9050919050565b61382c81613811565b811461383757600080fd5b50565b60008135905061384981613823565b92915050565b60006020828403121561386557613864613133565b5b60006138738482850161383a565b91505092915050565b600082825260208201905092915050565b60006138988261340d565b6138a2818561387c565b93506138ad83613429565b8060005b838110156138de5781516138c58882613439565b97506138d083613451565b9250506001810190506138b1565b5085935050505092915050565b600061012082019050613901600083018c6131a0565b61390e602083018b6131a0565b61391b604083018a613781565b61392860608301896131a0565b818103608083015261393a818861388d565b905061394960a08301876131a0565b61395660c08301866131a0565b61396360e08301856131a0565b6139716101008301846131a0565b9a9950505050505050505050565b6000819050919050565b60006139a461399f61399a846137f1565b61397f565b6137f1565b9050919050565b60006139b682613989565b9050919050565b60006139c8826139ab565b9050919050565b6139d8816139bd565b82525050565b60006020820190506139f360008301846139cf565b92915050565b6000604082019050613a0e60008301856131a0565b8181036020830152613a2081846135a2565b90509392505050565b7f4e487b7100000000000000000000000000000000000000000000000000000000600052602260045260246000fd5b60006002820490506001821680613a7057607f821691505b602082108103613a8357613a82613a29565b5b50919050565b600081519050613a9881613823565b92915050565b600060208284031215613ab457613ab3613133565b5b6000613ac284828501613a89565b91505092915050565b600081519050613ada81613147565b92915050565b6000613af3613aee8461324a565b61322f565b90508083825260208201905060208402830185811115613b1657613b15613276565b5b835b81811015613b3f5780613b2b8882613acb565b845260208401935050602081019050613b18565b5050509392505050565b600082601f830112613b5e57613b5d6131ca565b5b8151613b6e848260208601613ae0565b91505092915050565b60008060008060008060c08789031215613b9457613b93613133565b5b6000613ba289828a01613a89565b9650506020613bb389828a01613acb565b955050604087015167ffffffffffffffff811115613bd457613bd3613138565b5b613be089828a01613b49565b9450506060613bf189828a01613acb565b9350506080613c0289828a01613a89565b92505060a0613c1389828a01613acb565b9150509295509295509295565b7f4e6f7420636f7272656374207573657200000000000000000000000000000000600082015250565b6000613c56601083613082565b9150613c6182613c20565b602082019050919050565b60006020820190508181036000830152613c8581613c49565b9050919050565b7f4e6f7420636f7272656374206c6f747465727920616464726573730000000000600082015250565b6000613cc2601b83613082565b9150613ccd82613c8c565b602082019050919050565b60006020820190508181036000830152613cf181613cb5565b9050919050565b7f5469636b657420686173206265656e20726577617264656420616c7265616479600082015250565b6000613d2e602083613082565b9150613d3982613cf8565b602082019050919050565b60006020820190508181036000830152613d5d81613d21565b9050919050565b7f4e487b7100000000000000000000000000000000000000000000000000000000600052603260045260246000fd5b7f4e487b7100000000000000000000000000000000000000000000000000000000600052601160045260246000fd5b6000613dcd8261313d565b9150613dd88361313d565b9250828201905080821115613df057613def613d93565b5b92915050565b6000613e018261313d565b91507fffffffffffffffffffffffffffffffffffffffffffffffffffffffffffffffff8203613e3357613e32613d93565b5b600182019050919050565b7f596f7572207469636b6574206c6f737400000000000000000000000000000000600082015250565b6000613e74601083613082565b9150613e7f82613e3e565b602082019050919050565b60006020820190508181036000830152613ea381613e67565b9050919050565b6000613eb58261313d565b9150613ec08361313d565b9250828202613ece8161313d565b91508282048414831517613ee557613ee4613d93565b5b5092915050565b7f4e6f7420656e6f7567682066756e647320746f2077697468647261772e20547260008201527f7920616761696e206c6174657200000000000000000000000000000000000000602082015250565b6000613f48602d83613082565b9150613f5382613eec565b604082019050919050565b60006020820190508181036000830152613f7781613f3b565b9050919050565b6000604082019050613f9360008301856131a0565b613fa060208301846131a0565b9392505050565b613fb081613811565b82525050565b6000604082019050613fcb6000830185613fa7565b613fd860208301846131a0565b9392505050565b6000604082019050613ff460008301856131a0565b8181036020830152614006818461388d565b90509392505050565b60006020828403121561402557614024613133565b5b600061403384828501613acb565b91505092915050565b7f57726f6e67206c6f747465727920737461746500000000000000000000000000600082015250565b6000614072601383613082565b915061407d8261403c565b602082019050919050565b600060208201905081810360008301526140a181614065565b9050919050565b7f57726f6e67206c6f747465727920696400000000000000000000000000000000600082015250565b60006140de601083613082565b91506140e9826140a8565b602082019050919050565b6000602082019050818103600083015261410d816140d1565b9050919050565b600061411f8261313d565b915061412a8361313d565b925082820390508181111561414257614141613d93565b5b92915050565b7f5469636b65742073616c6520697320636c6f7365642035206d696e757465732060008201527f6265666f726520647261772074696d6500000000000000000000000000000000602082015250565b60006141a4603083613082565b91506141af82614148565b604082019050919050565b600060208201905081810360008301526141d381614197565b9050919050565b7f5469636b65742073616c65206973206e6f74206f70656e207965740000000000600082015250565b6000614210601b83613082565b915061421b826141da565b602082019050919050565b6000602082019050818103600083015261423f81614203565b9050919050565b7f4e6f7420636f7272656374206e756d626572206f66207069636b6564206e756d60008201527f6265727300000000000000000000000000000000000000000000000000000000602082015250565b60006142a2602483613082565b91506142ad82614246565b604082019050919050565b600060208201905081810360008301526142d181614295565b9050919050565b7f546865207061796d656e74206973206e6f7420656e6f75676820746f2062757960008201527f2074686973207469636b65740000000000000000000000000000000000000000602082015250565b6000614334602c83613082565b915061433f826142d8565b604082019050919050565b6000602082019050818103600083015261436381614327565b9050919050565b7f5069636b6564206e756d62657273206d7573742062652066726f6d203120746f60008201527f2034390000000000000000000000000000000000000000000000000000000000602082015250565b60006143c6602383613082565b91506143d18261436a565b604082019050919050565b600060208201905081810360008301526143f5816143b9565b9050919050565b7f4e756d62657273206d75737420626520736f7274656400000000000000000000600082015250565b6000614432601683613082565b915061443d826143fc565b602082019050919050565b6000602082019050818103600083015261446181614425565b9050919050565b7f4576657279207069636b6564206e756d626572206d75737420626520756e697160008201527f7565000000000000000000000000000000000000000000000000000000000000602082015250565b60006144c4602283613082565b91506144cf82614468565b604082019050919050565b600060208201905081810360008301526144f3816144b7565b9050919050565b60006060820190508181036000830152614514818661388d565b905061452360208301856131a0565b6145306040830184613fa7565b949350505050565b600060608201905061454d60008301866131a0565b61455a60208301856131a0565b6145676040830184613fa7565b949350505050565b7f56616c7565206d757374206265206d6f7265207468616e203000000000000000600082015250565b60006145a5601983613082565b91506145b08261456f565b602082019050919050565b600060208201905081810360008301526145d481614598565b9050919050565b7f4e6f7420656e6f7567682066756e647300000000000000000000000000000000600082015250565b6000614611601083613082565b915061461c826145db565b602082019050919050565b6000602082019050818103600083015261464081614604565b9050919050565b7f4e6f7420656e6f7567682066756e647320746f20776974686472617700000000600082015250565b600061467d601c83613082565b915061468882614647565b602082019050919050565b600060208201905081810360008301526146ac81614670565b9050919050565b7f4e6f742072616e646f6d6e657373206164647265737300000000000000000000600082015250565b60006146e9601683613082565b91506146f4826146b3565b602082019050919050565b60006020820190508181036000830152614718816146dc565b9050919050565b7f4e487b7100000000000000000000000000000000000000000000000000000000600052601260045260246000fd5b60006147598261313d565b91506147648361313d565b9250826147745761477361471f565b5b828206905092915050565b7f4e6f742061757468000000000000000000000000000000000000000000000000600082015250565b60006147b5600883613082565b91506147c08261477f565b602082019050919050565b600060208201905081810360008301526147e4816147a8565b9050919050565b7f5265656e7472616e637947756172643a207265656e7472616e742063616c6c00600082015250565b6000614821601f83613082565b915061482c826147eb565b602082019050919050565b6000602082019050818103600083015261485081614814565b9050919050565b60006148628261313d565b915061486d8361313d565b92508261487d5761487c61471f565b5b828204905092915050565b7f546f6f206561726c7920666f72206c6f74746572792064726177000000000000600082015250565b60006148be601a83613082565b91506148c982614888565b602082019050919050565b600060208201905081810360008301526148ed816148b1565b9050919050565b60006020820190506149096000830184613fa7565b92915050565b60008190508160005260206000209050919050565b6000815461493181613a58565b61493b8186613082565b94506001821660008114614956576001811461496c5761499f565b60ff19831686528115156020028601935061499f565b6149758561490f565b60005b8381101561499757815481890152600182019150602081019050614978565b808801955050505b50505092915050565b600060408201905081810360008301526149c28185614924565b90506149d160208301846131a0565b9392505050565b7f43757272656e74206c6f74746572792064726177206d75737420626520636c6f60008201527f7365640000000000000000000000000000000000000000000000000000000000602082015250565b6000614a34602383613082565b9150614a3f826149d8565b604082019050919050565b60006020820190508181036000830152614a6381614a27565b905091905056fea26469706673582212209dc0ef53eee5c7fbaa545cbc1172d4a97aee52cb9cb6fca6721fc8a4e7e53d4b64736f6c63430008110033",
  "immutableReferences": {},
  "source": "// SPDX-License-Identifier: MIT\r\npragma solidity ^0.8.9;\r\n\r\nimport {LotteryOneInterface} from './interfaces/LotteryOneInterface.sol';\r\nimport {RandomnessInterface} from './interfaces/RandomnessInterface.sol';\r\nimport {GovernanceInterface} from \"./interfaces/GovernanceInterface.sol\";\r\nimport {TicketsInterface} from \"./interfaces/TicketsInterface.sol\";\r\nimport '@chainlink/contracts/src/v0.8/interfaces/AutomationCompatibleInterface.sol';\r\nimport '@openzeppelin/contracts/security/ReentrancyGuard.sol';\r\nimport \"./libraries/SafeMath.sol\";\r\n\r\ncontract Lottery749 is LotteryOneInterface, AutomationCompatibleInterface, ReentrancyGuard {\r\n\r\n    using SafeMath for uint;\r\n    // Governance contract\r\n    GovernanceInterface public governanceContract;\r\n\r\n    // Lottery name\r\n    string public  name = 'lottery749';\r\n    // Minimum number of numbers users must pick to buy a ticket\r\n    uint constant MUSTPICKEDNUMBERS = 7;\r\n    // Jackpot increases each time the game is played but the jackpot is not won by this percentage (of total of value of sold tickets)\r\n    // 1500 in basis points = 15%\r\n    uint constant JACKPOTPERCENTAGE = 1500;\r\n    // Maximum number\r\n    uint constant MAXNUMBER = 49;\r\n    // State of the lottery\r\n    // OPEN - tickets on sale\r\n    // DRAWING - ticket sale is closed, waiting for draw results\r\n    // CLOSED - the lottery is closed, random numbers are drawn, rewards are paid\r\n    enum LOTTERY_STATE {OPEN, DRAWING, CLOSED}\r\n\r\n    // Current Lottery Id\r\n    uint public lotteryId;\r\n    // Mapping lottery id => details of the lottery.\r\n    mapping(uint => Lottery) public lottery;\r\n\r\n    struct Lottery {\r\n        uint lotteryId; // Lottery Id\r\n        uint minimumPrice; // Minimum ticket price for minimum picked numbers\r\n        LOTTERY_STATE state; // State of the lottery\r\n        uint drawTime; // The lottery draw time\r\n        uint totalValue; // Total amount of tickets playing this lottery draw\r\n        uint jackpot; // Jackpot amount for this lottery draw\r\n    }\r\n\r\n    struct LotteryGetterStruct {\r\n        uint id;\r\n        uint minimumPrice;\r\n        LOTTERY_STATE state;\r\n        uint drawTime;\r\n        uint[] drawnNumbers;\r\n        uint amountOfTickets;\r\n        uint totalValue;\r\n        uint jackpot;\r\n        uint jackpotWinners;\r\n    }\r\n\r\n    // Growing jackpot amount\r\n    uint public growingJackpot;\r\n\r\n    // Precalculated win prize multipliers depending on how many numbers user picked and how many numbers matches the lottery drawn drawnNumbers\r\n    // Mapping \"Number of user picked numbers\" => \"Number of matched numbers\" => prize multiplier\r\n    // Exclusion: 6 matched numbers get JACKPOT (if many users won jackpot then jackpot splits equally)\r\n    // Exclusion: 0 or 1 matched numbers means the ticket lost\r\n    mapping(uint => uint) internal prizeMultipliers;\r\n\r\n    struct User {\r\n        uint balance;\r\n    }\r\n    // Mapping user address => user info\r\n    mapping(address => User) public users;\r\n\r\n    // Mapping lotteryId => number => true if it was drawn\r\n    mapping(uint => mapping(uint => bool)) internal isDrawnNumber;\r\n\r\n    // New Lottery Started event\r\n    event NewLotteryStarted(string _name, uint _lotteryId);\r\n    // Ticket Purchased event\r\n    event TicketPurchased(uint _ticketId, uint _ticketPrice, address _user);\r\n    // User withdraw winnings events\r\n    event WithdrawWinnings(address _user, uint _value);\r\n    // User withdraw balance event\r\n    event WithdrawBalance(address _user, uint _value);\r\n    // User made a deposit event\r\n    event Deposit(address _user, uint _value);\r\n\r\n    //    // Use an interval in seconds and a timestamp to slow execution of Upkeep\r\n    //    uint public immutable interval;\r\n    //    uint public lastTimeStamp;\r\n    //\r\n    //    event RandomNumberReceived(uint randomNumber);\r\n\r\n    modifier isAdmin {\r\n        require(msg.sender == governanceContract.admin(), \"Not auth\");\r\n        _;\r\n    }\r\n\r\n    // Function to create new lottery draw manually if Chainlink keeper fails\r\n    function manual_start_new_lottery() external isAdmin {\r\n        start_new_lottery();\r\n    }\r\n\r\n    // Function to create new lottery draw\r\n    function start_new_lottery() internal {\r\n        uint currentDraw = lotteryId;\r\n\r\n        uint timeOfNextDraw;\r\n        // If this is not first ever draw\r\n        uint presetDuration = governanceContract.getDuration(address(this));\r\n        if (currentDraw != 0) {\r\n            // Previous lottery draw must be closed\r\n            require(lottery[currentDraw].state == LOTTERY_STATE.CLOSED, 'Current lottery draw must be closed');\r\n            // Protection: timeOfNextDraw needs to be in the future\r\n            timeOfNextDraw = lottery[currentDraw].drawTime + presetDuration;\r\n            while (block.timestamp > timeOfNextDraw) {\r\n                timeOfNextDraw += presetDuration;\r\n            }\r\n            uint prevTotalValue = lottery[currentDraw].totalValue;\r\n            // Growing jackpot calculation\r\n            growingJackpot += prevTotalValue.mul(JACKPOTPERCENTAGE).div(10000);\r\n            // Lottery fee calculation\r\n            users[governanceContract.admin()].balance += prevTotalValue.mul(governanceContract.lotteryFee()).div(10000);\r\n        } else {\r\n            timeOfNextDraw = governanceContract.getFirstDrawTime(address(this));\r\n        }\r\n\r\n        uint currentJackpot = governanceContract.getInitialJackpot(address(this));\r\n        if (growingJackpot > currentJackpot) {\r\n            currentJackpot = growingJackpot;\r\n        }\r\n\r\n        uint nextDraw = lotteryId + 1;\r\n\r\n        lottery[nextDraw] = Lottery({\r\n        lotteryId : nextDraw,\r\n        minimumPrice : governanceContract.getMinimumPrice(address(this)),\r\n        state : LOTTERY_STATE.OPEN,\r\n        drawTime : timeOfNextDraw,\r\n        totalValue : 0,\r\n        jackpot : currentJackpot\r\n        });\r\n\r\n        lotteryId++;\r\n\r\n        emit NewLotteryStarted(name, lotteryId);\r\n    }\r\n\r\n    // Buy new ticket for current lottery draw\r\n    function enter(uint[] memory _pickedNumbers) external payable {\r\n        require(block.timestamp < lottery[lotteryId].drawTime - 5 minutes, 'Ticket sale is closed 5 minutes before draw time');\r\n        require(lottery[lotteryId].state == LOTTERY_STATE.OPEN, 'Ticket sale is not open yet');\r\n        require(_pickedNumbers.length == MUSTPICKEDNUMBERS, 'Not correct number of picked numbers');\r\n        uint ticketPrice = lottery[lotteryId].minimumPrice;\r\n        require(msg.value == ticketPrice, 'The payment is not enough to buy this ticket');\r\n\r\n        // Checking uniqueness and that numbers in range 1-MAXNUMBER\r\n        for (uint i = 0; i < MUSTPICKEDNUMBERS; i++) {\r\n            require(_pickedNumbers[i] >= 1, 'Picked numbers must be from 1 to 49');\r\n            require(_pickedNumbers[i] <= MAXNUMBER, 'Picked numbers must be from 1 to 49');\r\n            if (i > 0) require(_pickedNumbers[i] > _pickedNumbers[i - 1], 'Numbers must be sorted');\r\n            bool isUnique = true;\r\n\r\n            for (uint n = i + 1; n < MUSTPICKEDNUMBERS; n++) {\r\n                if (_pickedNumbers[i] == _pickedNumbers[n]) {\r\n                    isUnique = false;\r\n                }\r\n            }\r\n\r\n            require(isUnique, 'Every picked number must be unique');\r\n        }\r\n\r\n        // Creating a new ticket and getting a new ticket number\r\n        uint newTicket = TicketsInterface(governanceContract.tickets()).createTicket(_pickedNumbers, lotteryId, msg.sender);\r\n\r\n        // Saving ticketId in current lottery draw\r\n        lottery[lotteryId].totalValue += ticketPrice;\r\n\r\n        emit TicketPurchased(newTicket, ticketPrice, msg.sender);\r\n    }\r\n\r\n    // Returns user balance\r\n    function getUser() external view returns (uint balance){\r\n        return users[msg.sender].balance;\r\n    }\r\n\r\n    // Lottery getter by lotteryId\r\n    function getLotteryById(uint _lotteryId) external view returns (\r\n        uint id,\r\n        uint minimumPrice,\r\n        LOTTERY_STATE state,\r\n        uint drawTime,\r\n        uint[] memory drawnNumbers,\r\n        uint amountOfTickets,\r\n        uint totalValue,\r\n        uint jackpot,\r\n        uint jackpotWinners){\r\n\r\n        id = lottery[_lotteryId].lotteryId;\r\n        minimumPrice = lottery[_lotteryId].minimumPrice;\r\n        state = lottery[_lotteryId].state;\r\n        drawTime = lottery[_lotteryId].drawTime;\r\n        amountOfTickets = lottery[_lotteryId].totalValue.div(lottery[_lotteryId].minimumPrice);\r\n        totalValue = lottery[_lotteryId].totalValue;\r\n        jackpot = lottery[_lotteryId].jackpot;\r\n        jackpotWinners = 0;\r\n        drawnNumbers = new uint[](0);\r\n\r\n        if (lottery[_lotteryId].state != LOTTERY_STATE.OPEN) {\r\n            uint[] memory tempArr = new uint[](MUSTPICKEDNUMBERS);\r\n            uint numbersCount = 0;\r\n            for (uint i = 1; i <= MAXNUMBER; i++) {\r\n                if (isDrawnNumber[_lotteryId][i]) {\r\n                    tempArr[numbersCount] = i;\r\n                    numbersCount += 1;\r\n                    if (numbersCount == MUSTPICKEDNUMBERS) break;\r\n                }\r\n            }\r\n            drawnNumbers = tempArr;\r\n            jackpotWinners = TicketsInterface(governanceContract.tickets()).getCombinationNumber(id, tempArr);\r\n        }\r\n    }\r\n\r\n    // return current lotteryId and last two draws\r\n    function getCurrentLotteryPlusOne() external view returns (\r\n        uint currentId,\r\n        LotteryGetterStruct [] memory lotteryDraws\r\n    ) {\r\n        currentId = lotteryId;\r\n\r\n        if (currentId == 0) return (currentId, new LotteryGetterStruct[](0));\r\n\r\n        lotteryDraws = new LotteryGetterStruct[](2);\r\n\r\n        for (uint index = 0; index < 2; index++) {\r\n            uint _lotteryId = currentId - index;\r\n            if (_lotteryId == 0) break;\r\n            uint[] memory tempArr = new uint[](0);\r\n            uint jackpotWinners = 0;\r\n\r\n            if (lottery[_lotteryId].state != LOTTERY_STATE.OPEN) {\r\n                tempArr = new uint[](MUSTPICKEDNUMBERS);\r\n                uint numbersCount = 0;\r\n                for (uint i = 1; i <= MAXNUMBER; i++) {\r\n                    if (isDrawnNumber[_lotteryId][i]) {\r\n                        tempArr[numbersCount] = i;\r\n                        numbersCount += 1;\r\n                        if (numbersCount == MUSTPICKEDNUMBERS) break;\r\n                    }\r\n                }\r\n                jackpotWinners = TicketsInterface(governanceContract.tickets()).getCombinationNumber(_lotteryId, tempArr);\r\n            }\r\n\r\n            lotteryDraws[index] = LotteryGetterStruct({\r\n            id : _lotteryId,\r\n            minimumPrice : lottery[_lotteryId].minimumPrice,\r\n            state : lottery[_lotteryId].state,\r\n            drawTime : lottery[_lotteryId].drawTime,\r\n            drawnNumbers : tempArr,\r\n            amountOfTickets : lottery[_lotteryId].totalValue.div(lottery[_lotteryId].minimumPrice),\r\n            totalValue : lottery[_lotteryId].totalValue,\r\n            jackpot : lottery[_lotteryId].jackpot,\r\n            jackpotWinners : jackpotWinners\r\n            });\r\n        }\r\n\r\n        return (currentId, lotteryDraws);\r\n    }\r\n\r\n    // Lottery getter by array of lotteryIds\r\n    function getLotteryByIds(uint[] memory _ids) external view returns (LotteryGetterStruct [] memory lotteryDraws){\r\n        lotteryDraws = new LotteryGetterStruct[](_ids.length);\r\n\r\n        for (uint index = 0; index < _ids.length; index++) {\r\n            uint[] memory tempArr = new uint[](0);\r\n            uint jackpotWinners = 0;\r\n            uint _lotteryId = _ids[index];\r\n\r\n            if (lottery[_lotteryId].state != LOTTERY_STATE.OPEN) {\r\n                tempArr = new uint[](MUSTPICKEDNUMBERS);\r\n                uint numbersCount = 0;\r\n                for (uint i = 1; i <= MAXNUMBER; i++) {\r\n                    if (isDrawnNumber[_lotteryId][i]) {\r\n                        tempArr[numbersCount] = i;\r\n                        numbersCount += 1;\r\n                        if (numbersCount == MUSTPICKEDNUMBERS) break;\r\n                    }\r\n                }\r\n                jackpotWinners = TicketsInterface(governanceContract.tickets()).getCombinationNumber(_lotteryId, tempArr);\r\n            }\r\n\r\n            lotteryDraws[index] = LotteryGetterStruct({\r\n            id : _lotteryId,\r\n            minimumPrice : lottery[_lotteryId].minimumPrice,\r\n            state : lottery[_lotteryId].state,\r\n            drawTime : lottery[_lotteryId].drawTime,\r\n            drawnNumbers : tempArr,\r\n            amountOfTickets : lottery[_lotteryId].totalValue.div(lottery[_lotteryId].minimumPrice),\r\n            totalValue : lottery[_lotteryId].totalValue,\r\n            jackpot : lottery[_lotteryId].jackpot,\r\n            jackpotWinners : jackpotWinners\r\n            });\r\n        }\r\n    }\r\n\r\n    // Function to start lottery drawing if Chainlink Keeper fails\r\n    function manual_start_drawing() external isAdmin {\r\n        start_drawing();\r\n    }\r\n\r\n    // Get a random number inside a smart contract using Chainlink VRF when drawTime is up\r\n    function start_drawing() internal {\r\n        require(block.timestamp >= lottery[lotteryId].drawTime, 'Too early for lottery draw');\r\n        bool isSoldTicket = lottery[lotteryId].totalValue > 0;\r\n\r\n        if (isSoldTicket) {\r\n            lottery[lotteryId].state = LOTTERY_STATE.DRAWING;\r\n            RandomnessInterface(governanceContract.randomness()).getRandom();\r\n        } else {\r\n            uint presetDuration = governanceContract.getDuration(address(this));\r\n            uint timeOfNextDraw = lottery[lotteryId].drawTime + presetDuration;\r\n            while (block.timestamp > timeOfNextDraw) {\r\n                timeOfNextDraw += presetDuration;\r\n            }\r\n            lottery[lotteryId].drawTime = timeOfNextDraw;\r\n            emit NewLotteryStarted(name, lotteryId);\r\n        }\r\n    }\r\n\r\n    // Fulfill lottery drawing once random number is received\r\n    function fulfill_drawing(uint randomness) external {\r\n        require(governanceContract.randomness() == msg.sender, \"Not randomness address\");\r\n\r\n        // getting multiple random numbers\r\n        uint[MUSTPICKEDNUMBERS] memory drawnNumbers;\r\n\r\n        uint drawCount = 0;\r\n        uint secondArg = 0;\r\n\r\n        while (drawCount < MUSTPICKEDNUMBERS) {\r\n            bool isUnique = true;\r\n            uint number = (uint(keccak256(abi.encode(randomness, secondArg))) % MAXNUMBER) + 1;\r\n\r\n            if (drawCount > 0) {\r\n                for (uint i = 0; i < drawCount; i++) {\r\n                    if (number == drawnNumbers[i]) {\r\n                        isUnique = false;\r\n                        break;\r\n                    }\r\n                }\r\n            }\r\n\r\n            if (isUnique) {\r\n                drawnNumbers[drawCount] = number;\r\n                isDrawnNumber[lotteryId][number] = true;\r\n                drawCount += 1;\r\n            }\r\n            secondArg++;\r\n        }\r\n\r\n        // Closing currect lottery draw\r\n        lottery[lotteryId].state = LOTTERY_STATE.CLOSED;\r\n\r\n        start_new_lottery();\r\n    }\r\n\r\n    // Function to withdraw ticket prize.\r\n    function withdrawWinnings(uint _ticketId) external nonReentrant {\r\n\r\n        address lotteryAddress;\r\n        uint ticketLotteryId;\r\n        uint[] memory pickedNumbers;\r\n        uint paidOut;\r\n        address user;\r\n        uint sameCombinationCounter;\r\n\r\n        (lotteryAddress, ticketLotteryId, pickedNumbers, paidOut, user, sameCombinationCounter) = TicketsInterface(governanceContract.tickets()).getTicketById(_ticketId);\r\n\r\n        require(msg.sender == user, 'Not correct user');\r\n        require(lotteryAddress == address(this), 'Not correct lottery address');\r\n        require(paidOut == 0, 'Ticket has been rewarded already');\r\n\r\n        uint matchedCount = 0;\r\n        for (uint n = 0; n < pickedNumbers.length; n++) {\r\n            if (isDrawnNumber[ticketLotteryId][pickedNumbers[n]]) matchedCount += 1;\r\n        }\r\n\r\n        require(matchedCount >= 2, 'Your ticket lost');\r\n\r\n        // Depending on how many numbers matched we will determine what tickets won/lost and how much they won\r\n        if ((matchedCount >= 2) && (matchedCount < 7)) {\r\n            paidOut = prizeMultipliers[matchedCount] * lottery[ticketLotteryId].minimumPrice;\r\n        } else if (matchedCount == 7) {\r\n            paidOut = lottery[ticketLotteryId].jackpot.div(sameCombinationCounter);\r\n            growingJackpot = 0;\r\n        }\r\n\r\n        require(address(this).balance >= paidOut, 'Not enough funds to withdraw. Try again later');\r\n        payable(user).transfer(paidOut);\r\n\r\n        TicketsInterface(governanceContract.tickets()).setPaidOut(_ticketId, paidOut);\r\n\r\n        emit WithdrawWinnings(user, paidOut);\r\n    }\r\n\r\n    // Function to withdraw balance\r\n    function withdrawBalance(uint value) external nonReentrant {\r\n        require(users[msg.sender].balance >= value, 'Not enough funds');\r\n        require(address(this).balance >= value, 'Not enough funds to withdraw');\r\n\r\n        payable(msg.sender).transfer(value);\r\n        users[msg.sender].balance -= value;\r\n\r\n        emit WithdrawBalance(msg.sender, value);\r\n    }\r\n\r\n    // Function to make a deposit to user balance\r\n    function deposit() external payable {\r\n        require(msg.value > 0, 'Value must be more than 0');\r\n        users[msg.sender].balance += msg.value;\r\n\r\n        emit Deposit(msg.sender, msg.value);\r\n    }\r\n\r\n    // Executes automatically by Chainlink Keeper if it's a draw time.\r\n    function performUpkeep(bytes calldata performData) external override {\r\n        require(lottery[lotteryId].state == LOTTERY_STATE.OPEN, 'Wrong lottery state');\r\n        uint lotId = abi.decode(performData, (uint));\r\n        require(lotId == lotteryId, 'Wrong lottery id');\r\n        start_drawing();\r\n    }\r\n\r\n    // Chainlink Keeper function to check if it's time to start lottery drawing\r\n    function checkUpkeep(bytes calldata checkData) external view override returns (bool upkeepNeeded, bytes memory performData) {\r\n        if (lottery[lotteryId].state == LOTTERY_STATE.OPEN) {\r\n            upkeepNeeded = block.timestamp >= lottery[lotteryId].drawTime;\r\n        } else {\r\n            upkeepNeeded = false;\r\n        }\r\n\r\n        checkData;\r\n        performData = abi.encode(lotteryId);\r\n\r\n        return (upkeepNeeded, performData);\r\n    }\r\n\r\n    constructor(address _governance) payable {\r\n        governanceContract = GovernanceInterface(_governance);\r\n        lotteryId = 0;\r\n        growingJackpot = 0;\r\n\r\n        //Precalculated win prize multipliers\r\n        // prize = prizeMultipliers * minimumPrice\r\n        // Exclusion: 7 matched numbers get JACKPOT (if many users won jackpot then jackpot splits equally)\r\n        // Exclusion: 0 or 1 matched numbers means the ticket lost\r\n        prizeMultipliers[2] = 1;\r\n        prizeMultipliers[3] = 2;\r\n        prizeMultipliers[4] = 7;\r\n        prizeMultipliers[5] = 60;\r\n        prizeMultipliers[6] = 3000;\r\n        // 7 = Jackpot only\r\n    }\r\n\r\n    receive() external payable {\r\n    }\r\n\r\n    //// For test only *******************************************************************************\r\n    //    function fulfill_drawing_tests() external {\r\n    //        // getting multiple random numbers\r\n    //        isDrawnNumber[lotteryId][20] = true;\r\n    //        isDrawnNumber[lotteryId][21] = true;\r\n    //        isDrawnNumber[lotteryId][22] = true;\r\n    //        isDrawnNumber[lotteryId][23] = true;\r\n    //        isDrawnNumber[lotteryId][24] = true;\r\n    //        isDrawnNumber[lotteryId][25] = true;\r\n    //        isDrawnNumber[lotteryId][26] = true;\r\n    //\r\n    //        // Closing currect lottery draw\r\n    //        lottery[lotteryId].state = LOTTERY_STATE.CLOSED;\r\n    //\r\n    //        start_new_lottery();\r\n    //    }\r\n    // ***********************************************************************************************\r\n}",
  "sourcePath": "C:\\Users\\a18al\\Desktop\\lottery-one\\src\\contracts\\Lottery749.sol",
  "compiler": {
    "name": "solc",
    "version": "0.8.17+commit.8df45f5f.Emscripten.clang"
  },
  "schemaVersion": "3.4.6",
  "updatedAt": "2022-11-18T13:32:23.216Z",
  "devdoc": {
    "kind": "dev",
    "methods": {
      "checkUpkeep(bytes)": {
        "details": "To ensure that it is never called, you may want to add the cannotExecute modifier from KeeperBase to your implementation of this method.",
        "params": {
          "checkData": "specified in the upkeep registration so it is always the same for a registered upkeep. This can easily be broken down into specific arguments using `abi.decode`, so multiple upkeeps can be registered on the same contract and easily differentiated by the contract."
        },
        "returns": {
          "performData": "bytes that the keeper should call performUpkeep with, if upkeep is needed. If you would like to encode data to decode later, try `abi.encode`.",
          "upkeepNeeded": "boolean to indicate whether the keeper should call performUpkeep or not."
        }
      },
      "performUpkeep(bytes)": {
        "details": "The input to this method should not be trusted, and the caller of the method should not even be restricted to any single registry. Anyone should be able call it, and the input should be validated, there is no guarantee that the data passed in is the performData returned from checkUpkeep. This could happen due to malicious keepers, racing keepers, or simply a state change while the performUpkeep transaction is waiting for confirmation. Always validate the data passed in.",
        "params": {
          "performData": "is the data which was passed back from the checkData simulation. If it is encoded, it can easily be decoded into other types by calling `abi.decode`. This data should not be trusted, and should be validated against the contract's current state."
        }
      }
    },
    "version": 1
  },
  "userdoc": {
    "kind": "user",
    "methods": {
      "checkUpkeep(bytes)": {
        "notice": "method that is simulated by the keepers to see if any work actually needs to be performed. This method does does not actually need to be executable, and since it is only ever simulated it can consume lots of gas."
      },
      "performUpkeep(bytes)": {
        "notice": "method that is actually executed by the keepers, via the registry. The data returned by the checkUpkeep simulation will be passed into this method to actually be executed."
      }
    },
    "version": 1
  }
}