{
  "contractName": "Randomness",
  "abi": [
    {
      "inputs": [
        {
          "internalType": "address",
          "name": "_governance",
          "type": "address"
        }
      ],
      "stateMutability": "nonpayable",
      "type": "constructor"
    },
    {
      "inputs": [
        {
          "internalType": "address",
          "name": "have",
          "type": "address"
        },
        {
          "internalType": "address",
          "name": "want",
          "type": "address"
        }
      ],
      "name": "OnlyCoordinatorCanFulfill",
      "type": "error"
    },
    {
      "inputs": [],
      "name": "callbackGasLimit",
      "outputs": [
        {
          "internalType": "uint32",
          "name": "",
          "type": "uint32"
        }
      ],
      "stateMutability": "view",
      "type": "function",
      "constant": true
    },
    {
      "inputs": [],
      "name": "governanceContract",
      "outputs": [
        {
          "internalType": "contract GovernanceInterface",
          "name": "",
          "type": "address"
        }
      ],
      "stateMutability": "view",
      "type": "function",
      "constant": true
    },
    {
      "inputs": [
        {
          "internalType": "uint256",
          "name": "requestId",
          "type": "uint256"
        },
        {
          "internalType": "uint256[]",
          "name": "randomWords",
          "type": "uint256[]"
        }
      ],
      "name": "rawFulfillRandomWords",
      "outputs": [],
      "stateMutability": "nonpayable",
      "type": "function"
    },
    {
      "inputs": [
        {
          "internalType": "uint256",
          "name": "",
          "type": "uint256"
        }
      ],
      "name": "requestIdToAddress",
      "outputs": [
        {
          "internalType": "address",
          "name": "",
          "type": "address"
        }
      ],
      "stateMutability": "view",
      "type": "function",
      "constant": true
    },
    {
      "inputs": [],
      "name": "getRandom",
      "outputs": [],
      "stateMutability": "nonpayable",
      "type": "function"
    },
    {
      "inputs": [
        {
          "internalType": "uint32",
          "name": "_newLimit",
          "type": "uint32"
        }
      ],
      "name": "changeGasLimit",
      "outputs": [],
      "stateMutability": "nonpayable",
      "type": "function"
    }
  ],
  "bytecode": "0x60a06040527f4b09e658ed251bcafeebbc69400383d49f344ace09b9576fe248bb02c003fe9f60001b600255622625a0600460006101000a81548163ffffffff021916908363ffffffff16021790555060036004806101000a81548161ffff021916908361ffff1602179055506001600460066101000a81548163ffffffff021916908363ffffffff1602179055503480156200009b57600080fd5b5060405162001230380380620012308339818101604052810190620000c1919062000211565b737a1bac17ccc5b313516c5e16fb24f7659aa5ebed8073ffffffffffffffffffffffffffffffffffffffff1660808173ffffffffffffffffffffffffffffffffffffffff168152505050737a1bac17ccc5b313516c5e16fb24f7659aa5ebed600160006101000a81548173ffffffffffffffffffffffffffffffffffffffff021916908373ffffffffffffffffffffffffffffffffffffffff160217905550806000806101000a81548173ffffffffffffffffffffffffffffffffffffffff021916908373ffffffffffffffffffffffffffffffffffffffff1602179055505062000243565b600080fd5b600073ffffffffffffffffffffffffffffffffffffffff82169050919050565b6000620001d982620001ac565b9050919050565b620001eb81620001cc565b8114620001f757600080fd5b50565b6000815190506200020b81620001e0565b92915050565b6000602082840312156200022a5762000229620001a7565b5b60006200023a84828501620001fa565b91505092915050565b608051610fca6200026660003960008181610117015261016b0152610fca6000f3fe608060405234801561001057600080fd5b50600436106100625760003560e01c80631fe543e31461006757806324f746971461008357806335b9f359146100a1578063637c4320146100bd578063aacc5a17146100ed578063b172b222146100f7575b600080fd5b610081600480360381019061007c9190610921565b610115565b005b61008b6101d5565b604051610098919061099c565b60405180910390f35b6100bb60048036038101906100b691906109e3565b6101eb565b005b6100d760048036038101906100d29190610a10565b6103b4565b6040516100e49190610a7e565b60405180910390f35b6100f56103e7565b005b6100ff6105f5565b60405161010c9190610af8565b60405180910390f35b7f000000000000000000000000000000000000000000000000000000000000000073ffffffffffffffffffffffffffffffffffffffff163373ffffffffffffffffffffffffffffffffffffffff16146101c757337f00000000000000000000000000000000000000000000000000000000000000006040517f1cf993f40000000000000000000000000000000000000000000000000000000081526004016101be929190610b13565b60405180910390fd5b6101d18282610619565b5050565b600460009054906101000a900463ffffffff1681565b60008054906101000a900473ffffffffffffffffffffffffffffffffffffffff1673ffffffffffffffffffffffffffffffffffffffff1663f851a4406040518163ffffffff1660e01b8152600401602060405180830381865afa158015610256573d6000803e3d6000fd5b505050506040513d601f19601f8201168201806040525081019061027a9190610b68565b73ffffffffffffffffffffffffffffffffffffffff163373ffffffffffffffffffffffffffffffffffffffff16146102e7576040517f08c379a00000000000000000000000000000000000000000000000000000000081526004016102de90610bf2565b60405180910390fd5b60008163ffffffff1611610330576040517f08c379a000000000000000000000000000000000000000000000000000000000815260040161032790610c5e565b60405180910390fd5b600460009054906101000a900463ffffffff1663ffffffff168163ffffffff1603610390576040517f08c379a000000000000000000000000000000000000000000000000000000000815260040161038790610cf0565b60405180910390fd5b80600460006101000a81548163ffffffff021916908363ffffffff16021790555050565b60036020528060005260406000206000915054906101000a900473ffffffffffffffffffffffffffffffffffffffff1681565b60008054906101000a900473ffffffffffffffffffffffffffffffffffffffff1673ffffffffffffffffffffffffffffffffffffffff1663e44c5323336040518263ffffffff1660e01b81526004016104409190610a7e565b602060405180830381865afa15801561045d573d6000803e3d6000fd5b505050506040513d601f19601f820116820180604052508101906104819190610d48565b6104c0576040517f08c379a00000000000000000000000000000000000000000000000000000000081526004016104b790610dc1565b60405180910390fd5b6000600160009054906101000a900473ffffffffffffffffffffffffffffffffffffffff1673ffffffffffffffffffffffffffffffffffffffff16635d3b1d30600254610a5160048054906101000a900461ffff16600460009054906101000a900463ffffffff16600460069054906101000a900463ffffffff166040518663ffffffff1660e01b815260040161055b959493929190610e3a565b6020604051808303816000875af115801561057a573d6000803e3d6000fd5b505050506040513d601f19601f8201168201806040525081019061059e9190610ea2565b9050336003600083815260200190815260200160002060006101000a81548173ffffffffffffffffffffffffffffffffffffffff021916908373ffffffffffffffffffffffffffffffffffffffff16021790555050565b60008054906101000a900473ffffffffffffffffffffffffffffffffffffffff1681565b600073ffffffffffffffffffffffffffffffffffffffff166003600084815260200190815260200160002060009054906101000a900473ffffffffffffffffffffffffffffffffffffffff1673ffffffffffffffffffffffffffffffffffffffff16036106bb576040517f08c379a00000000000000000000000000000000000000000000000000000000081526004016106b290610f1b565b60405180910390fd5b60006003600084815260200190815260200160002060009054906101000a900473ffffffffffffffffffffffffffffffffffffffff1690508073ffffffffffffffffffffffffffffffffffffffff1663eaac28ce8360008151811061072357610722610f3b565b5b60200260200101516040518263ffffffff1660e01b81526004016107479190610f79565b600060405180830381600087803b15801561076157600080fd5b505af1158015610775573d6000803e3d6000fd5b50505050505050565b6000604051905090565b600080fd5b600080fd5b6000819050919050565b6107a581610792565b81146107b057600080fd5b50565b6000813590506107c28161079c565b92915050565b600080fd5b6000601f19601f8301169050919050565b7f4e487b7100000000000000000000000000000000000000000000000000000000600052604160045260246000fd5b610816826107cd565b810181811067ffffffffffffffff82111715610835576108346107de565b5b80604052505050565b600061084861077e565b9050610854828261080d565b919050565b600067ffffffffffffffff821115610874576108736107de565b5b602082029050602081019050919050565b600080fd5b600061089d61089884610859565b61083e565b905080838252602082019050602084028301858111156108c0576108bf610885565b5b835b818110156108e957806108d588826107b3565b8452602084019350506020810190506108c2565b5050509392505050565b600082601f830112610908576109076107c8565b5b813561091884826020860161088a565b91505092915050565b6000806040838503121561093857610937610788565b5b6000610946858286016107b3565b925050602083013567ffffffffffffffff8111156109675761096661078d565b5b610973858286016108f3565b9150509250929050565b600063ffffffff82169050919050565b6109968161097d565b82525050565b60006020820190506109b1600083018461098d565b92915050565b6109c08161097d565b81146109cb57600080fd5b50565b6000813590506109dd816109b7565b92915050565b6000602082840312156109f9576109f8610788565b5b6000610a07848285016109ce565b91505092915050565b600060208284031215610a2657610a25610788565b5b6000610a34848285016107b3565b91505092915050565b600073ffffffffffffffffffffffffffffffffffffffff82169050919050565b6000610a6882610a3d565b9050919050565b610a7881610a5d565b82525050565b6000602082019050610a936000830184610a6f565b92915050565b6000819050919050565b6000610abe610ab9610ab484610a3d565b610a99565b610a3d565b9050919050565b6000610ad082610aa3565b9050919050565b6000610ae282610ac5565b9050919050565b610af281610ad7565b82525050565b6000602082019050610b0d6000830184610ae9565b92915050565b6000604082019050610b286000830185610a6f565b610b356020830184610a6f565b9392505050565b610b4581610a5d565b8114610b5057600080fd5b50565b600081519050610b6281610b3c565b92915050565b600060208284031215610b7e57610b7d610788565b5b6000610b8c84828501610b53565b91505092915050565b600082825260208201905092915050565b7f4e6f742061646d696e0000000000000000000000000000000000000000000000600082015250565b6000610bdc600983610b95565b9150610be782610ba6565b602082019050919050565b60006020820190508181036000830152610c0b81610bcf565b9050919050565b7f63616c6c6261636b4761734c696d6974206d757374206265203e203000000000600082015250565b6000610c48601c83610b95565b9150610c5382610c12565b602082019050919050565b60006020820190508181036000830152610c7781610c3b565b9050919050565b7f63616c6c6261636b4761734c696d69742063616e27742062652074686520736160008201527f6d65206173206e6f770000000000000000000000000000000000000000000000602082015250565b6000610cda602983610b95565b9150610ce582610c7e565b604082019050919050565b60006020820190508181036000830152610d0981610ccd565b9050919050565b60008115159050919050565b610d2581610d10565b8114610d3057600080fd5b50565b600081519050610d4281610d1c565b92915050565b600060208284031215610d5e57610d5d610788565b5b6000610d6c84828501610d33565b91505092915050565b7f4e6f7420616374697665206c6f74746572792061646472657373000000000000600082015250565b6000610dab601a83610b95565b9150610db682610d75565b602082019050919050565b60006020820190508181036000830152610dda81610d9e565b9050919050565b6000819050919050565b610df481610de1565b82525050565b600067ffffffffffffffff82169050919050565b610e1781610dfa565b82525050565b600061ffff82169050919050565b610e3481610e1d565b82525050565b600060a082019050610e4f6000830188610deb565b610e5c6020830187610e0e565b610e696040830186610e2b565b610e76606083018561098d565b610e83608083018461098d565b9695505050505050565b600081519050610e9c8161079c565b92915050565b600060208284031215610eb857610eb7610788565b5b6000610ec684828501610e8d565b91505092915050565b7f52657175657374204944206e6f742076616c6964000000000000000000000000600082015250565b6000610f05601483610b95565b9150610f1082610ecf565b602082019050919050565b60006020820190508181036000830152610f3481610ef8565b9050919050565b7f4e487b7100000000000000000000000000000000000000000000000000000000600052603260045260246000fd5b610f7381610792565b82525050565b6000602082019050610f8e6000830184610f6a565b9291505056fea26469706673582212209c13bf3e984130213259ecb8bdb0ee8b76182ccf7790ba5a925489dea2887a9764736f6c63430008110033",
  "immutableReferences": {
    "10": [
      {
        "length": 32,
        "start": 279
      },
      {
        "length": 32,
        "start": 363
      }
    ]
  },
  "source": "// SPDX-License-Identifier: MIT\r\npragma solidity ^0.8.9;\r\n\r\nimport \"@chainlink/contracts/src/v0.8/interfaces/VRFCoordinatorV2Interface.sol\";\r\nimport \"@chainlink/contracts/src/v0.8/VRFConsumerBaseV2.sol\";\r\nimport {LotteryOneInterface} from \"./interfaces/LotteryOneInterface.sol\";\r\nimport {GovernanceInterface} from \"./interfaces/GovernanceInterface.sol\";\r\n\r\ncontract Randomness is VRFConsumerBaseV2 {\r\n\r\n    GovernanceInterface public governanceContract;\r\n\r\n    VRFCoordinatorV2Interface COORDINATOR;\r\n\r\n    uint64 constant subscriptionId = 2641;\r\n\r\n    bytes32 keyHash = 0x4b09e658ed251bcafeebbc69400383d49f344ace09b9576fe248bb02c003fe9f;\r\n\r\n    mapping(uint => address) public requestIdToAddress;\r\n\r\n    uint32 public callbackGasLimit = 2500000;\r\n\r\n    uint16 requestConfirmations = 3;\r\n\r\n    uint32 numWords = 1;\r\n\r\n    modifier isAdmin {\r\n        require(msg.sender == governanceContract.admin(), \"Not admin\");\r\n        _;\r\n    }\r\n\r\n    constructor(address _governance)\r\n    VRFConsumerBaseV2(0x7a1BaC17Ccc5b313516C5E16fb24f7659aA5ebed)\r\n    {\r\n        COORDINATOR = VRFCoordinatorV2Interface(\r\n            0x7a1BaC17Ccc5b313516C5E16fb24f7659aA5ebed\r\n        );\r\n        governanceContract = GovernanceInterface(_governance);\r\n    }\r\n\r\n    function getRandom() external {\r\n        require(governanceContract.validateLottery(msg.sender), \"Not active lottery address\");\r\n        uint requestId = COORDINATOR.requestRandomWords(\r\n            keyHash,\r\n            subscriptionId,\r\n            requestConfirmations,\r\n            callbackGasLimit,\r\n            numWords\r\n        );\r\n        requestIdToAddress[requestId] = msg.sender;\r\n    }\r\n\r\n    function fulfillRandomWords(uint _requestId, uint[] memory _randomWords) internal override {\r\n        require(requestIdToAddress[_requestId] != address(0), \"Request ID not valid\");\r\n\r\n        address lotteryAddress = requestIdToAddress[_requestId];\r\n\r\n        LotteryOneInterface(lotteryAddress).fulfill_drawing(_randomWords[0]);\r\n    }\r\n\r\n    function changeGasLimit(uint32 _newLimit) external isAdmin {\r\n        require(_newLimit > 0, \"callbackGasLimit must be > 0\");\r\n        require(_newLimit != callbackGasLimit, \"callbackGasLimit can't be the same as now\");\r\n        callbackGasLimit = _newLimit;\r\n    }\r\n}\r\n\r\n\r\n",
  "sourcePath": "C:\\Users\\a18al\\Desktop\\lottery-one\\src\\contracts\\Randomness.sol",
  "compiler": {
    "name": "solc",
    "version": "0.8.17+commit.8df45f5f.Emscripten.clang"
  },
  "schemaVersion": "3.4.6",
  "updatedAt": "2022-11-18T13:33:14.278Z",
  "networkType": "ethereum",
  "devdoc": {
    "kind": "dev",
    "methods": {},
    "version": 1
  },
  "userdoc": {
    "kind": "user",
    "methods": {},
    "version": 1
  }
}