{
  "contractName": "Tickets",
  "abi": [
    {
      "inputs": [
        {
          "internalType": "address",
          "name": "_governance",
          "type": "address"
        }
      ],
      "stateMutability": "nonpayable",
      "type": "constructor"
    },
    {
      "anonymous": false,
      "inputs": [
        {
          "indexed": false,
          "internalType": "uint256",
          "name": "_ticketId",
          "type": "uint256"
        },
        {
          "indexed": true,
          "internalType": "address",
          "name": "_user",
          "type": "address"
        }
      ],
      "name": "TicketCreated",
      "type": "event"
    },
    {
      "inputs": [],
      "name": "governanceContract",
      "outputs": [
        {
          "internalType": "contract GovernanceInterface",
          "name": "",
          "type": "address"
        }
      ],
      "stateMutability": "view",
      "type": "function"
    },
    {
      "inputs": [],
      "name": "numberOfTickets",
      "outputs": [
        {
          "internalType": "uint256",
          "name": "",
          "type": "uint256"
        }
      ],
      "stateMutability": "view",
      "type": "function"
    },
    {
      "inputs": [
        {
          "internalType": "uint256",
          "name": "",
          "type": "uint256"
        }
      ],
      "name": "tickets",
      "outputs": [
        {
          "internalType": "address",
          "name": "lotteryAddress",
          "type": "address"
        },
        {
          "internalType": "uint256",
          "name": "lotteryId",
          "type": "uint256"
        },
        {
          "internalType": "bytes16",
          "name": "pickedNumbers",
          "type": "bytes16"
        },
        {
          "internalType": "uint256",
          "name": "paidOut",
          "type": "uint256"
        },
        {
          "internalType": "address",
          "name": "user",
          "type": "address"
        }
      ],
      "stateMutability": "view",
      "type": "function"
    },
    {
      "inputs": [
        {
          "internalType": "address",
          "name": "",
          "type": "address"
        },
        {
          "internalType": "uint256",
          "name": "",
          "type": "uint256"
        }
      ],
      "name": "users",
      "outputs": [
        {
          "internalType": "uint256",
          "name": "",
          "type": "uint256"
        }
      ],
      "stateMutability": "view",
      "type": "function"
    },
    {
      "inputs": [
        {
          "internalType": "uint256[]",
          "name": "_pickedNumbers",
          "type": "uint256[]"
        },
        {
          "internalType": "uint256",
          "name": "_lotteryId",
          "type": "uint256"
        },
        {
          "internalType": "address",
          "name": "_userAddress",
          "type": "address"
        }
      ],
      "name": "createTicket",
      "outputs": [
        {
          "internalType": "uint256",
          "name": "ticketNumber",
          "type": "uint256"
        }
      ],
      "stateMutability": "nonpayable",
      "type": "function"
    },
    {
      "inputs": [
        {
          "internalType": "uint256",
          "name": "_ticketId",
          "type": "uint256"
        },
        {
          "internalType": "uint256",
          "name": "_paidOut",
          "type": "uint256"
        }
      ],
      "name": "setPaidOut",
      "outputs": [],
      "stateMutability": "nonpayable",
      "type": "function"
    },
    {
      "inputs": [
        {
          "internalType": "uint256",
          "name": "_ticketId",
          "type": "uint256"
        }
      ],
      "name": "getTicketById",
      "outputs": [
        {
          "internalType": "address",
          "name": "lotteryAddress",
          "type": "address"
        },
        {
          "internalType": "uint256",
          "name": "ticketLotteryId",
          "type": "uint256"
        },
        {
          "internalType": "uint256[]",
          "name": "pickedNumbers",
          "type": "uint256[]"
        },
        {
          "internalType": "uint256",
          "name": "paidOut",
          "type": "uint256"
        },
        {
          "internalType": "address",
          "name": "user",
          "type": "address"
        },
        {
          "internalType": "uint256",
          "name": "sameCombinationCounter",
          "type": "uint256"
        }
      ],
      "stateMutability": "view",
      "type": "function"
    },
    {
      "inputs": [
        {
          "internalType": "uint256",
          "name": "_page",
          "type": "uint256"
        },
        {
          "internalType": "uint256",
          "name": "_resultsPerPage",
          "type": "uint256"
        }
      ],
      "name": "getUserTickets",
      "outputs": [
        {
          "internalType": "uint256",
          "name": "totalAmountOfTickets",
          "type": "uint256"
        },
        {
          "components": [
            {
              "internalType": "uint256",
              "name": "ticketId",
              "type": "uint256"
            },
            {
              "internalType": "address",
              "name": "lotteryAddress",
              "type": "address"
            },
            {
              "internalType": "uint256",
              "name": "ticketLotteryId",
              "type": "uint256"
            },
            {
              "internalType": "uint256[]",
              "name": "pickedNumbers",
              "type": "uint256[]"
            },
            {
              "internalType": "uint256",
              "name": "paidOut",
              "type": "uint256"
            },
            {
              "internalType": "address",
              "name": "user",
              "type": "address"
            },
            {
              "internalType": "uint256",
              "name": "sameCombinationCounter",
              "type": "uint256"
            }
          ],
          "internalType": "struct Tickets.TicketGetterStruct[]",
          "name": "userTickets",
          "type": "tuple[]"
        },
        {
          "internalType": "bool",
          "name": "isNextPage",
          "type": "bool"
        }
      ],
      "stateMutability": "view",
      "type": "function"
    },
    {
      "inputs": [
        {
          "internalType": "uint256",
          "name": "_lotteryId",
          "type": "uint256"
        },
        {
          "internalType": "uint256[]",
          "name": "_drawnNumbers",
          "type": "uint256[]"
        }
      ],
      "name": "getCombinationNumber",
      "outputs": [
        {
          "internalType": "uint256",
          "name": "combinationNumber",
          "type": "uint256"
        }
      ],
      "stateMutability": "view",
      "type": "function"
    }
  ],
  "bytecode": "0x60806040523480156200001157600080fd5b5060405162001d8b38038062001d8b8339818101604052810190620000379190620000f0565b806000806101000a81548173ffffffffffffffffffffffffffffffffffffffff021916908373ffffffffffffffffffffffffffffffffffffffff16021790555060006001819055505062000122565b600080fd5b600073ffffffffffffffffffffffffffffffffffffffff82169050919050565b6000620000b8826200008b565b9050919050565b620000ca81620000ab565b8114620000d657600080fd5b50565b600081519050620000ea81620000bf565b92915050565b60006020828403121562000109576200010862000086565b5b60006200011984828501620000d9565b91505092915050565b611c5980620001326000396000f3fe608060405234801561001057600080fd5b50600436106100935760003560e01c806354a02f9e1161006657806354a02f9e146101515780636c5e811e146101815780637aa4c766146101b1578063b172b222146101cd578063c8011a89146101eb57610093565b806327b7aabc1461009857806336d85567146100cd57806345745c10146100ff57806350b447121461011d575b600080fd5b6100b260048036038101906100ad91906111ee565b61021b565b6040516100c496959493929190611329565b60405180910390f35b6100e760048036038101906100e29190611391565b6103ad565b6040516100f6939291906115c8565b60405180910390f35b6101076108b3565b6040516101149190611606565b60405180910390f35b610137600480360381019061013291906111ee565b6108b9565b60405161014895949392919061165c565b60405180910390f35b61016b600480360381019061016691906116db565b61093c565b6040516101789190611606565b60405180910390f35b61019b60048036038101906101969190611874565b61096d565b6040516101a89190611606565b60405180910390f35b6101cb60048036038101906101c69190611391565b610d2e565b005b6101d5610e26565b6040516101e29190611942565b60405180910390f35b6102056004803603810190610200919061195d565b610e4a565b6040516102129190611606565b60405180910390f35b600080606060008060006002600088815260200190815260200160002060000160009054906101000a900473ffffffffffffffffffffffffffffffffffffffff169550600260008881526020019081526020016000206001015494506102a36002600089815260200190815260200160002060020160009054906101000a900460801b610ee9565b9350600260008881526020019081526020016000206003015492506002600088815260200190815260200160002060040160009054906101000a900473ffffffffffffffffffffffffffffffffffffffff169150600460008773ffffffffffffffffffffffffffffffffffffffff1673ffffffffffffffffffffffffffffffffffffffff16815260200190815260200160002060008681526020019081526020016000206000600260008a815260200190815260200160002060020160009054906101000a900460801b6fffffffffffffffffffffffffffffffff19166fffffffffffffffffffffffffffffffff1916815260200190815260200160002054905091939550919395565b600060606000600360003373ffffffffffffffffffffffffffffffffffffffff1673ffffffffffffffffffffffffffffffffffffffff16815260200190815260200160002080549050925060008514806104075750600084145b1561046b5782600067ffffffffffffffff81111561042857610427611731565b5b60405190808252806020026020018201604052801561046157816020015b61044e61113b565b8152602001906001900390816104465790505b50925092506108ac565b600084868661047a91906119e8565b6104849190611a2a565b90506000600360003373ffffffffffffffffffffffffffffffffffffffff1673ffffffffffffffffffffffffffffffffffffffff1681526020019081526020016000208054905014806104e257506001846104df9190611a2a565b81115b156105475783600067ffffffffffffffff81111561050357610502611731565b5b60405190808252806020026020018201604052801561053c57816020015b61052961113b565b8152602001906001900390816105215790505b5093509350506108ac565b8467ffffffffffffffff81111561056157610560611731565b5b60405190808252806020026020018201604052801561059a57816020015b61058761113b565b81526020019060019003908161057f5790505b50925060005b86866105ac91906119e8565b82101561089c576001856105c09190611a2a565b821161087b576000826001876105d69190611a2a565b6105e09190611a2a565b90506000600360003373ffffffffffffffffffffffffffffffffffffffff1673ffffffffffffffffffffffffffffffffffffffff168152602001908152602001600020828154811061063557610634611a5e565b5b906000526020600020015490506040518060e001604052808281526020016002600084815260200190815260200160002060000160009054906101000a900473ffffffffffffffffffffffffffffffffffffffff1673ffffffffffffffffffffffffffffffffffffffff168152602001600260008481526020019081526020016000206001015481526020016106ed6002600085815260200190815260200160002060020160009054906101000a900460801b610ee9565b8152602001600260008481526020019081526020016000206003015481526020016002600084815260200190815260200160002060040160009054906101000a900473ffffffffffffffffffffffffffffffffffffffff1673ffffffffffffffffffffffffffffffffffffffff168152602001600460006002600086815260200190815260200160002060000160009054906101000a900473ffffffffffffffffffffffffffffffffffffffff1673ffffffffffffffffffffffffffffffffffffffff1673ffffffffffffffffffffffffffffffffffffffff16815260200190815260200160002060006002600086815260200190815260200160002060010154815260200190815260200160002060006002600086815260200190815260200160002060020160009054906101000a900460801b6fffffffffffffffffffffffffffffffff19166fffffffffffffffffffffffffffffffff191681526020019081526020016000205481525086848151811061086d5761086c611a5e565b5b602002602001018190525050505b808061088690611a8d565b915050818061089490611a8d565b9250506105a0565b848210156108a957600192505b50505b9250925092565b60015481565b60026020528060005260406000206000915090508060000160009054906101000a900473ffffffffffffffffffffffffffffffffffffffff16908060010154908060020160009054906101000a900460801b908060030154908060040160009054906101000a900473ffffffffffffffffffffffffffffffffffffffff16905085565b6003602052816000526040600020818154811061095857600080fd5b90600052602060002001600091509150505481565b60008060009054906101000a900473ffffffffffffffffffffffffffffffffffffffff1673ffffffffffffffffffffffffffffffffffffffff1663e44c5323336040518263ffffffff1660e01b81526004016109c99190611ad5565b602060405180830381865afa1580156109e6573d6000803e3d6000fd5b505050506040513d601f19601f82011682018060405250810190610a0a9190611b1c565b610a49576040517f08c379a0000000000000000000000000000000000000000000000000000000008152600401610a4090611ba6565b60405180910390fd5b600060018054610a599190611bc6565b90506000610a668661107c565b90506040518060a001604052803373ffffffffffffffffffffffffffffffffffffffff168152602001868152602001826fffffffffffffffffffffffffffffffff19168152602001600081526020018573ffffffffffffffffffffffffffffffffffffffff168152506002600084815260200190815260200160002060008201518160000160006101000a81548173ffffffffffffffffffffffffffffffffffffffff021916908373ffffffffffffffffffffffffffffffffffffffff1602179055506020820151816001015560408201518160020160006101000a8154816fffffffffffffffffffffffffffffffff021916908360801c02179055506060820151816003015560808201518160040160006101000a81548173ffffffffffffffffffffffffffffffffffffffff021916908373ffffffffffffffffffffffffffffffffffffffff1602179055509050506001600460003373ffffffffffffffffffffffffffffffffffffffff1673ffffffffffffffffffffffffffffffffffffffff16815260200190815260200160002060008781526020019081526020016000206000836fffffffffffffffffffffffffffffffff19166fffffffffffffffffffffffffffffffff191681526020019081526020016000206000828254610c4f9190611bc6565b92505081905550600360008573ffffffffffffffffffffffffffffffffffffffff1673ffffffffffffffffffffffffffffffffffffffff16815260200190815260200160002082908060018154018082558091505060019003906000526020600020016000909190919091505560016000815480929190610ccf90611a8d565b91905055503373ffffffffffffffffffffffffffffffffffffffff167f960fa3b53d2527c64fb943b9502a4541b1137488cb027f95b36b06b44d10fedc83604051610d1a9190611606565b60405180910390a281925050509392505050565b60008054906101000a900473ffffffffffffffffffffffffffffffffffffffff1673ffffffffffffffffffffffffffffffffffffffff1663e44c5323336040518263ffffffff1660e01b8152600401610d879190611ad5565b602060405180830381865afa158015610da4573d6000803e3d6000fd5b505050506040513d601f19601f82011682018060405250810190610dc89190611b1c565b610e07576040517f08c379a0000000000000000000000000000000000000000000000000000000008152600401610dfe90611ba6565b60405180910390fd5b8060026000848152602001908152602001600020600301819055505050565b60008054906101000a900473ffffffffffffffffffffffffffffffffffffffff1681565b600080610e568361107c565b9050600460003373ffffffffffffffffffffffffffffffffffffffff1673ffffffffffffffffffffffffffffffffffffffff16815260200190815260200160002060008581526020019081526020016000206000826fffffffffffffffffffffffffffffffff19166fffffffffffffffffffffffffffffffff191681526020019081526020016000205491505092915050565b60606000601067ffffffffffffffff811115610f0857610f07611731565b5b604051908082528060200260200182016040528015610f365781602001602082028036833780820191505090505b509050600080600f90505b6000811115610fca57848160108110610f5d57610f5c611a5e565b5b1a60f81b60f81c60ff16838381518110610f7a57610f79611a5e565b5b6020026020010181815250506000838381518110610f9b57610f9a611a5e565b5b60200260200101510315610fca578180610fb490611a8d565b9250508080610fc290611bfa565b915050610f41565b5060008167ffffffffffffffff811115610fe757610fe6611731565b5b6040519080825280602002602001820160405280156110155781602001602082028036833780820191505090505b50905060005b828110156110705783818151811061103657611035611a5e565b5b602002602001015182828151811061105157611050611a5e565b5b602002602001018181525050808061106890611a8d565b91505061101b565b50809350505050919050565b600080825190506010811061109057600080fd5b6000836001836110a09190611a2a565b815181106110b1576110b0611a5e565b5b602002602001015160801b90506000600190505b828110156111305784816001856110dc9190611a2a565b6110e69190611a2a565b815181106110f7576110f6611a5e565b5b602002602001015160801b6008836fffffffffffffffffffffffffffffffff1916901b179150808061112890611a8d565b9150506110c5565b508092505050919050565b6040518060e0016040528060008152602001600073ffffffffffffffffffffffffffffffffffffffff168152602001600081526020016060815260200160008152602001600073ffffffffffffffffffffffffffffffffffffffff168152602001600081525090565b6000604051905090565b600080fd5b600080fd5b6000819050919050565b6111cb816111b8565b81146111d657600080fd5b50565b6000813590506111e8816111c2565b92915050565b600060208284031215611204576112036111ae565b5b6000611212848285016111d9565b91505092915050565b600073ffffffffffffffffffffffffffffffffffffffff82169050919050565b60006112468261121b565b9050919050565b6112568161123b565b82525050565b611265816111b8565b82525050565b600081519050919050565b600082825260208201905092915050565b6000819050602082019050919050565b6112a0816111b8565b82525050565b60006112b28383611297565b60208301905092915050565b6000602082019050919050565b60006112d68261126b565b6112e08185611276565b93506112eb83611287565b8060005b8381101561131c57815161130388826112a6565b975061130e836112be565b9250506001810190506112ef565b5085935050505092915050565b600060c08201905061133e600083018961124d565b61134b602083018861125c565b818103604083015261135d81876112cb565b905061136c606083018661125c565b611379608083018561124d565b61138660a083018461125c565b979650505050505050565b600080604083850312156113a8576113a76111ae565b5b60006113b6858286016111d9565b92505060206113c7858286016111d9565b9150509250929050565b600081519050919050565b600082825260208201905092915050565b6000819050602082019050919050565b6114068161123b565b82525050565b600082825260208201905092915050565b60006114288261126b565b611432818561140c565b935061143d83611287565b8060005b8381101561146e57815161145588826112a6565b9750611460836112be565b925050600181019050611441565b5085935050505092915050565b600060e0830160008301516114936000860182611297565b5060208301516114a660208601826113fd565b5060408301516114b96040860182611297565b50606083015184820360608601526114d1828261141d565b91505060808301516114e66080860182611297565b5060a08301516114f960a08601826113fd565b5060c083015161150c60c0860182611297565b508091505092915050565b6000611523838361147b565b905092915050565b6000602082019050919050565b6000611543826113d1565b61154d81856113dc565b93508360208202850161155f856113ed565b8060005b8581101561159b578484038952815161157c8582611517565b94506115878361152b565b925060208a01995050600181019050611563565b50829750879550505050505092915050565b60008115159050919050565b6115c2816115ad565b82525050565b60006060820190506115dd600083018661125c565b81810360208301526115ef8185611538565b90506115fe60408301846115b9565b949350505050565b600060208201905061161b600083018461125c565b92915050565b60007fffffffffffffffffffffffffffffffff0000000000000000000000000000000082169050919050565b61165681611621565b82525050565b600060a082019050611671600083018861124d565b61167e602083018761125c565b61168b604083018661164d565b611698606083018561125c565b6116a5608083018461124d565b9695505050505050565b6116b88161123b565b81146116c357600080fd5b50565b6000813590506116d5816116af565b92915050565b600080604083850312156116f2576116f16111ae565b5b6000611700858286016116c6565b9250506020611711858286016111d9565b9150509250929050565b600080fd5b6000601f19601f8301169050919050565b7f4e487b7100000000000000000000000000000000000000000000000000000000600052604160045260246000fd5b61176982611720565b810181811067ffffffffffffffff8211171561178857611787611731565b5b80604052505050565b600061179b6111a4565b90506117a78282611760565b919050565b600067ffffffffffffffff8211156117c7576117c6611731565b5b602082029050602081019050919050565b600080fd5b60006117f06117eb846117ac565b611791565b90508083825260208201905060208402830185811115611813576118126117d8565b5b835b8181101561183c578061182888826111d9565b845260208401935050602081019050611815565b5050509392505050565b600082601f83011261185b5761185a61171b565b5b813561186b8482602086016117dd565b91505092915050565b60008060006060848603121561188d5761188c6111ae565b5b600084013567ffffffffffffffff8111156118ab576118aa6111b3565b5b6118b786828701611846565b93505060206118c8868287016111d9565b92505060406118d9868287016116c6565b9150509250925092565b6000819050919050565b60006119086119036118fe8461121b565b6118e3565b61121b565b9050919050565b600061191a826118ed565b9050919050565b600061192c8261190f565b9050919050565b61193c81611921565b82525050565b60006020820190506119576000830184611933565b92915050565b60008060408385031215611974576119736111ae565b5b6000611982858286016111d9565b925050602083013567ffffffffffffffff8111156119a3576119a26111b3565b5b6119af85828601611846565b9150509250929050565b7f4e487b7100000000000000000000000000000000000000000000000000000000600052601160045260246000fd5b60006119f3826111b8565b91506119fe836111b8565b9250828202611a0c816111b8565b91508282048414831517611a2357611a226119b9565b5b5092915050565b6000611a35826111b8565b9150611a40836111b8565b9250828203905081811115611a5857611a576119b9565b5b92915050565b7f4e487b7100000000000000000000000000000000000000000000000000000000600052603260045260246000fd5b6000611a98826111b8565b91507fffffffffffffffffffffffffffffffffffffffffffffffffffffffffffffffff8203611aca57611ac96119b9565b5b600182019050919050565b6000602082019050611aea600083018461124d565b92915050565b611af9816115ad565b8114611b0457600080fd5b50565b600081519050611b1681611af0565b92915050565b600060208284031215611b3257611b316111ae565b5b6000611b4084828501611b07565b91505092915050565b600082825260208201905092915050565b7f4e6f74206c6f7474657279206164647265737300000000000000000000000000600082015250565b6000611b90601383611b49565b9150611b9b82611b5a565b602082019050919050565b60006020820190508181036000830152611bbf81611b83565b9050919050565b6000611bd1826111b8565b9150611bdc836111b8565b9250828201905080821115611bf457611bf36119b9565b5b92915050565b6000611c05826111b8565b915060008203611c1857611c176119b9565b5b60018203905091905056fea26469706673582212208fde9a2d0206af2dcc3fc29c7dd777213055abbf252c2fb42e5b543bcea691a164736f6c63430008110033",
  "immutableReferences": {},
  "source": "// SPDX-License-Identifier: MIT\r\npragma solidity ^0.8.9;\r\n\r\nimport {GovernanceInterface} from \"./interfaces/GovernanceInterface.sol\";\r\nimport \"./libraries/Seriality.sol\";\r\n\r\ncontract Tickets {\r\n\r\n    GovernanceInterface public governanceContract;\r\n\r\n    // Total number of tickets\r\n    uint public numberOfTickets;\r\n    // Mapping ticketId => details of the ticket\r\n    mapping(uint => Ticket) public tickets;\r\n    // Mapping user address => array of user's tickets ID\r\n    mapping(address => uint[]) public users;\r\n    // Mapping lottery address => lotteryId => bytes16 (pickedNumbers) => picked numbers counter\r\n    // It show how many tickets have the same combination\r\n    mapping(address => mapping(uint => mapping(bytes16 => uint))) internal combinationCounter;\r\n\r\n    struct Ticket {\r\n        address lotteryAddress;\r\n        uint lotteryId; // Lottery ID\r\n        bytes16 pickedNumbers; // Numbers user picked\r\n        uint paidOut; // How much ticket won\r\n        address user; // The user who owns the ticket\r\n    }\r\n\r\n    struct TicketGetterStruct {\r\n        uint ticketId;\r\n        address lotteryAddress;\r\n        uint ticketLotteryId;\r\n        uint[] pickedNumbers;\r\n        uint paidOut;\r\n        address user;\r\n        uint sameCombinationCounter;\r\n    }\r\n\r\n    // Ticket Created event\r\n    event TicketCreated(uint _ticketId, address indexed _user);\r\n\r\n    function createTicket(uint[] memory _pickedNumbers, uint _lotteryId, address _userAddress) external returns (uint ticketNumber) {\r\n        require(governanceContract.validateLottery(msg.sender), \"Not lottery address\");\r\n\r\n        // Increasing number of sold tickets\r\n        uint newTicket = numberOfTickets + 1;\r\n\r\n        bytes16 numbersSerialized = Seriality.getBytes16(_pickedNumbers);\r\n        // Creating a new ticket\r\n        tickets[newTicket] = Ticket({\r\n        lotteryAddress : msg.sender,\r\n        lotteryId : _lotteryId,\r\n        pickedNumbers : numbersSerialized,\r\n        paidOut : 0,\r\n        user : _userAddress\r\n        });\r\n\r\n        combinationCounter[msg.sender][_lotteryId][numbersSerialized] += 1;\r\n        // Saving ticketId in user tickets mapping\r\n        users[_userAddress].push(newTicket);\r\n        // Increasing total number of tickets\r\n        numberOfTickets++;\r\n\r\n        emit TicketCreated(newTicket, msg.sender);\r\n\r\n        return newTicket;\r\n    }\r\n\r\n    function setPaidOut(uint _ticketId, uint _paidOut) external {\r\n        require(governanceContract.validateLottery(msg.sender), \"Not lottery address\");\r\n\r\n        tickets[_ticketId].paidOut = _paidOut;\r\n    }\r\n\r\n    // Ticket getter by ticketId\r\n    function getTicketById(uint _ticketId) external view returns (\r\n        address lotteryAddress,\r\n        uint ticketLotteryId,\r\n        uint[] memory pickedNumbers,\r\n        uint paidOut,\r\n        address user,\r\n        uint sameCombinationCounter){\r\n\r\n        lotteryAddress = tickets[_ticketId].lotteryAddress;\r\n        ticketLotteryId = tickets[_ticketId].lotteryId;\r\n        pickedNumbers = Seriality.getArray(tickets[_ticketId].pickedNumbers);\r\n        paidOut = tickets[_ticketId].paidOut;\r\n        user = tickets[_ticketId].user;\r\n        sameCombinationCounter = combinationCounter[lotteryAddress][ticketLotteryId][tickets[_ticketId].pickedNumbers];\r\n    }\r\n\r\n    // Returns user tickets paginated\r\n    function getUserTickets(uint _page, uint _resultsPerPage) external view returns (\r\n        uint totalAmountOfTickets,\r\n        TicketGetterStruct[] memory userTickets,\r\n        bool isNextPage){\r\n\r\n        totalAmountOfTickets = users[msg.sender].length;\r\n\r\n        if (_page == 0 || _resultsPerPage == 0) {\r\n            return (totalAmountOfTickets, new TicketGetterStruct[](0), isNextPage);\r\n        }\r\n\r\n        uint _index = _resultsPerPage * _page - _resultsPerPage;\r\n\r\n        // return empty array if already empty or _index is out of bounds\r\n        if (\r\n            users[msg.sender].length == 0 ||\r\n            _index > totalAmountOfTickets - 1\r\n        ) {\r\n            return (totalAmountOfTickets, new TicketGetterStruct[](0), isNextPage);\r\n        }\r\n\r\n        userTickets = new TicketGetterStruct[](_resultsPerPage);\r\n        // start starting counter for return array\r\n        uint _returnCounter = 0;\r\n        // loop through array from starting point to end point\r\n        for (\r\n            _index;\r\n            _index < _resultsPerPage * _page;\r\n            _index++\r\n        ) {\r\n            // add array item unless out of bounds if so add uninitialized value (0 in the case of uint)\r\n            if (_index <= totalAmountOfTickets - 1) {\r\n                uint reversedIndex = totalAmountOfTickets - 1 - _index;\r\n                uint id = users[msg.sender][reversedIndex];\r\n\r\n                userTickets[_returnCounter] = TicketGetterStruct({\r\n                ticketId : id,\r\n                lotteryAddress : tickets[id].lotteryAddress,\r\n                ticketLotteryId : tickets[id].lotteryId,\r\n                pickedNumbers : Seriality.getArray(tickets[id].pickedNumbers),\r\n                paidOut : tickets[id].paidOut,\r\n                user : tickets[id].user,\r\n                sameCombinationCounter : combinationCounter[tickets[id].lotteryAddress][tickets[id].lotteryId][tickets[id].pickedNumbers]\r\n                });\r\n            }\r\n\r\n            _returnCounter++;\r\n        }\r\n\r\n        if (_index < totalAmountOfTickets) isNextPage = true;\r\n\r\n        return (totalAmountOfTickets, userTickets, isNextPage);\r\n    }\r\n\r\n    // Return number of combinations of particular set of numbers\r\n    function getCombinationNumber(uint _lotteryId, uint[] memory _drawnNumbers) external view returns (\r\n        uint combinationNumber){\r\n        bytes16 numbersSerialized = Seriality.getBytes16(_drawnNumbers);\r\n        combinationNumber = combinationCounter[msg.sender][_lotteryId][numbersSerialized];\r\n    }\r\n\r\n    constructor(address _governance) {\r\n        governanceContract = GovernanceInterface(_governance);\r\n        numberOfTickets = 0;\r\n    }\r\n}\r\n",
  "sourcePath": "C:\\Users\\a18al\\Desktop\\lottery-one\\src\\contracts\\Tickets.sol",
  "compiler": {
    "name": "solc",
    "version": "0.8.17+commit.8df45f5f.Emscripten.clang"
  },
  "schemaVersion": "3.4.6",
  "updatedAt": "2022-11-18T13:32:23.275Z",
  "devdoc": {
    "kind": "dev",
    "methods": {},
    "version": 1
  },
  "userdoc": {
    "kind": "user",
    "methods": {},
    "version": 1
  }
}