{
  "contractName": "VRFv2DirectFundingConsumer",
  "abi": [
    {
      "inputs": [],
      "stateMutability": "nonpayable",
      "type": "constructor"
    },
    {
      "anonymous": false,
      "inputs": [
        {
          "indexed": true,
          "internalType": "address",
          "name": "from",
          "type": "address"
        },
        {
          "indexed": true,
          "internalType": "address",
          "name": "to",
          "type": "address"
        }
      ],
      "name": "OwnershipTransferRequested",
      "type": "event"
    },
    {
      "anonymous": false,
      "inputs": [
        {
          "indexed": true,
          "internalType": "address",
          "name": "from",
          "type": "address"
        },
        {
          "indexed": true,
          "internalType": "address",
          "name": "to",
          "type": "address"
        }
      ],
      "name": "OwnershipTransferred",
      "type": "event"
    },
    {
      "anonymous": false,
      "inputs": [
        {
          "indexed": false,
          "internalType": "uint256",
          "name": "requestId",
          "type": "uint256"
        },
        {
          "indexed": false,
          "internalType": "uint256[]",
          "name": "randomWords",
          "type": "uint256[]"
        },
        {
          "indexed": false,
          "internalType": "uint256",
          "name": "payment",
          "type": "uint256"
        }
      ],
      "name": "RequestFulfilled",
      "type": "event"
    },
    {
      "anonymous": false,
      "inputs": [
        {
          "indexed": false,
          "internalType": "uint256",
          "name": "requestId",
          "type": "uint256"
        },
        {
          "indexed": false,
          "internalType": "uint32",
          "name": "numWords",
          "type": "uint32"
        }
      ],
      "name": "RequestSent",
      "type": "event"
    },
    {
      "inputs": [],
      "name": "acceptOwnership",
      "outputs": [],
      "stateMutability": "nonpayable",
      "type": "function"
    },
    {
      "inputs": [],
      "name": "last",
      "outputs": [
        {
          "internalType": "uint256",
          "name": "",
          "type": "uint256"
        }
      ],
      "stateMutability": "view",
      "type": "function"
    },
    {
      "inputs": [],
      "name": "lastRequestId",
      "outputs": [
        {
          "internalType": "uint256",
          "name": "",
          "type": "uint256"
        }
      ],
      "stateMutability": "view",
      "type": "function"
    },
    {
      "inputs": [],
      "name": "owner",
      "outputs": [
        {
          "internalType": "address",
          "name": "",
          "type": "address"
        }
      ],
      "stateMutability": "view",
      "type": "function"
    },
    {
      "inputs": [
        {
          "internalType": "uint256",
          "name": "_requestId",
          "type": "uint256"
        },
        {
          "internalType": "uint256[]",
          "name": "_randomWords",
          "type": "uint256[]"
        }
      ],
      "name": "rawFulfillRandomWords",
      "outputs": [],
      "stateMutability": "nonpayable",
      "type": "function"
    },
    {
      "inputs": [
        {
          "internalType": "uint256",
          "name": "",
          "type": "uint256"
        }
      ],
      "name": "requestIds",
      "outputs": [
        {
          "internalType": "uint256",
          "name": "",
          "type": "uint256"
        }
      ],
      "stateMutability": "view",
      "type": "function"
    },
    {
      "inputs": [
        {
          "internalType": "uint256",
          "name": "",
          "type": "uint256"
        }
      ],
      "name": "s_requests",
      "outputs": [
        {
          "internalType": "uint256",
          "name": "paid",
          "type": "uint256"
        },
        {
          "internalType": "bool",
          "name": "fulfilled",
          "type": "bool"
        }
      ],
      "stateMutability": "view",
      "type": "function"
    },
    {
      "inputs": [
        {
          "internalType": "address",
          "name": "to",
          "type": "address"
        }
      ],
      "name": "transferOwnership",
      "outputs": [],
      "stateMutability": "nonpayable",
      "type": "function"
    },
    {
      "inputs": [],
      "name": "requestRandomWords",
      "outputs": [
        {
          "internalType": "uint256",
          "name": "requestId",
          "type": "uint256"
        }
      ],
      "stateMutability": "nonpayable",
      "type": "function"
    },
    {
      "inputs": [
        {
          "internalType": "uint256",
          "name": "_requestId",
          "type": "uint256"
        }
      ],
      "name": "getRequestStatus",
      "outputs": [
        {
          "internalType": "uint256",
          "name": "paid",
          "type": "uint256"
        },
        {
          "internalType": "bool",
          "name": "fulfilled",
          "type": "bool"
        },
        {
          "internalType": "uint256[]",
          "name": "randomWords",
          "type": "uint256[]"
        }
      ],
      "stateMutability": "view",
      "type": "function"
    },
    {
      "inputs": [],
      "name": "withdrawLink",
      "outputs": [],
      "stateMutability": "nonpayable",
      "type": "function"
    }
  ],
  "bytecode": "0x60c06040526000600255620186a0600660006101000a81548163ffffffff021916908363ffffffff1602179055506003600660046101000a81548161ffff021916908361ffff16021790555060026006806101000a81548163ffffffff021916908363ffffffff16021790555073326c977e6efc84e512bb9c30f76e30c160ed06fb6006600a6101000a81548173ffffffffffffffffffffffffffffffffffffffff021916908373ffffffffffffffffffffffffffffffffffffffff1602179055507399afaf084eba697e584501b8ed2c0b37dd136693600760006101000a81548173ffffffffffffffffffffffffffffffffffffffff021916908373ffffffffffffffffffffffffffffffffffffffff1602179055503480156200012357600080fd5b50338060006006600a9054906101000a900473ffffffffffffffffffffffffffffffffffffffff16600760009054906101000a900473ffffffffffffffffffffffffffffffffffffffff168173ffffffffffffffffffffffffffffffffffffffff1660808173ffffffffffffffffffffffffffffffffffffffff16815250508073ffffffffffffffffffffffffffffffffffffffff1660a08173ffffffffffffffffffffffffffffffffffffffff16815250505050600073ffffffffffffffffffffffffffffffffffffffff168273ffffffffffffffffffffffffffffffffffffffff16036200024a576040517f08c379a000000000000000000000000000000000000000000000000000000000815260040162000241906200046a565b60405180910390fd5b816000806101000a81548173ffffffffffffffffffffffffffffffffffffffff021916908373ffffffffffffffffffffffffffffffffffffffff160217905550600073ffffffffffffffffffffffffffffffffffffffff168173ffffffffffffffffffffffffffffffffffffffff1614620002d157620002d081620002da60201b60201c565b5b505050620004fe565b3373ffffffffffffffffffffffffffffffffffffffff168173ffffffffffffffffffffffffffffffffffffffff16036200034b576040517f08c379a00000000000000000000000000000000000000000000000000000000081526004016200034290620004dc565b60405180910390fd5b80600160006101000a81548173ffffffffffffffffffffffffffffffffffffffff021916908373ffffffffffffffffffffffffffffffffffffffff1602179055508073ffffffffffffffffffffffffffffffffffffffff1660008054906101000a900473ffffffffffffffffffffffffffffffffffffffff1673ffffffffffffffffffffffffffffffffffffffff167fed8889f560326eb138920d842192f0eb3dd22b4f139c87a2c57538e05bae127860405160405180910390a350565b600082825260208201905092915050565b7f43616e6e6f7420736574206f776e657220746f207a65726f0000000000000000600082015250565b60006200045260188362000409565b91506200045f826200041a565b602082019050919050565b60006020820190508181036000830152620004858162000443565b9050919050565b7f43616e6e6f74207472616e7366657220746f2073656c66000000000000000000600082015250565b6000620004c460178362000409565b9150620004d1826200048c565b602082019050919050565b60006020820190508181036000830152620004f781620004b5565b9050919050565b60805160a0516118b062000540600039600081816102070152818161079201528181610b8401528181610ba50152610cc501526000610b4801526118b06000f3fe608060405234801561001057600080fd5b50600436106100a95760003560e01c80638dc654a2116100715780638dc654a214610140578063a168fa891461014a578063d8a4676f1461017b578063e0c86289146101ad578063f2fde38b146101cb578063fc2a88c3146101e7576100a9565b80631fe543e3146100ae57806347799da8146100ca57806379ba5097146100e85780638796ba8c146100f25780638da5cb5b14610122575b600080fd5b6100c860048036038101906100c39190611094565b610205565b005b6100d26102a1565b6040516100df91906110ff565b60405180910390f35b6100f06102a7565b005b61010c6004803603810190610107919061111a565b61043c565b60405161011991906110ff565b60405180910390f35b61012a610460565b6040516101379190611188565b60405180910390f35b610148610489565b005b610164600480360381019061015f919061111a565b6105f1565b6040516101729291906111be565b60405180910390f35b6101956004803603810190610190919061111a565b610622565b6040516101a4939291906112a5565b60405180910390f35b6101b561073c565b6040516101c291906110ff565b60405180910390f35b6101e560048036038101906101e0919061130f565b610970565b005b6101ef610984565b6040516101fc91906110ff565b60405180910390f35b7f000000000000000000000000000000000000000000000000000000000000000073ffffffffffffffffffffffffffffffffffffffff163373ffffffffffffffffffffffffffffffffffffffff1614610293576040517f08c379a000000000000000000000000000000000000000000000000000000000815260040161028a90611399565b60405180910390fd5b61029d828261098a565b5050565b60025481565b600160009054906101000a900473ffffffffffffffffffffffffffffffffffffffff1673ffffffffffffffffffffffffffffffffffffffff163373ffffffffffffffffffffffffffffffffffffffff1614610337576040517f08c379a000000000000000000000000000000000000000000000000000000000815260040161032e90611405565b60405180910390fd5b60008060009054906101000a900473ffffffffffffffffffffffffffffffffffffffff169050336000806101000a81548173ffffffffffffffffffffffffffffffffffffffff021916908373ffffffffffffffffffffffffffffffffffffffff1602179055506000600160006101000a81548173ffffffffffffffffffffffffffffffffffffffff021916908373ffffffffffffffffffffffffffffffffffffffff1602179055503373ffffffffffffffffffffffffffffffffffffffff168173ffffffffffffffffffffffffffffffffffffffff167f8be0079c531659141344cd1fd0a4f28419497f9722a3daafe3b4186f6b6457e060405160405180910390a350565b6004818154811061044c57600080fd5b906000526020600020016000915090505481565b60008060009054906101000a900473ffffffffffffffffffffffffffffffffffffffff16905090565b610491610ab4565b60006006600a9054906101000a900473ffffffffffffffffffffffffffffffffffffffff1690508073ffffffffffffffffffffffffffffffffffffffff1663a9059cbb338373ffffffffffffffffffffffffffffffffffffffff166370a08231306040518263ffffffff1660e01b815260040161050e9190611188565b602060405180830381865afa15801561052b573d6000803e3d6000fd5b505050506040513d601f19601f8201168201806040525081019061054f919061143a565b6040518363ffffffff1660e01b815260040161056c929190611467565b6020604051808303816000875af115801561058b573d6000803e3d6000fd5b505050506040513d601f19601f820116820180604052508101906105af91906114bc565b6105ee576040517f08c379a00000000000000000000000000000000000000000000000000000000081526004016105e590611535565b60405180910390fd5b50565b60036020528060005260406000206000915090508060000154908060010160009054906101000a900460ff16905082565b60008060606000600360008681526020019081526020016000206000015411610680576040517f08c379a0000000000000000000000000000000000000000000000000000000008152600401610677906115a1565b60405180910390fd5b600060036000868152602001908152602001600020604051806060016040529081600082015481526020016001820160009054906101000a900460ff161515151581526020016002820180548060200260200160405190810160405280929190818152602001828054801561071457602002820191906000526020600020905b815481526020019060010190808311610700575b5050505050815250509050806000015181602001518260400151935093509350509193909250565b6000610746610ab4565b610783600660009054906101000a900463ffffffff16600660049054906101000a900461ffff1660068054906101000a900463ffffffff16610b44565b905060405180606001604052807f000000000000000000000000000000000000000000000000000000000000000073ffffffffffffffffffffffffffffffffffffffff16634306d354600660009054906101000a900463ffffffff166040518263ffffffff1660e01b81526004016107fb91906115e0565b602060405180830381865afa158015610818573d6000803e3d6000fd5b505050506040513d601f19601f8201168201806040525081019061083c919061143a565b8152602001600015158152602001600067ffffffffffffffff81111561086557610864610f51565b5b6040519080825280602002602001820160405280156108935781602001602082028036833780820191505090505b50815250600360008381526020019081526020016000206000820151816000015560208201518160010160006101000a81548160ff02191690831515021790555060408201518160020190805190602001906108f0929190610e87565b509050506004819080600181540180825580915050600190039060005260206000200160009091909190915055806005819055507fcc58b13ad3eab50626c6a6300b1d139cd6ebb1688a7cced9461c2f7e762665ee8160068054906101000a900463ffffffff166040516109659291906115fb565b60405180910390a190565b610978610ab4565b61098181610d5b565b50565b60055481565b60006003600084815260200190815260200160002060000154116109e3576040517f08c379a00000000000000000000000000000000000000000000000000000000081526004016109da906115a1565b60405180910390fd5b60016003600084815260200190815260200160002060010160006101000a81548160ff02191690831515021790555080600360008481526020019081526020016000206002019080519060200190610a3c929190610e87565b5080600081518110610a5157610a50611624565b5b60200260200101516002819055507f147eb1ff0c82f87f2b03e2c43f5a36488ff63ec6b730195fde4605f612f8db5182826003600086815260200190815260200160002060000154604051610aa893929190611653565b60405180910390a15050565b60008054906101000a900473ffffffffffffffffffffffffffffffffffffffff1673ffffffffffffffffffffffffffffffffffffffff163373ffffffffffffffffffffffffffffffffffffffff1614610b42576040517f08c379a0000000000000000000000000000000000000000000000000000000008152600401610b39906116dd565b60405180910390fd5b565b60007f000000000000000000000000000000000000000000000000000000000000000073ffffffffffffffffffffffffffffffffffffffff16634000aea07f00000000000000000000000000000000000000000000000000000000000000007f000000000000000000000000000000000000000000000000000000000000000073ffffffffffffffffffffffffffffffffffffffff16634306d354886040518263ffffffff1660e01b8152600401610bfc91906115e0565b602060405180830381865afa158015610c19573d6000803e3d6000fd5b505050506040513d601f19601f82011682018060405250810190610c3d919061143a565b878787604051602001610c529392919061171a565b6040516020818303038152906040526040518463ffffffff1660e01b8152600401610c7f939291906117d0565b6020604051808303816000875af1158015610c9e573d6000803e3d6000fd5b505050506040513d601f19601f82011682018060405250810190610cc291906114bc565b507f000000000000000000000000000000000000000000000000000000000000000073ffffffffffffffffffffffffffffffffffffffff1663fc2a88c36040518163ffffffff1660e01b8152600401602060405180830381865afa158015610d2e573d6000803e3d6000fd5b505050506040513d601f19601f82011682018060405250810190610d52919061143a565b90509392505050565b3373ffffffffffffffffffffffffffffffffffffffff168173ffffffffffffffffffffffffffffffffffffffff1603610dc9576040517f08c379a0000000000000000000000000000000000000000000000000000000008152600401610dc09061185a565b60405180910390fd5b80600160006101000a81548173ffffffffffffffffffffffffffffffffffffffff021916908373ffffffffffffffffffffffffffffffffffffffff1602179055508073ffffffffffffffffffffffffffffffffffffffff1660008054906101000a900473ffffffffffffffffffffffffffffffffffffffff1673ffffffffffffffffffffffffffffffffffffffff167fed8889f560326eb138920d842192f0eb3dd22b4f139c87a2c57538e05bae127860405160405180910390a350565b828054828255906000526020600020908101928215610ec3579160200282015b82811115610ec2578251825591602001919060010190610ea7565b5b509050610ed09190610ed4565b5090565b5b80821115610eed576000816000905550600101610ed5565b5090565b6000604051905090565b600080fd5b600080fd5b6000819050919050565b610f1881610f05565b8114610f2357600080fd5b50565b600081359050610f3581610f0f565b92915050565b600080fd5b6000601f19601f8301169050919050565b7f4e487b7100000000000000000000000000000000000000000000000000000000600052604160045260246000fd5b610f8982610f40565b810181811067ffffffffffffffff82111715610fa857610fa7610f51565b5b80604052505050565b6000610fbb610ef1565b9050610fc78282610f80565b919050565b600067ffffffffffffffff821115610fe757610fe6610f51565b5b602082029050602081019050919050565b600080fd5b600061101061100b84610fcc565b610fb1565b9050808382526020820190506020840283018581111561103357611032610ff8565b5b835b8181101561105c57806110488882610f26565b845260208401935050602081019050611035565b5050509392505050565b600082601f83011261107b5761107a610f3b565b5b813561108b848260208601610ffd565b91505092915050565b600080604083850312156110ab576110aa610efb565b5b60006110b985828601610f26565b925050602083013567ffffffffffffffff8111156110da576110d9610f00565b5b6110e685828601611066565b9150509250929050565b6110f981610f05565b82525050565b600060208201905061111460008301846110f0565b92915050565b6000602082840312156111305761112f610efb565b5b600061113e84828501610f26565b91505092915050565b600073ffffffffffffffffffffffffffffffffffffffff82169050919050565b600061117282611147565b9050919050565b61118281611167565b82525050565b600060208201905061119d6000830184611179565b92915050565b60008115159050919050565b6111b8816111a3565b82525050565b60006040820190506111d360008301856110f0565b6111e060208301846111af565b9392505050565b600081519050919050565b600082825260208201905092915050565b6000819050602082019050919050565b61121c81610f05565b82525050565b600061122e8383611213565b60208301905092915050565b6000602082019050919050565b6000611252826111e7565b61125c81856111f2565b935061126783611203565b8060005b8381101561129857815161127f8882611222565b975061128a8361123a565b92505060018101905061126b565b5085935050505092915050565b60006060820190506112ba60008301866110f0565b6112c760208301856111af565b81810360408301526112d98184611247565b9050949350505050565b6112ec81611167565b81146112f757600080fd5b50565b600081359050611309816112e3565b92915050565b60006020828403121561132557611324610efb565b5b6000611333848285016112fa565b91505092915050565b600082825260208201905092915050565b7f6f6e6c792056524620563220777261707065722063616e2066756c66696c6c00600082015250565b6000611383601f8361133c565b915061138e8261134d565b602082019050919050565b600060208201905081810360008301526113b281611376565b9050919050565b7f4d7573742062652070726f706f736564206f776e657200000000000000000000600082015250565b60006113ef60168361133c565b91506113fa826113b9565b602082019050919050565b6000602082019050818103600083015261141e816113e2565b9050919050565b60008151905061143481610f0f565b92915050565b6000602082840312156114505761144f610efb565b5b600061145e84828501611425565b91505092915050565b600060408201905061147c6000830185611179565b61148960208301846110f0565b9392505050565b611499816111a3565b81146114a457600080fd5b50565b6000815190506114b681611490565b92915050565b6000602082840312156114d2576114d1610efb565b5b60006114e0848285016114a7565b91505092915050565b7f556e61626c6520746f207472616e736665720000000000000000000000000000600082015250565b600061151f60128361133c565b915061152a826114e9565b602082019050919050565b6000602082019050818103600083015261154e81611512565b9050919050565b7f72657175657374206e6f7420666f756e64000000000000000000000000000000600082015250565b600061158b60118361133c565b915061159682611555565b602082019050919050565b600060208201905081810360008301526115ba8161157e565b9050919050565b600063ffffffff82169050919050565b6115da816115c1565b82525050565b60006020820190506115f560008301846115d1565b92915050565b600060408201905061161060008301856110f0565b61161d60208301846115d1565b9392505050565b7f4e487b7100000000000000000000000000000000000000000000000000000000600052603260045260246000fd5b600060608201905061166860008301866110f0565b818103602083015261167a8185611247565b905061168960408301846110f0565b949350505050565b7f4f6e6c792063616c6c61626c65206279206f776e657200000000000000000000600082015250565b60006116c760168361133c565b91506116d282611691565b602082019050919050565b600060208201905081810360008301526116f6816116ba565b9050919050565b600061ffff82169050919050565b611714816116fd565b82525050565b600060608201905061172f60008301866115d1565b61173c602083018561170b565b61174960408301846115d1565b949350505050565b600081519050919050565b600082825260208201905092915050565b60005b8381101561178b578082015181840152602081019050611770565b60008484015250505050565b60006117a282611751565b6117ac818561175c565b93506117bc81856020860161176d565b6117c581610f40565b840191505092915050565b60006060820190506117e56000830186611179565b6117f260208301856110f0565b81810360408301526118048184611797565b9050949350505050565b7f43616e6e6f74207472616e7366657220746f2073656c66000000000000000000600082015250565b600061184460178361133c565b915061184f8261180e565b602082019050919050565b6000602082019050818103600083015261187381611837565b905091905056fea264697066735822122081b49241ef4882abba50962db177c235035c363a38c62983a71619ed72a9abfa64736f6c63430008110033",
  "immutableReferences": {
    "247": [
      {
        "length": 32,
        "start": 2888
      }
    ],
    "250": [
      {
        "length": 32,
        "start": 519
      },
      {
        "length": 32,
        "start": 1938
      },
      {
        "length": 32,
        "start": 2948
      },
      {
        "length": 32,
        "start": 2981
      },
      {
        "length": 32,
        "start": 3269
      }
    ]
  },
  "source": "// An example of a consumer contract that directly pays for each request.\r\npragma solidity ^0.8.9;\r\n\r\nimport \"@chainlink/contracts/src/v0.8/ConfirmedOwner.sol\";\r\nimport \"@chainlink/contracts/src/v0.8/VRFV2WrapperConsumerBase.sol\";\r\n\r\n/**\r\n * Request testnet LINK and ETH here: https://faucets.chain.link/\r\n * Find information on LINK Token Contracts and get the latest ETH and LINK faucets here: https://docs.chain.link/docs/link-token-contracts/\r\n */\r\n\r\n/**\r\n * THIS IS AN EXAMPLE CONTRACT THAT USES HARDCODED VALUES FOR CLARITY.\r\n * THIS IS AN EXAMPLE CONTRACT THAT USES UN-AUDITED CODE.\r\n * DO NOT USE THIS CODE IN PRODUCTION.\r\n */\r\n\r\ncontract VRFv2DirectFundingConsumer is\r\nVRFV2WrapperConsumerBase,\r\nConfirmedOwner\r\n{\r\n    event RequestSent(uint256 requestId, uint32 numWords);\r\n    event RequestFulfilled(\r\n        uint256 requestId,\r\n        uint256[] randomWords,\r\n        uint256 payment\r\n    );\r\n\r\n    struct RequestStatus {\r\n        uint256 paid; // amount paid in link\r\n        bool fulfilled; // whether the request has been successfully fulfilled\r\n        uint256[] randomWords;\r\n    }\r\n\r\n    uint public last = 0;\r\n    mapping(uint256 => RequestStatus)\r\n    public s_requests; /* requestId --> requestStatus */\r\n\r\n    // past requests Id.\r\n    uint256[] public requestIds;\r\n    uint256 public lastRequestId;\r\n\r\n    // Depends on the number of requested values that you want sent to the\r\n    // fulfillRandomWords() function. Test and adjust\r\n    // this limit based on the network that you select, the size of the request,\r\n    // and the processing of the callback request in the fulfillRandomWords()\r\n    // function.\r\n    uint32 callbackGasLimit = 100000;\r\n\r\n    // The default is 3, but you can set this higher.\r\n    uint16 requestConfirmations = 3;\r\n\r\n    // For this example, retrieve 2 random values in one request.\r\n    // Cannot exceed VRFV2Wrapper.getConfig().maxNumWords.\r\n    uint32 numWords = 2;\r\n\r\n    // Address LINK - hardcoded for Goerli\r\n    address linkAddress = 0x326C977E6efc84E512bB9C30f76E30c160eD06FB;\r\n\r\n    // address WRAPPER - hardcoded for Goerli\r\n    address wrapperAddress = 0x99aFAf084eBA697E584501b8Ed2c0B37Dd136693;\r\n\r\n    constructor()\r\n    ConfirmedOwner(msg.sender)\r\n    VRFV2WrapperConsumerBase(linkAddress, wrapperAddress)\r\n    {}\r\n\r\n    function requestRandomWords()\r\n    external\r\n    onlyOwner\r\n    returns (uint256 requestId)\r\n    {\r\n        requestId = requestRandomness(\r\n            callbackGasLimit,\r\n            requestConfirmations,\r\n            numWords\r\n        );\r\n        s_requests[requestId] = RequestStatus({\r\n        paid : VRF_V2_WRAPPER.calculateRequestPrice(callbackGasLimit),\r\n        randomWords : new uint256[](0),\r\n        fulfilled : false\r\n        });\r\n        requestIds.push(requestId);\r\n        lastRequestId = requestId;\r\n        emit RequestSent(requestId, numWords);\r\n        return requestId;\r\n    }\r\n\r\n    function fulfillRandomWords(\r\n        uint256 _requestId,\r\n        uint256[] memory _randomWords\r\n    ) internal override {\r\n        require(s_requests[_requestId].paid > 0, \"request not found\");\r\n        s_requests[_requestId].fulfilled = true;\r\n        s_requests[_requestId].randomWords = _randomWords;\r\n\r\n        last = _randomWords[0];\r\n        emit RequestFulfilled(\r\n            _requestId,\r\n            _randomWords,\r\n            s_requests[_requestId].paid\r\n        );\r\n    }\r\n\r\n    function getRequestStatus(\r\n        uint256 _requestId\r\n    )\r\n    external\r\n    view\r\n    returns (uint256 paid, bool fulfilled, uint256[] memory randomWords)\r\n    {\r\n        require(s_requests[_requestId].paid > 0, \"request not found\");\r\n        RequestStatus memory request = s_requests[_requestId];\r\n        return (request.paid, request.fulfilled, request.randomWords);\r\n    }\r\n\r\n    /**\r\n     * Allow withdraw of Link tokens from the contract\r\n     */\r\n    function withdrawLink() public onlyOwner {\r\n        LinkTokenInterface link = LinkTokenInterface(linkAddress);\r\n        require(\r\n            link.transfer(msg.sender, link.balanceOf(address(this))),\r\n            \"Unable to transfer\"\r\n        );\r\n    }\r\n}",
  "sourcePath": "C:\\Users\\a18al\\Desktop\\lottery-one\\src\\contracts\\RandomnessTest.sol",
  "compiler": {
    "name": "solc",
    "version": "0.8.17+commit.8df45f5f.Emscripten.clang"
  },
  "schemaVersion": "3.4.6",
  "updatedAt": "2022-11-18T13:23:28.811Z",
  "devdoc": {
    "kind": "dev",
    "methods": {},
    "version": 1
  },
  "userdoc": {
    "kind": "user",
    "methods": {
      "acceptOwnership()": {
        "notice": "Allows an ownership transfer to be completed by the recipient."
      },
      "owner()": {
        "notice": "Get the current owner"
      },
      "transferOwnership(address)": {
        "notice": "Allows an owner to begin transferring ownership to a new address, pending."
      },
      "withdrawLink()": {
        "notice": "Allow withdraw of Link tokens from the contract"
      }
    },
    "notice": "THIS IS AN EXAMPLE CONTRACT THAT USES HARDCODED VALUES FOR CLARITY. THIS IS AN EXAMPLE CONTRACT THAT USES UN-AUDITED CODE. DO NOT USE THIS CODE IN PRODUCTION.",
    "version": 1
  }
}